{
	"verified-sources/0x8982F2001c9e34C8a6109FC8a85539b14D23f9a9/sources/contracts/Pilix_Art.sol": {
		"PolyPILIX": {
			"abi": [
				{
					"inputs": [],
					"stateMutability": "nonpayable",
					"type": "constructor"
				},
				{
					"anonymous": false,
					"inputs": [
						{
							"indexed": true,
							"internalType": "address",
							"name": "account",
							"type": "address"
						},
						{
							"indexed": true,
							"internalType": "address",
							"name": "operator",
							"type": "address"
						},
						{
							"indexed": false,
							"internalType": "bool",
							"name": "approved",
							"type": "bool"
						}
					],
					"name": "ApprovalForAll",
					"type": "event"
				},
				{
					"anonymous": false,
					"inputs": [
						{
							"indexed": true,
							"internalType": "address",
							"name": "previousOwner",
							"type": "address"
						},
						{
							"indexed": true,
							"internalType": "address",
							"name": "newOwner",
							"type": "address"
						}
					],
					"name": "OwnershipTransferred",
					"type": "event"
				},
				{
					"anonymous": false,
					"inputs": [
						{
							"indexed": true,
							"internalType": "address",
							"name": "operator",
							"type": "address"
						},
						{
							"indexed": true,
							"internalType": "address",
							"name": "from",
							"type": "address"
						},
						{
							"indexed": true,
							"internalType": "address",
							"name": "to",
							"type": "address"
						},
						{
							"indexed": false,
							"internalType": "uint256[]",
							"name": "ids",
							"type": "uint256[]"
						},
						{
							"indexed": false,
							"internalType": "uint256[]",
							"name": "values",
							"type": "uint256[]"
						}
					],
					"name": "TransferBatch",
					"type": "event"
				},
				{
					"anonymous": false,
					"inputs": [
						{
							"indexed": true,
							"internalType": "address",
							"name": "operator",
							"type": "address"
						},
						{
							"indexed": true,
							"internalType": "address",
							"name": "from",
							"type": "address"
						},
						{
							"indexed": true,
							"internalType": "address",
							"name": "to",
							"type": "address"
						},
						{
							"indexed": false,
							"internalType": "uint256",
							"name": "id",
							"type": "uint256"
						},
						{
							"indexed": false,
							"internalType": "uint256",
							"name": "value",
							"type": "uint256"
						}
					],
					"name": "TransferSingle",
					"type": "event"
				},
				{
					"anonymous": false,
					"inputs": [
						{
							"indexed": false,
							"internalType": "string",
							"name": "value",
							"type": "string"
						},
						{
							"indexed": true,
							"internalType": "uint256",
							"name": "id",
							"type": "uint256"
						}
					],
					"name": "URI",
					"type": "event"
				},
				{
					"inputs": [
						{
							"internalType": "address",
							"name": "account",
							"type": "address"
						},
						{
							"internalType": "uint256",
							"name": "id",
							"type": "uint256"
						}
					],
					"name": "balanceOf",
					"outputs": [
						{
							"internalType": "uint256",
							"name": "",
							"type": "uint256"
						}
					],
					"stateMutability": "view",
					"type": "function"
				},
				{
					"inputs": [
						{
							"internalType": "address[]",
							"name": "accounts",
							"type": "address[]"
						},
						{
							"internalType": "uint256[]",
							"name": "ids",
							"type": "uint256[]"
						}
					],
					"name": "balanceOfBatch",
					"outputs": [
						{
							"internalType": "uint256[]",
							"name": "",
							"type": "uint256[]"
						}
					],
					"stateMutability": "view",
					"type": "function"
				},
				{
					"inputs": [
						{
							"internalType": "address",
							"name": "account",
							"type": "address"
						},
						{
							"internalType": "address",
							"name": "operator",
							"type": "address"
						}
					],
					"name": "isApprovedForAll",
					"outputs": [
						{
							"internalType": "bool",
							"name": "",
							"type": "bool"
						}
					],
					"stateMutability": "view",
					"type": "function"
				},
				{
					"inputs": [
						{
							"internalType": "uint256",
							"name": "id",
							"type": "uint256"
						},
						{
							"internalType": "uint256",
							"name": "amount",
							"type": "uint256"
						}
					],
					"name": "mint",
					"outputs": [],
					"stateMutability": "nonpayable",
					"type": "function"
				},
				{
					"inputs": [
						{
							"internalType": "uint256[]",
							"name": "ids",
							"type": "uint256[]"
						},
						{
							"internalType": "uint256[]",
							"name": "amounts",
							"type": "uint256[]"
						}
					],
					"name": "mintBatch",
					"outputs": [],
					"stateMutability": "nonpayable",
					"type": "function"
				},
				{
					"inputs": [],
					"name": "name",
					"outputs": [
						{
							"internalType": "string",
							"name": "",
							"type": "string"
						}
					],
					"stateMutability": "view",
					"type": "function"
				},
				{
					"inputs": [],
					"name": "owner",
					"outputs": [
						{
							"internalType": "address",
							"name": "",
							"type": "address"
						}
					],
					"stateMutability": "view",
					"type": "function"
				},
				{
					"inputs": [],
					"name": "renounceOwnership",
					"outputs": [],
					"stateMutability": "nonpayable",
					"type": "function"
				},
				{
					"inputs": [
						{
							"internalType": "address",
							"name": "from",
							"type": "address"
						},
						{
							"internalType": "address",
							"name": "to",
							"type": "address"
						},
						{
							"internalType": "uint256[]",
							"name": "ids",
							"type": "uint256[]"
						},
						{
							"internalType": "uint256[]",
							"name": "amounts",
							"type": "uint256[]"
						},
						{
							"internalType": "bytes",
							"name": "data",
							"type": "bytes"
						}
					],
					"name": "safeBatchTransferFrom",
					"outputs": [],
					"stateMutability": "nonpayable",
					"type": "function"
				},
				{
					"inputs": [
						{
							"internalType": "address",
							"name": "from",
							"type": "address"
						},
						{
							"internalType": "address",
							"name": "to",
							"type": "address"
						},
						{
							"internalType": "uint256",
							"name": "id",
							"type": "uint256"
						},
						{
							"internalType": "uint256",
							"name": "amount",
							"type": "uint256"
						},
						{
							"internalType": "bytes",
							"name": "data",
							"type": "bytes"
						}
					],
					"name": "safeTransferFrom",
					"outputs": [],
					"stateMutability": "nonpayable",
					"type": "function"
				},
				{
					"inputs": [
						{
							"internalType": "address",
							"name": "operator",
							"type": "address"
						},
						{
							"internalType": "bool",
							"name": "approved",
							"type": "bool"
						}
					],
					"name": "setApprovalForAll",
					"outputs": [],
					"stateMutability": "nonpayable",
					"type": "function"
				},
				{
					"inputs": [
						{
							"internalType": "string",
							"name": "_name",
							"type": "string"
						}
					],
					"name": "setName",
					"outputs": [],
					"stateMutability": "nonpayable",
					"type": "function"
				},
				{
					"inputs": [
						{
							"internalType": "string",
							"name": "_newuri",
							"type": "string"
						}
					],
					"name": "setURI",
					"outputs": [],
					"stateMutability": "nonpayable",
					"type": "function"
				},
				{
					"inputs": [
						{
							"internalType": "bytes4",
							"name": "interfaceId",
							"type": "bytes4"
						}
					],
					"name": "supportsInterface",
					"outputs": [
						{
							"internalType": "bool",
							"name": "",
							"type": "bool"
						}
					],
					"stateMutability": "view",
					"type": "function"
				},
				{
					"inputs": [
						{
							"internalType": "address",
							"name": "newOwner",
							"type": "address"
						}
					],
					"name": "transferOwnership",
					"outputs": [],
					"stateMutability": "nonpayable",
					"type": "function"
				},
				{
					"inputs": [
						{
							"internalType": "uint256",
							"name": "",
							"type": "uint256"
						}
					],
					"name": "uri",
					"outputs": [
						{
							"internalType": "string",
							"name": "",
							"type": "string"
						}
					],
					"stateMutability": "view",
					"type": "function"
				}
			],
			"devdoc": {
				"events": {
					"ApprovalForAll(address,address,bool)": {
						"details": "Emitted when `account` grants or revokes permission to `operator` to transfer their tokens, according to `approved`."
					},
					"TransferBatch(address,address,address,uint256[],uint256[])": {
						"details": "Equivalent to multiple {TransferSingle} events, where `operator`, `from` and `to` are the same for all transfers."
					},
					"TransferSingle(address,address,address,uint256,uint256)": {
						"details": "Emitted when `value` tokens of token type `id` are transferred from `from` to `to` by `operator`."
					},
					"URI(string,uint256)": {
						"details": "Emitted when the URI for token type `id` changes to `value`, if it is a non-programmatic URI. If an {URI} event was emitted for `id`, the standard https://eips.ethereum.org/EIPS/eip-1155#metadata-extensions[guarantees] that `value` will equal the value returned by {IERC1155MetadataURI-uri}."
					}
				},
				"kind": "dev",
				"methods": {
					"balanceOf(address,uint256)": {
						"details": "See {IERC1155-balanceOf}. Requirements: - `account` cannot be the zero address."
					},
					"balanceOfBatch(address[],uint256[])": {
						"details": "See {IERC1155-balanceOfBatch}. Requirements: - `accounts` and `ids` must have the same length."
					},
					"isApprovedForAll(address,address)": {
						"details": "See {IERC1155-isApprovedForAll}."
					},
					"owner()": {
						"details": "Returns the address of the current owner."
					},
					"renounceOwnership()": {
						"details": "Leaves the contract without owner. It will not be possible to call `onlyOwner` functions anymore. Can only be called by the current owner. NOTE: Renouncing ownership will leave the contract without an owner, thereby removing any functionality that is only available to the owner."
					},
					"safeBatchTransferFrom(address,address,uint256[],uint256[],bytes)": {
						"details": "See {IERC1155-safeBatchTransferFrom}."
					},
					"safeTransferFrom(address,address,uint256,uint256,bytes)": {
						"details": "See {IERC1155-safeTransferFrom}."
					},
					"setApprovalForAll(address,bool)": {
						"details": "See {IERC1155-setApprovalForAll}."
					},
					"supportsInterface(bytes4)": {
						"details": "See {IERC165-supportsInterface}."
					},
					"transferOwnership(address)": {
						"details": "Transfers ownership of the contract to a new account (`newOwner`). Can only be called by the current owner."
					},
					"uri(uint256)": {
						"details": "See {IERC1155MetadataURI-uri}. This implementation returns the same URI for *all* token types. It relies on the token type ID substitution mechanism https://eips.ethereum.org/EIPS/eip-1155#metadata[defined in the EIP]. Clients calling this function must replace the `\\{id\\}` substring with the actual token type ID."
					}
				},
				"version": 1
			},
			"evm": {
				"assembly": "    /* \"verified-sources/0x8982F2001c9e34C8a6109FC8a85539b14D23f9a9/sources/contracts/Pilix_Art.sol\":186:995  contract PolyPILIX is Ownable, ERC1155 {... */\n  mstore(0x40, 0x80)\n    /* \"verified-sources/0x8982F2001c9e34C8a6109FC8a85539b14D23f9a9/sources/contracts/Pilix_Art.sol\":305:506  constructor()... */\n  callvalue\n  dup1\n  iszero\n  tag_1\n  jumpi\n  0x00\n  dup1\n  revert\ntag_1:\n  pop\n    /* \"@openzeppelin/contracts/token/ERC1155/ERC1155.sol\":1107:1169  constructor(string memory uri_) {... */\n  mload(0x40)\n  dup1\n  0xa0\n  add\n  0x40\n  mstore\n  dup1\n  0x62\n  dup2\n  mstore\n  0x20\n  add\n  data_b69096fb9e6e5fa35af742ac376f5a10d50e8bf88aedd09999c0a03be282ea8c\n  0x62\n  swap2\n  codecopy\n    /* \"@openzeppelin/contracts/access/Ownable.sol\":936:968  _transferOwnership(_msgSender()) */\n  tag_6\n    /* \"@openzeppelin/contracts/utils/Context.sol\":719:729  msg.sender */\n  caller\n    /* \"@openzeppelin/contracts/access/Ownable.sol\":936:954  _transferOwnership */\n  tag_9\n    /* \"@openzeppelin/contracts/access/Ownable.sol\":936:968  _transferOwnership(_msgSender()) */\n  jump\t// in\ntag_6:\n    /* \"@openzeppelin/contracts/token/ERC1155/ERC1155.sol\":1149:1162  _setURI(uri_) */\n  tag_11\n    /* \"@openzeppelin/contracts/token/ERC1155/ERC1155.sol\":1157:1161  uri_ */\n  dup2\n    /* \"@openzeppelin/contracts/token/ERC1155/ERC1155.sol\":1149:1156  _setURI */\n  tag_12\n    /* \"@openzeppelin/contracts/token/ERC1155/ERC1155.sol\":1149:1162  _setURI(uri_) */\n  jump\t// in\ntag_11:\n  pop\n    /* \"verified-sources/0x8982F2001c9e34C8a6109FC8a85539b14D23f9a9/sources/contracts/Pilix_Art.sol\":478:498  setName('PolyPILIX') */\n  0x40\n  dup1\n  mload\n  dup1\n  dup3\n  add\n  swap1\n  swap2\n  mstore\n  0x09\n  dup2\n  mstore\n  shl(0xbb, 0x0a0ded8f2a0929892b)\n  0x20\n  dup3\n  add\n  mstore\n  tag_14\n  swap1\n    /* \"verified-sources/0x8982F2001c9e34C8a6109FC8a85539b14D23f9a9/sources/contracts/Pilix_Art.sol\":478:485  setName */\n  tag_15\n    /* \"verified-sources/0x8982F2001c9e34C8a6109FC8a85539b14D23f9a9/sources/contracts/Pilix_Art.sol\":478:498  setName('PolyPILIX') */\n  jump\t// in\ntag_14:\n    /* \"verified-sources/0x8982F2001c9e34C8a6109FC8a85539b14D23f9a9/sources/contracts/Pilix_Art.sol\":186:995  contract PolyPILIX is Ownable, ERC1155 {... */\n  jump(tag_40)\n    /* \"@openzeppelin/contracts/access/Ownable.sol\":2433:2620  function _transferOwnership(address newOwner) internal virtual {... */\ntag_9:\n    /* \"@openzeppelin/contracts/access/Ownable.sol\":2506:2522  address oldOwner */\n  0x00\n    /* \"@openzeppelin/contracts/access/Ownable.sol\":2525:2531  _owner */\n  dup1\n  sload\n  sub(shl(0xa0, 0x01), 0x01)\n    /* \"@openzeppelin/contracts/access/Ownable.sol\":2541:2558  _owner = newOwner */\n  dup4\n  dup2\n  and\n  not(sub(shl(0xa0, 0x01), 0x01))\n  dup4\n  and\n  dup2\n  or\n  dup5\n  sstore\n    /* \"@openzeppelin/contracts/access/Ownable.sol\":2573:2613  OwnershipTransferred(oldOwner, newOwner) */\n  mload(0x40)\n    /* \"@openzeppelin/contracts/access/Ownable.sol\":2525:2531  _owner */\n  swap2\n  swap1\n  swap3\n  and\n  swap3\n  dup4\n  swap2\n    /* \"@openzeppelin/contracts/access/Ownable.sol\":2573:2613  OwnershipTransferred(oldOwner, newOwner) */\n  0x8be0079c531659141344cd1fd0a4f28419497f9722a3daafe3b4186f6b6457e0\n  swap2\n    /* \"@openzeppelin/contracts/access/Ownable.sol\":2506:2522  address oldOwner */\n  swap1\n    /* \"@openzeppelin/contracts/access/Ownable.sol\":2573:2613  OwnershipTransferred(oldOwner, newOwner) */\n  log3\n    /* \"@openzeppelin/contracts/access/Ownable.sol\":2496:2620  {... */\n  pop\n    /* \"@openzeppelin/contracts/access/Ownable.sol\":2433:2620  function _transferOwnership(address newOwner) internal virtual {... */\n  pop\n  jump\t// out\n    /* \"@openzeppelin/contracts/token/ERC1155/ERC1155.sol\":8171:8257  function _setURI(string memory newuri) internal virtual {... */\ntag_12:\n    /* \"@openzeppelin/contracts/token/ERC1155/ERC1155.sol\":8237:8241  _uri */\n  0x03\n    /* \"@openzeppelin/contracts/token/ERC1155/ERC1155.sol\":8237:8250  _uri = newuri */\n  tag_20\n    /* \"@openzeppelin/contracts/token/ERC1155/ERC1155.sol\":8244:8250  newuri */\n  dup3\n    /* \"@openzeppelin/contracts/token/ERC1155/ERC1155.sol\":8237:8241  _uri */\n  dup3\n    /* \"@openzeppelin/contracts/token/ERC1155/ERC1155.sol\":8237:8250  _uri = newuri */\n  tag_21\n  jump\t// in\ntag_20:\n  pop\n    /* \"@openzeppelin/contracts/token/ERC1155/ERC1155.sol\":8171:8257  function _setURI(string memory newuri) internal virtual {... */\n  pop\n  jump\t// out\n    /* \"verified-sources/0x8982F2001c9e34C8a6109FC8a85539b14D23f9a9/sources/contracts/Pilix_Art.sol\":613:699  function setName(string memory _name) public onlyOwner {... */\ntag_15:\n    /* \"@openzeppelin/contracts/access/Ownable.sol\":1094:1107  _checkOwner() */\n  tag_23\n    /* \"@openzeppelin/contracts/access/Ownable.sol\":1094:1105  _checkOwner */\n  tag_24\n    /* \"@openzeppelin/contracts/access/Ownable.sol\":1094:1107  _checkOwner() */\n  jump\t// in\ntag_23:\n    /* \"verified-sources/0x8982F2001c9e34C8a6109FC8a85539b14D23f9a9/sources/contracts/Pilix_Art.sol\":679:683  name */\n  0x05\n    /* \"verified-sources/0x8982F2001c9e34C8a6109FC8a85539b14D23f9a9/sources/contracts/Pilix_Art.sol\":679:691  name = _name */\n  tag_20\n    /* \"verified-sources/0x8982F2001c9e34C8a6109FC8a85539b14D23f9a9/sources/contracts/Pilix_Art.sol\":686:691  _name */\n  dup3\n    /* \"verified-sources/0x8982F2001c9e34C8a6109FC8a85539b14D23f9a9/sources/contracts/Pilix_Art.sol\":679:683  name */\n  dup3\n    /* \"verified-sources/0x8982F2001c9e34C8a6109FC8a85539b14D23f9a9/sources/contracts/Pilix_Art.sol\":679:691  name = _name */\n  tag_21\n  jump\t// in\n    /* \"@openzeppelin/contracts/access/Ownable.sol\":1359:1489  function _checkOwner() internal view virtual {... */\ntag_24:\n    /* \"@openzeppelin/contracts/access/Ownable.sol\":1247:1254  address */\n  0x00\n    /* \"@openzeppelin/contracts/access/Ownable.sol\":1273:1279  _owner */\n  sload\n  sub(shl(0xa0, 0x01), 0x01)\n  and\n    /* \"@openzeppelin/contracts/utils/Context.sol\":719:729  msg.sender */\n  caller\n    /* \"@openzeppelin/contracts/access/Ownable.sol\":1422:1445  owner() == _msgSender() */\n  eq\n    /* \"@openzeppelin/contracts/access/Ownable.sol\":1414:1482  require(owner() == _msgSender(), \"Ownable: caller is not the owner\") */\n  tag_31\n  jumpi\n  mload(0x40)\n  shl(0xe5, 0x461bcd)\n  dup2\n  mstore\n    /* \"#utility.yul\":2937:2939   */\n  0x20\n    /* \"@openzeppelin/contracts/access/Ownable.sol\":1414:1482  require(owner() == _msgSender(), \"Ownable: caller is not the owner\") */\n  0x04\n  dup3\n  add\n    /* \"#utility.yul\":2919:2940   */\n  dup2\n  swap1\n  mstore\n    /* \"#utility.yul\":2956:2974   */\n  0x24\n  dup3\n  add\n    /* \"#utility.yul\":2949:2979   */\n  mstore\n    /* \"#utility.yul\":3015:3049   */\n  0x4f776e61626c653a2063616c6c6572206973206e6f7420746865206f776e6572\n    /* \"#utility.yul\":2995:3013   */\n  0x44\n  dup3\n  add\n    /* \"#utility.yul\":2988:3050   */\n  mstore\n    /* \"#utility.yul\":3067:3085   */\n  0x64\n  add\n    /* \"@openzeppelin/contracts/access/Ownable.sol\":1414:1482  require(owner() == _msgSender(), \"Ownable: caller is not the owner\") */\n  mload(0x40)\n  dup1\n  swap2\n  sub\n  swap1\n  revert\ntag_31:\n    /* \"@openzeppelin/contracts/access/Ownable.sol\":1359:1489  function _checkOwner() internal view virtual {... */\n  jump\t// out\n    /* \"#utility.yul\":14:141   */\ntag_35:\n    /* \"#utility.yul\":75:85   */\n  0x4e487b71\n    /* \"#utility.yul\":70:73   */\n  0xe0\n    /* \"#utility.yul\":66:86   */\n  shl\n    /* \"#utility.yul\":63:64   */\n  0x00\n    /* \"#utility.yul\":56:87   */\n  mstore\n    /* \"#utility.yul\":106:110   */\n  0x41\n    /* \"#utility.yul\":103:104   */\n  0x04\n    /* \"#utility.yul\":96:111   */\n  mstore\n    /* \"#utility.yul\":130:134   */\n  0x24\n    /* \"#utility.yul\":127:128   */\n  0x00\n    /* \"#utility.yul\":120:135   */\n  revert\n    /* \"#utility.yul\":146:526   */\ntag_36:\n    /* \"#utility.yul\":225:226   */\n  0x01\n    /* \"#utility.yul\":221:233   */\n  dup2\n  dup2\n  shr\n  swap1\n    /* \"#utility.yul\":268:280   */\n  dup3\n  and\n  dup1\n    /* \"#utility.yul\":289:350   */\n  tag_43\n  jumpi\n    /* \"#utility.yul\":343:347   */\n  0x7f\n    /* \"#utility.yul\":335:341   */\n  dup3\n    /* \"#utility.yul\":331:348   */\n  and\n    /* \"#utility.yul\":321:348   */\n  swap2\n  pop\n    /* \"#utility.yul\":289:350   */\ntag_43:\n    /* \"#utility.yul\":396:398   */\n  0x20\n    /* \"#utility.yul\":388:394   */\n  dup3\n    /* \"#utility.yul\":385:399   */\n  lt\n    /* \"#utility.yul\":365:383   */\n  dup2\n    /* \"#utility.yul\":362:400   */\n  sub\n    /* \"#utility.yul\":359:520   */\n  tag_44\n  jumpi\n    /* \"#utility.yul\":442:452   */\n  0x4e487b71\n    /* \"#utility.yul\":437:440   */\n  0xe0\n    /* \"#utility.yul\":433:453   */\n  shl\n    /* \"#utility.yul\":430:431   */\n  0x00\n    /* \"#utility.yul\":423:454   */\n  mstore\n    /* \"#utility.yul\":477:481   */\n  0x22\n    /* \"#utility.yul\":474:475   */\n  0x04\n    /* \"#utility.yul\":467:482   */\n  mstore\n    /* \"#utility.yul\":505:509   */\n  0x24\n    /* \"#utility.yul\":502:503   */\n  0x00\n    /* \"#utility.yul\":495:510   */\n  revert\n    /* \"#utility.yul\":359:520   */\ntag_44:\n  pop\n    /* \"#utility.yul\":146:526   */\n  swap2\n  swap1\n  pop\n  jump\t// out\n    /* \"#utility.yul\":657:1202   */\ntag_38:\n    /* \"#utility.yul\":759:761   */\n  0x1f\n    /* \"#utility.yul\":754:757   */\n  dup3\n    /* \"#utility.yul\":751:762   */\n  gt\n    /* \"#utility.yul\":748:1196   */\n  iszero\n  tag_47\n  jumpi\n    /* \"#utility.yul\":795:796   */\n  0x00\n    /* \"#utility.yul\":820:825   */\n  dup2\n    /* \"#utility.yul\":816:818   */\n  dup2\n    /* \"#utility.yul\":809:826   */\n  mstore\n    /* \"#utility.yul\":865:869   */\n  0x20\n    /* \"#utility.yul\":861:863   */\n  dup2\n    /* \"#utility.yul\":851:870   */\n  keccak256\n    /* \"#utility.yul\":935:937   */\n  0x1f\n    /* \"#utility.yul\":923:933   */\n  dup6\n    /* \"#utility.yul\":919:938   */\n  add\n    /* \"#utility.yul\":916:917   */\n  0x05\n    /* \"#utility.yul\":912:939   */\n  shr\n    /* \"#utility.yul\":906:910   */\n  dup2\n    /* \"#utility.yul\":902:940   */\n  add\n    /* \"#utility.yul\":971:975   */\n  0x20\n    /* \"#utility.yul\":959:969   */\n  dup7\n    /* \"#utility.yul\":956:976   */\n  lt\n    /* \"#utility.yul\":953:1000   */\n  iszero\n  tag_48\n  jumpi\n  pop\n    /* \"#utility.yul\":994:998   */\n  dup1\n    /* \"#utility.yul\":953:1000   */\ntag_48:\n    /* \"#utility.yul\":1049:1051   */\n  0x1f\n    /* \"#utility.yul\":1044:1047   */\n  dup6\n    /* \"#utility.yul\":1040:1052   */\n  add\n    /* \"#utility.yul\":1037:1038   */\n  0x05\n    /* \"#utility.yul\":1033:1053   */\n  shr\n    /* \"#utility.yul\":1027:1031   */\n  dup3\n    /* \"#utility.yul\":1023:1054   */\n  add\n    /* \"#utility.yul\":1013:1054   */\n  swap2\n  pop\n    /* \"#utility.yul\":1104:1186   */\ntag_49:\n    /* \"#utility.yul\":1122:1124   */\n  dup2\n    /* \"#utility.yul\":1115:1120   */\n  dup2\n    /* \"#utility.yul\":1112:1125   */\n  lt\n    /* \"#utility.yul\":1104:1186   */\n  iszero\n  tag_51\n  jumpi\n    /* \"#utility.yul\":1167:1184   */\n  dup3\n  dup2\n  sstore\n    /* \"#utility.yul\":1148:1149   */\n  0x01\n    /* \"#utility.yul\":1137:1150   */\n  add\n    /* \"#utility.yul\":1104:1186   */\n  jump(tag_49)\ntag_51:\n    /* \"#utility.yul\":1108:1111   */\n  pop\n  pop\n  pop\n    /* \"#utility.yul\":748:1196   */\ntag_47:\n    /* \"#utility.yul\":657:1202   */\n  pop\n  pop\n  pop\n  jump\t// out\n    /* \"#utility.yul\":1378:2730   */\ntag_21:\n    /* \"#utility.yul\":1498:1508   */\n  dup2\n  mload\n  sub(shl(0x40, 0x01), 0x01)\n    /* \"#utility.yul\":1520:1550   */\n  dup2\n  gt\n    /* \"#utility.yul\":1517:1573   */\n  iszero\n  tag_55\n  jumpi\n    /* \"#utility.yul\":1553:1571   */\n  tag_55\n  tag_35\n  jump\t// in\ntag_55:\n    /* \"#utility.yul\":1582:1679   */\n  tag_56\n    /* \"#utility.yul\":1672:1678   */\n  dup2\n    /* \"#utility.yul\":1632:1670   */\n  tag_57\n    /* \"#utility.yul\":1664:1668   */\n  dup5\n    /* \"#utility.yul\":1658:1669   */\n  sload\n    /* \"#utility.yul\":1632:1670   */\n  tag_36\n  jump\t// in\ntag_57:\n    /* \"#utility.yul\":1626:1630   */\n  dup5\n    /* \"#utility.yul\":1582:1679   */\n  tag_38\n  jump\t// in\ntag_56:\n    /* \"#utility.yul\":1734:1738   */\n  0x20\n  dup1\n    /* \"#utility.yul\":1798:1800   */\n  0x1f\n    /* \"#utility.yul\":1787:1801   */\n  dup4\n  gt\n    /* \"#utility.yul\":1815:1816   */\n  0x01\n    /* \"#utility.yul\":1810:2473   */\n  dup2\n  eq\n  tag_59\n  jumpi\n    /* \"#utility.yul\":2517:2518   */\n  0x00\n    /* \"#utility.yul\":2534:2540   */\n  dup5\n    /* \"#utility.yul\":2531:2620   */\n  iszero\n  tag_60\n  jumpi\n  pop\n    /* \"#utility.yul\":2586:2605   */\n  dup6\n  dup4\n  add\n    /* \"#utility.yul\":2580:2606   */\n  mload\n    /* \"#utility.yul\":2531:2620   */\ntag_60:\n  not(0x00)\n    /* \"#utility.yul\":1335:1336   */\n  0x03\n    /* \"#utility.yul\":1331:1342   */\n  dup7\n  swap1\n  shl\n    /* \"#utility.yul\":1327:1351   */\n  shr\n    /* \"#utility.yul\":1323:1352   */\n  not\n    /* \"#utility.yul\":1313:1353   */\n  and\n    /* \"#utility.yul\":1359:1360   */\n  0x01\n    /* \"#utility.yul\":1355:1366   */\n  dup6\n  swap1\n  shl\n    /* \"#utility.yul\":1310:1367   */\n  or\n    /* \"#utility.yul\":2633:2714   */\n  dup6\n  sstore\n    /* \"#utility.yul\":1780:2724   */\n  jump(tag_51)\n    /* \"#utility.yul\":1810:2473   */\ntag_59:\n    /* \"#utility.yul\":604:605   */\n  0x00\n    /* \"#utility.yul\":597:611   */\n  dup6\n  dup2\n  mstore\n    /* \"#utility.yul\":641:645   */\n  0x20\n    /* \"#utility.yul\":628:646   */\n  dup2\n  keccak256\n  not(0x1f)\n    /* \"#utility.yul\":1846:1866   */\n  dup7\n  and\n  swap2\n    /* \"#utility.yul\":1964:2200   */\ntag_63:\n    /* \"#utility.yul\":1978:1985   */\n  dup3\n    /* \"#utility.yul\":1975:1976   */\n  dup2\n    /* \"#utility.yul\":1972:1986   */\n  lt\n    /* \"#utility.yul\":1964:2200   */\n  iszero\n  tag_65\n  jumpi\n    /* \"#utility.yul\":2067:2086   */\n  dup9\n  dup7\n  add\n    /* \"#utility.yul\":2061:2087   */\n  mload\n    /* \"#utility.yul\":2046:2088   */\n  dup3\n  sstore\n    /* \"#utility.yul\":2159:2186   */\n  swap5\n  dup5\n  add\n  swap5\n    /* \"#utility.yul\":2127:2128   */\n  0x01\n    /* \"#utility.yul\":2115:2129   */\n  swap1\n  swap2\n  add\n  swap1\n    /* \"#utility.yul\":1994:2013   */\n  dup5\n  add\n    /* \"#utility.yul\":1964:2200   */\n  jump(tag_63)\ntag_65:\n    /* \"#utility.yul\":1968:1971   */\n  pop\n    /* \"#utility.yul\":2228:2234   */\n  dup6\n    /* \"#utility.yul\":2219:2226   */\n  dup3\n    /* \"#utility.yul\":2216:2235   */\n  lt\n    /* \"#utility.yul\":2213:2414   */\n  iszero\n  tag_66\n  jumpi\n    /* \"#utility.yul\":2289:2308   */\n  dup8\n  dup6\n  add\n    /* \"#utility.yul\":2283:2309   */\n  mload\n  not(0x00)\n    /* \"#utility.yul\":2372:2373   */\n  0x03\n    /* \"#utility.yul\":2368:2382   */\n  dup9\n  swap1\n  shl\n    /* \"#utility.yul\":2384:2387   */\n  0xf8\n    /* \"#utility.yul\":2364:2388   */\n  and\n    /* \"#utility.yul\":2360:2397   */\n  shr\n    /* \"#utility.yul\":2356:2398   */\n  not\n    /* \"#utility.yul\":2341:2399   */\n  and\n    /* \"#utility.yul\":2326:2400   */\n  dup2\n  sstore\n    /* \"#utility.yul\":2213:2414   */\ntag_66:\n  pop\n  pop\n  pop\n  pop\n  pop\n    /* \"#utility.yul\":2460:2461   */\n  0x01\n    /* \"#utility.yul\":2444:2458   */\n  swap1\n  dup2\n  shl\n    /* \"#utility.yul\":2440:2462   */\n  add\n    /* \"#utility.yul\":2427:2463   */\n  swap1\n  sstore\n  pop\n    /* \"#utility.yul\":1378:2730   */\n  jump\t// out\n    /* \"#utility.yul\":2735:3091   */\ntag_40:\n    /* \"verified-sources/0x8982F2001c9e34C8a6109FC8a85539b14D23f9a9/sources/contracts/Pilix_Art.sol\":186:995  contract PolyPILIX is Ownable, ERC1155 {... */\n  dataSize(sub_0)\n  dup1\n  dataOffset(sub_0)\n  0x00\n  codecopy\n  0x00\n  return\nstop\ndata_b69096fb9e6e5fa35af742ac376f5a10d50e8bf88aedd09999c0a03be282ea8c 68747470733a2f2f62616679626569656f797a336b6b3537616f626d366c72756465616f6f6a63696d6b6e65637a36683433796f78616e686d6f37637236787276346d2e697066732e6e667473746f726167652e6c696e6b2f7b69647d2e6a736f6e\n\nsub_0: assembly {\n        /* \"verified-sources/0x8982F2001c9e34C8a6109FC8a85539b14D23f9a9/sources/contracts/Pilix_Art.sol\":186:995  contract PolyPILIX is Ownable, ERC1155 {... */\n      mstore(0x40, 0x80)\n      callvalue\n      dup1\n      iszero\n      tag_1\n      jumpi\n      0x00\n      dup1\n      revert\n    tag_1:\n      pop\n      jumpi(tag_2, lt(calldatasize, 0x04))\n      shr(0xe0, calldataload(0x00))\n      dup1\n      0x715018a6\n      gt\n      tag_19\n      jumpi\n      dup1\n      0xd351cfdc\n      gt\n      tag_20\n      jumpi\n      dup1\n      0xd351cfdc\n      eq\n      tag_15\n      jumpi\n      dup1\n      0xe985e9c5\n      eq\n      tag_16\n      jumpi\n      dup1\n      0xf242432a\n      eq\n      tag_17\n      jumpi\n      dup1\n      0xf2fde38b\n      eq\n      tag_18\n      jumpi\n      0x00\n      dup1\n      revert\n    tag_20:\n      dup1\n      0x715018a6\n      eq\n      tag_11\n      jumpi\n      dup1\n      0x8da5cb5b\n      eq\n      tag_12\n      jumpi\n      dup1\n      0xa22cb465\n      eq\n      tag_13\n      jumpi\n      dup1\n      0xc47f0027\n      eq\n      tag_14\n      jumpi\n      0x00\n      dup1\n      revert\n    tag_19:\n      dup1\n      0x0e89341c\n      gt\n      tag_21\n      jumpi\n      dup1\n      0x0e89341c\n      eq\n      tag_7\n      jumpi\n      dup1\n      0x1b2ef1ca\n      eq\n      tag_8\n      jumpi\n      dup1\n      0x2eb2c2d6\n      eq\n      tag_9\n      jumpi\n      dup1\n      0x4e1273f4\n      eq\n      tag_10\n      jumpi\n      0x00\n      dup1\n      revert\n    tag_21:\n      dup1\n      0xfdd58e\n      eq\n      tag_3\n      jumpi\n      dup1\n      0x01ffc9a7\n      eq\n      tag_4\n      jumpi\n      dup1\n      0x02fe5305\n      eq\n      tag_5\n      jumpi\n      dup1\n      0x06fdde03\n      eq\n      tag_6\n      jumpi\n    tag_2:\n      0x00\n      dup1\n      revert\n        /* \"@openzeppelin/contracts/token/ERC1155/ERC1155.sol\":2185:2412  function balanceOf(address account, uint256 id) public view virtual override returns (uint256) {... */\n    tag_3:\n      tag_22\n      tag_23\n      calldatasize\n      0x04\n      tag_24\n      jump\t// in\n    tag_23:\n      tag_25\n      jump\t// in\n    tag_22:\n      mload(0x40)\n        /* \"#utility.yul\":597:622   */\n      swap1\n      dup2\n      mstore\n        /* \"#utility.yul\":585:587   */\n      0x20\n        /* \"#utility.yul\":570:588   */\n      add\n        /* \"@openzeppelin/contracts/token/ERC1155/ERC1155.sol\":2185:2412  function balanceOf(address account, uint256 id) public view virtual override returns (uint256) {... */\n    tag_26:\n      mload(0x40)\n      dup1\n      swap2\n      sub\n      swap1\n      return\n        /* \"@openzeppelin/contracts/token/ERC1155/ERC1155.sol\":1236:1541  function supportsInterface(bytes4 interfaceId) public view virtual override(ERC165, IERC165) returns (bool) {... */\n    tag_4:\n      tag_28\n      tag_29\n      calldatasize\n      0x04\n      tag_30\n      jump\t// in\n    tag_29:\n      tag_31\n      jump\t// in\n    tag_28:\n      mload(0x40)\n        /* \"#utility.yul\":1184:1198   */\n      swap1\n      iszero\n        /* \"#utility.yul\":1177:1199   */\n      iszero\n        /* \"#utility.yul\":1159:1200   */\n      dup2\n      mstore\n        /* \"#utility.yul\":1147:1149   */\n      0x20\n        /* \"#utility.yul\":1132:1150   */\n      add\n        /* \"@openzeppelin/contracts/token/ERC1155/ERC1155.sol\":1236:1541  function supportsInterface(bytes4 interfaceId) public view virtual override(ERC165, IERC165) returns (bool) {... */\n      tag_26\n        /* \"#utility.yul\":1019:1206   */\n      jump\n        /* \"verified-sources/0x8982F2001c9e34C8a6109FC8a85539b14D23f9a9/sources/contracts/Pilix_Art.sol\":514:605  function setURI(string memory _newuri) public onlyOwner {... */\n    tag_5:\n      tag_34\n      tag_35\n      calldatasize\n      0x04\n      tag_36\n      jump\t// in\n    tag_35:\n      tag_37\n      jump\t// in\n    tag_34:\n      stop\n        /* \"verified-sources/0x8982F2001c9e34C8a6109FC8a85539b14D23f9a9/sources/contracts/Pilix_Art.sol\":278:296  string public name */\n    tag_6:\n      tag_38\n      tag_39\n      jump\t// in\n    tag_38:\n      mload(0x40)\n      tag_26\n      swap2\n      swap1\n      tag_41\n      jump\t// in\n        /* \"@openzeppelin/contracts/token/ERC1155/ERC1155.sol\":1940:2043  function uri(uint256) public view virtual override returns (string memory) {... */\n    tag_7:\n      tag_38\n      tag_43\n      calldatasize\n      0x04\n      tag_44\n      jump\t// in\n    tag_43:\n      tag_45\n      jump\t// in\n        /* \"verified-sources/0x8982F2001c9e34C8a6109FC8a85539b14D23f9a9/sources/contracts/Pilix_Art.sol\":881:992  function mint(uint256 id, uint256 amount) public onlyOwner {... */\n    tag_8:\n      tag_34\n      tag_48\n      calldatasize\n      0x04\n      tag_49\n      jump\t// in\n    tag_48:\n      tag_50\n      jump\t// in\n        /* \"@openzeppelin/contracts/token/ERC1155/ERC1155.sol\":4064:4490  function safeBatchTransferFrom(... */\n    tag_9:\n      tag_34\n      tag_52\n      calldatasize\n      0x04\n      tag_53\n      jump\t// in\n    tag_52:\n      tag_54\n      jump\t// in\n        /* \"@openzeppelin/contracts/token/ERC1155/ERC1155.sol\":2569:3077  function balanceOfBatch(address[] memory accounts, uint256[] memory ids)... */\n    tag_10:\n      tag_55\n      tag_56\n      calldatasize\n      0x04\n      tag_57\n      jump\t// in\n    tag_56:\n      tag_58\n      jump\t// in\n    tag_55:\n      mload(0x40)\n      tag_26\n      swap2\n      swap1\n      tag_60\n      jump\t// in\n        /* \"@openzeppelin/contracts/access/Ownable.sol\":1831:1932  function renounceOwnership() public virtual onlyOwner {... */\n    tag_11:\n      tag_34\n      tag_62\n      jump\t// in\n        /* \"@openzeppelin/contracts/access/Ownable.sol\":1201:1286  function owner() public view virtual returns (address) {... */\n    tag_12:\n        /* \"@openzeppelin/contracts/access/Ownable.sol\":1247:1254  address */\n      0x00\n        /* \"@openzeppelin/contracts/access/Ownable.sol\":1273:1279  _owner */\n      sload\n        /* \"@openzeppelin/contracts/access/Ownable.sol\":1201:1286  function owner() public view virtual returns (address) {... */\n      mload(0x40)\n      sub(shl(0xa0, 0x01), 0x01)\n        /* \"@openzeppelin/contracts/access/Ownable.sol\":1273:1279  _owner */\n      swap1\n      swap2\n      and\n        /* \"#utility.yul\":7774:7825   */\n      dup2\n      mstore\n        /* \"#utility.yul\":7762:7764   */\n      0x20\n        /* \"#utility.yul\":7747:7765   */\n      add\n        /* \"@openzeppelin/contracts/access/Ownable.sol\":1201:1286  function owner() public view virtual returns (address) {... */\n      tag_26\n        /* \"#utility.yul\":7628:7831   */\n      jump\n        /* \"@openzeppelin/contracts/token/ERC1155/ERC1155.sol\":3145:3298  function setApprovalForAll(address operator, bool approved) public virtual override {... */\n    tag_13:\n      tag_34\n      tag_68\n      calldatasize\n      0x04\n      tag_69\n      jump\t// in\n    tag_68:\n      tag_70\n      jump\t// in\n        /* \"verified-sources/0x8982F2001c9e34C8a6109FC8a85539b14D23f9a9/sources/contracts/Pilix_Art.sol\":613:699  function setName(string memory _name) public onlyOwner {... */\n    tag_14:\n      tag_34\n      tag_72\n      calldatasize\n      0x04\n      tag_36\n      jump\t// in\n    tag_72:\n      tag_73\n      jump\t// in\n        /* \"verified-sources/0x8982F2001c9e34C8a6109FC8a85539b14D23f9a9/sources/contracts/Pilix_Art.sol\":707:873  function mintBatch(uint256[] memory ids, uint256[] memory amounts)... */\n    tag_15:\n      tag_34\n      tag_75\n      calldatasize\n      0x04\n      tag_76\n      jump\t// in\n    tag_75:\n      tag_77\n      jump\t// in\n        /* \"@openzeppelin/contracts/token/ERC1155/ERC1155.sol\":3365:3531  function isApprovedForAll(address account, address operator) public view virtual override returns (bool) {... */\n    tag_16:\n      tag_28\n      tag_79\n      calldatasize\n      0x04\n      tag_80\n      jump\t// in\n    tag_79:\n      sub(shl(0xa0, 0x01), 0x01)\n        /* \"@openzeppelin/contracts/token/ERC1155/ERC1155.sol\":3487:3514  _operatorApprovals[account] */\n      swap2\n      dup3\n      and\n        /* \"@openzeppelin/contracts/token/ERC1155/ERC1155.sol\":3464:3468  bool */\n      0x00\n        /* \"@openzeppelin/contracts/token/ERC1155/ERC1155.sol\":3487:3514  _operatorApprovals[account] */\n      swap1\n      dup2\n      mstore\n        /* \"@openzeppelin/contracts/token/ERC1155/ERC1155.sol\":3487:3505  _operatorApprovals */\n      0x02\n        /* \"@openzeppelin/contracts/token/ERC1155/ERC1155.sol\":3487:3514  _operatorApprovals[account] */\n      0x20\n      swap1\n      dup2\n      mstore\n      0x40\n      dup1\n      dup4\n      keccak256\n        /* \"@openzeppelin/contracts/token/ERC1155/ERC1155.sol\":3487:3524  _operatorApprovals[account][operator] */\n      swap4\n      swap1\n      swap5\n      and\n      dup3\n      mstore\n      swap2\n      swap1\n      swap2\n      mstore\n      keccak256\n      sload\n      0xff\n      and\n      swap1\n        /* \"@openzeppelin/contracts/token/ERC1155/ERC1155.sol\":3365:3531  function isApprovedForAll(address account, address operator) public view virtual override returns (bool) {... */\n      jump\n        /* \"@openzeppelin/contracts/token/ERC1155/ERC1155.sol\":3598:3992  function safeTransferFrom(... */\n    tag_17:\n      tag_34\n      tag_84\n      calldatasize\n      0x04\n      tag_85\n      jump\t// in\n    tag_84:\n      tag_86\n      jump\t// in\n        /* \"@openzeppelin/contracts/access/Ownable.sol\":2081:2279  function transferOwnership(address newOwner) public virtual onlyOwner {... */\n    tag_18:\n      tag_34\n      tag_88\n      calldatasize\n      0x04\n      tag_89\n      jump\t// in\n    tag_88:\n      tag_90\n      jump\t// in\n        /* \"@openzeppelin/contracts/token/ERC1155/ERC1155.sol\":2185:2412  function balanceOf(address account, uint256 id) public view virtual override returns (uint256) {... */\n    tag_25:\n        /* \"@openzeppelin/contracts/token/ERC1155/ERC1155.sol\":2271:2278  uint256 */\n      0x00\n      sub(shl(0xa0, 0x01), 0x01)\n        /* \"@openzeppelin/contracts/token/ERC1155/ERC1155.sol\":2298:2319  account != address(0) */\n      dup4\n      and\n        /* \"@openzeppelin/contracts/token/ERC1155/ERC1155.sol\":2290:2366  require(account != address(0), \"ERC1155: address zero is not a valid owner\") */\n      tag_92\n      jumpi\n      mload(0x40)\n      shl(0xe5, 0x461bcd)\n      dup2\n      mstore\n        /* \"#utility.yul\":10057:10059   */\n      0x20\n        /* \"@openzeppelin/contracts/token/ERC1155/ERC1155.sol\":2290:2366  require(account != address(0), \"ERC1155: address zero is not a valid owner\") */\n      0x04\n      dup3\n      add\n        /* \"#utility.yul\":10039:10060   */\n      mstore\n        /* \"#utility.yul\":10096:10098   */\n      0x2a\n        /* \"#utility.yul\":10076:10094   */\n      0x24\n      dup3\n      add\n        /* \"#utility.yul\":10069:10099   */\n      mstore\n        /* \"#utility.yul\":10135:10169   */\n      0x455243313135353a2061646472657373207a65726f206973206e6f7420612076\n        /* \"#utility.yul\":10115:10133   */\n      0x44\n      dup3\n      add\n        /* \"#utility.yul\":10108:10170   */\n      mstore\n      shl(0xb1, 0x30b634b21037bbb732b9)\n        /* \"#utility.yul\":10186:10204   */\n      0x64\n      dup3\n      add\n        /* \"#utility.yul\":10179:10219   */\n      mstore\n        /* \"#utility.yul\":10236:10255   */\n      0x84\n      add\n        /* \"@openzeppelin/contracts/token/ERC1155/ERC1155.sol\":2290:2366  require(account != address(0), \"ERC1155: address zero is not a valid owner\") */\n    tag_93:\n      mload(0x40)\n      dup1\n      swap2\n      sub\n      swap1\n      revert\n    tag_92:\n      pop\n        /* \"@openzeppelin/contracts/token/ERC1155/ERC1155.sol\":2383:2396  _balances[id] */\n      0x00\n      dup2\n      dup2\n      mstore\n        /* \"@openzeppelin/contracts/token/ERC1155/ERC1155.sol\":2383:2392  _balances */\n      0x01\n        /* \"@openzeppelin/contracts/token/ERC1155/ERC1155.sol\":2383:2396  _balances[id] */\n      0x20\n      swap1\n      dup2\n      mstore\n      0x40\n      dup1\n      dup4\n      keccak256\n      sub(shl(0xa0, 0x01), 0x01)\n        /* \"@openzeppelin/contracts/token/ERC1155/ERC1155.sol\":2383:2405  _balances[id][account] */\n      dup7\n      and\n      dup5\n      mstore\n      swap1\n      swap2\n      mstore\n      swap1\n      keccak256\n      sload\n        /* \"@openzeppelin/contracts/token/ERC1155/ERC1155.sol\":2185:2412  function balanceOf(address account, uint256 id) public view virtual override returns (uint256) {... */\n    tag_91:\n      swap3\n      swap2\n      pop\n      pop\n      jump\t// out\n        /* \"@openzeppelin/contracts/token/ERC1155/ERC1155.sol\":1236:1541  function supportsInterface(bytes4 interfaceId) public view virtual override(ERC165, IERC165) returns (bool) {... */\n    tag_31:\n        /* \"@openzeppelin/contracts/token/ERC1155/ERC1155.sol\":1338:1342  bool */\n      0x00\n      not(sub(shl(0xe0, 0x01), 0x01))\n        /* \"@openzeppelin/contracts/token/ERC1155/ERC1155.sol\":1373:1414  interfaceId == type(IERC1155).interfaceId */\n      dup3\n      and\n      shl(0xe1, 0x6cdb3d13)\n      eq\n      dup1\n        /* \"@openzeppelin/contracts/token/ERC1155/ERC1155.sol\":1373:1482  interfaceId == type(IERC1155).interfaceId ||... */\n      tag_96\n      jumpi\n      pop\n      not(sub(shl(0xe0, 0x01), 0x01))\n        /* \"@openzeppelin/contracts/token/ERC1155/ERC1155.sol\":1430:1482  interfaceId == type(IERC1155MetadataURI).interfaceId */\n      dup3\n      and\n      shl(0xe2, 0x03a24d07)\n      eq\n        /* \"@openzeppelin/contracts/token/ERC1155/ERC1155.sol\":1373:1482  interfaceId == type(IERC1155).interfaceId ||... */\n    tag_96:\n        /* \"@openzeppelin/contracts/token/ERC1155/ERC1155.sol\":1373:1534  interfaceId == type(IERC1155).interfaceId ||... */\n      dup1\n      tag_91\n      jumpi\n      pop\n      shl(0xe0, 0x01ffc9a7)\n      not(sub(shl(0xe0, 0x01), 0x01))\n        /* \"@openzeppelin/contracts/utils/introspection/ERC165.sol\":937:977  interfaceId == type(IERC165).interfaceId */\n      dup4\n      and\n      eq\n        /* \"@openzeppelin/contracts/token/ERC1155/ERC1155.sol\":1498:1534  super.supportsInterface(interfaceId) */\n      tag_91\n        /* \"@openzeppelin/contracts/utils/introspection/ERC165.sol\":829:984  function supportsInterface(bytes4 interfaceId) public view virtual override returns (bool) {... */\n      jump\n        /* \"verified-sources/0x8982F2001c9e34C8a6109FC8a85539b14D23f9a9/sources/contracts/Pilix_Art.sol\":514:605  function setURI(string memory _newuri) public onlyOwner {... */\n    tag_37:\n        /* \"@openzeppelin/contracts/access/Ownable.sol\":1094:1107  _checkOwner() */\n      tag_101\n        /* \"@openzeppelin/contracts/access/Ownable.sol\":1094:1105  _checkOwner */\n      tag_102\n        /* \"@openzeppelin/contracts/access/Ownable.sol\":1094:1107  _checkOwner() */\n      jump\t// in\n    tag_101:\n        /* \"verified-sources/0x8982F2001c9e34C8a6109FC8a85539b14D23f9a9/sources/contracts/Pilix_Art.sol\":581:597  _setURI(_newuri) */\n      tag_104\n        /* \"verified-sources/0x8982F2001c9e34C8a6109FC8a85539b14D23f9a9/sources/contracts/Pilix_Art.sol\":589:596  _newuri */\n      dup2\n        /* \"verified-sources/0x8982F2001c9e34C8a6109FC8a85539b14D23f9a9/sources/contracts/Pilix_Art.sol\":581:588  _setURI */\n      tag_105\n        /* \"verified-sources/0x8982F2001c9e34C8a6109FC8a85539b14D23f9a9/sources/contracts/Pilix_Art.sol\":581:597  _setURI(_newuri) */\n      jump\t// in\n    tag_104:\n        /* \"verified-sources/0x8982F2001c9e34C8a6109FC8a85539b14D23f9a9/sources/contracts/Pilix_Art.sol\":514:605  function setURI(string memory _newuri) public onlyOwner {... */\n      pop\n      jump\t// out\n        /* \"verified-sources/0x8982F2001c9e34C8a6109FC8a85539b14D23f9a9/sources/contracts/Pilix_Art.sol\":278:296  string public name */\n    tag_39:\n      0x05\n      dup1\n      sload\n      tag_106\n      swap1\n      tag_107\n      jump\t// in\n    tag_106:\n      dup1\n      0x1f\n      add\n      0x20\n      dup1\n      swap2\n      div\n      mul\n      0x20\n      add\n      mload(0x40)\n      swap1\n      dup2\n      add\n      0x40\n      mstore\n      dup1\n      swap3\n      swap2\n      swap1\n      dup2\n      dup2\n      mstore\n      0x20\n      add\n      dup3\n      dup1\n      sload\n      tag_108\n      swap1\n      tag_107\n      jump\t// in\n    tag_108:\n      dup1\n      iszero\n      tag_109\n      jumpi\n      dup1\n      0x1f\n      lt\n      tag_110\n      jumpi\n      0x0100\n      dup1\n      dup4\n      sload\n      div\n      mul\n      dup4\n      mstore\n      swap2\n      0x20\n      add\n      swap2\n      jump(tag_109)\n    tag_110:\n      dup3\n      add\n      swap2\n      swap1\n      0x00\n      mstore\n      keccak256(0x00, 0x20)\n      swap1\n    tag_111:\n      dup2\n      sload\n      dup2\n      mstore\n      swap1\n      0x01\n      add\n      swap1\n      0x20\n      add\n      dup1\n      dup4\n      gt\n      tag_111\n      jumpi\n      dup3\n      swap1\n      sub\n      0x1f\n      and\n      dup3\n      add\n      swap2\n    tag_109:\n      pop\n      pop\n      pop\n      pop\n      pop\n      dup2\n      jump\t// out\n        /* \"@openzeppelin/contracts/token/ERC1155/ERC1155.sol\":1940:2043  function uri(uint256) public view virtual override returns (string memory) {... */\n    tag_45:\n        /* \"@openzeppelin/contracts/token/ERC1155/ERC1155.sol\":2000:2013  string memory */\n      0x60\n        /* \"@openzeppelin/contracts/token/ERC1155/ERC1155.sol\":2032:2036  _uri */\n      0x03\n        /* \"@openzeppelin/contracts/token/ERC1155/ERC1155.sol\":2025:2036  return _uri */\n      dup1\n      sload\n      tag_113\n      swap1\n      tag_107\n      jump\t// in\n    tag_113:\n      dup1\n      0x1f\n      add\n      0x20\n      dup1\n      swap2\n      div\n      mul\n      0x20\n      add\n      mload(0x40)\n      swap1\n      dup2\n      add\n      0x40\n      mstore\n      dup1\n      swap3\n      swap2\n      swap1\n      dup2\n      dup2\n      mstore\n      0x20\n      add\n      dup3\n      dup1\n      sload\n      tag_114\n      swap1\n      tag_107\n      jump\t// in\n    tag_114:\n      dup1\n      iszero\n      tag_115\n      jumpi\n      dup1\n      0x1f\n      lt\n      tag_116\n      jumpi\n      0x0100\n      dup1\n      dup4\n      sload\n      div\n      mul\n      dup4\n      mstore\n      swap2\n      0x20\n      add\n      swap2\n      jump(tag_115)\n    tag_116:\n      dup3\n      add\n      swap2\n      swap1\n      0x00\n      mstore\n      keccak256(0x00, 0x20)\n      swap1\n    tag_117:\n      dup2\n      sload\n      dup2\n      mstore\n      swap1\n      0x01\n      add\n      swap1\n      0x20\n      add\n      dup1\n      dup4\n      gt\n      tag_117\n      jumpi\n      dup3\n      swap1\n      sub\n      0x1f\n      and\n      dup3\n      add\n      swap2\n    tag_115:\n      pop\n      pop\n      pop\n      pop\n      pop\n      swap1\n      pop\n        /* \"@openzeppelin/contracts/token/ERC1155/ERC1155.sol\":1940:2043  function uri(uint256) public view virtual override returns (string memory) {... */\n      swap2\n      swap1\n      pop\n      jump\t// out\n        /* \"verified-sources/0x8982F2001c9e34C8a6109FC8a85539b14D23f9a9/sources/contracts/Pilix_Art.sol\":881:992  function mint(uint256 id, uint256 amount) public onlyOwner {... */\n    tag_50:\n        /* \"@openzeppelin/contracts/access/Ownable.sol\":1094:1107  _checkOwner() */\n      tag_119\n        /* \"@openzeppelin/contracts/access/Ownable.sol\":1094:1105  _checkOwner */\n      tag_102\n        /* \"@openzeppelin/contracts/access/Ownable.sol\":1094:1107  _checkOwner() */\n      jump\t// in\n    tag_119:\n        /* \"verified-sources/0x8982F2001c9e34C8a6109FC8a85539b14D23f9a9/sources/contracts/Pilix_Art.sol\":951:984  _mint(msg.sender, id, amount, '') */\n      tag_121\n        /* \"verified-sources/0x8982F2001c9e34C8a6109FC8a85539b14D23f9a9/sources/contracts/Pilix_Art.sol\":957:967  msg.sender */\n      caller\n        /* \"verified-sources/0x8982F2001c9e34C8a6109FC8a85539b14D23f9a9/sources/contracts/Pilix_Art.sol\":969:971  id */\n      dup4\n        /* \"verified-sources/0x8982F2001c9e34C8a6109FC8a85539b14D23f9a9/sources/contracts/Pilix_Art.sol\":973:979  amount */\n      dup4\n        /* \"verified-sources/0x8982F2001c9e34C8a6109FC8a85539b14D23f9a9/sources/contracts/Pilix_Art.sol\":951:984  _mint(msg.sender, id, amount, '') */\n      mload(0x40)\n      dup1\n      0x20\n      add\n      0x40\n      mstore\n      dup1\n      0x00\n      dup2\n      mstore\n      pop\n        /* \"verified-sources/0x8982F2001c9e34C8a6109FC8a85539b14D23f9a9/sources/contracts/Pilix_Art.sol\":951:956  _mint */\n      tag_122\n        /* \"verified-sources/0x8982F2001c9e34C8a6109FC8a85539b14D23f9a9/sources/contracts/Pilix_Art.sol\":951:984  _mint(msg.sender, id, amount, '') */\n      jump\t// in\n    tag_121:\n        /* \"verified-sources/0x8982F2001c9e34C8a6109FC8a85539b14D23f9a9/sources/contracts/Pilix_Art.sol\":881:992  function mint(uint256 id, uint256 amount) public onlyOwner {... */\n      pop\n      pop\n      jump\t// out\n        /* \"@openzeppelin/contracts/token/ERC1155/ERC1155.sol\":4064:4490  function safeBatchTransferFrom(... */\n    tag_54:\n      sub(shl(0xa0, 0x01), 0x01)\n        /* \"@openzeppelin/contracts/token/ERC1155/ERC1155.sol\":4289:4309  from == _msgSender() */\n      dup6\n      and\n        /* \"@openzeppelin/contracts/utils/Context.sol\":719:729  msg.sender */\n      caller\n        /* \"@openzeppelin/contracts/token/ERC1155/ERC1155.sol\":4289:4309  from == _msgSender() */\n      eq\n      dup1\n        /* \"@openzeppelin/contracts/token/ERC1155/ERC1155.sol\":4289:4349  from == _msgSender() || isApprovedForAll(from, _msgSender()) */\n      tag_127\n      jumpi\n      pop\n        /* \"@openzeppelin/contracts/token/ERC1155/ERC1155.sol\":4313:4349  isApprovedForAll(from, _msgSender()) */\n      tag_127\n        /* \"@openzeppelin/contracts/token/ERC1155/ERC1155.sol\":4330:4334  from */\n      dup6\n        /* \"@openzeppelin/contracts/utils/Context.sol\":719:729  msg.sender */\n      caller\n        /* \"@openzeppelin/contracts/token/ERC1155/ERC1155.sol\":3365:3531  function isApprovedForAll(address account, address operator) public view virtual override returns (bool) {... */\n      tag_79\n      jump\t// in\n        /* \"@openzeppelin/contracts/token/ERC1155/ERC1155.sol\":4313:4349  isApprovedForAll(from, _msgSender()) */\n    tag_127:\n        /* \"@openzeppelin/contracts/token/ERC1155/ERC1155.sol\":4268:4421  require(... */\n      tag_129\n      jumpi\n      mload(0x40)\n      shl(0xe5, 0x461bcd)\n      dup2\n      mstore\n      0x04\n      add\n      tag_93\n      swap1\n      tag_131\n      jump\t// in\n    tag_129:\n        /* \"@openzeppelin/contracts/token/ERC1155/ERC1155.sol\":4431:4483  _safeBatchTransferFrom(from, to, ids, amounts, data) */\n      tag_132\n        /* \"@openzeppelin/contracts/token/ERC1155/ERC1155.sol\":4454:4458  from */\n      dup6\n        /* \"@openzeppelin/contracts/token/ERC1155/ERC1155.sol\":4460:4462  to */\n      dup6\n        /* \"@openzeppelin/contracts/token/ERC1155/ERC1155.sol\":4464:4467  ids */\n      dup6\n        /* \"@openzeppelin/contracts/token/ERC1155/ERC1155.sol\":4469:4476  amounts */\n      dup6\n        /* \"@openzeppelin/contracts/token/ERC1155/ERC1155.sol\":4478:4482  data */\n      dup6\n        /* \"@openzeppelin/contracts/token/ERC1155/ERC1155.sol\":4431:4453  _safeBatchTransferFrom */\n      tag_133\n        /* \"@openzeppelin/contracts/token/ERC1155/ERC1155.sol\":4431:4483  _safeBatchTransferFrom(from, to, ids, amounts, data) */\n      jump\t// in\n    tag_132:\n        /* \"@openzeppelin/contracts/token/ERC1155/ERC1155.sol\":4064:4490  function safeBatchTransferFrom(... */\n      pop\n      pop\n      pop\n      pop\n      pop\n      jump\t// out\n        /* \"@openzeppelin/contracts/token/ERC1155/ERC1155.sol\":2569:3077  function balanceOfBatch(address[] memory accounts, uint256[] memory ids)... */\n    tag_58:\n        /* \"@openzeppelin/contracts/token/ERC1155/ERC1155.sol\":2720:2736  uint256[] memory */\n      0x60\n        /* \"@openzeppelin/contracts/token/ERC1155/ERC1155.sol\":2779:2782  ids */\n      dup2\n        /* \"@openzeppelin/contracts/token/ERC1155/ERC1155.sol\":2779:2789  ids.length */\n      mload\n        /* \"@openzeppelin/contracts/token/ERC1155/ERC1155.sol\":2760:2768  accounts */\n      dup4\n        /* \"@openzeppelin/contracts/token/ERC1155/ERC1155.sol\":2760:2775  accounts.length */\n      mload\n        /* \"@openzeppelin/contracts/token/ERC1155/ERC1155.sol\":2760:2789  accounts.length == ids.length */\n      eq\n        /* \"@openzeppelin/contracts/token/ERC1155/ERC1155.sol\":2752:2835  require(accounts.length == ids.length, \"ERC1155: accounts and ids length mismatch\") */\n      tag_135\n      jumpi\n      mload(0x40)\n      shl(0xe5, 0x461bcd)\n      dup2\n      mstore\n        /* \"#utility.yul\":11268:11270   */\n      0x20\n        /* \"@openzeppelin/contracts/token/ERC1155/ERC1155.sol\":2752:2835  require(accounts.length == ids.length, \"ERC1155: accounts and ids length mismatch\") */\n      0x04\n      dup3\n      add\n        /* \"#utility.yul\":11250:11271   */\n      mstore\n        /* \"#utility.yul\":11307:11309   */\n      0x29\n        /* \"#utility.yul\":11287:11305   */\n      0x24\n      dup3\n      add\n        /* \"#utility.yul\":11280:11310   */\n      mstore\n        /* \"#utility.yul\":11346:11380   */\n      0x455243313135353a206163636f756e747320616e6420696473206c656e677468\n        /* \"#utility.yul\":11326:11344   */\n      0x44\n      dup3\n      add\n        /* \"#utility.yul\":11319:11381   */\n      mstore\n      shl(0xbb, 0x040dad2e6dac2e8c6d)\n        /* \"#utility.yul\":11397:11415   */\n      0x64\n      dup3\n      add\n        /* \"#utility.yul\":11390:11429   */\n      mstore\n        /* \"#utility.yul\":11446:11465   */\n      0x84\n      add\n        /* \"@openzeppelin/contracts/token/ERC1155/ERC1155.sol\":2752:2835  require(accounts.length == ids.length, \"ERC1155: accounts and ids length mismatch\") */\n      tag_93\n        /* \"#utility.yul\":11066:11471   */\n      jump\n        /* \"@openzeppelin/contracts/token/ERC1155/ERC1155.sol\":2752:2835  require(accounts.length == ids.length, \"ERC1155: accounts and ids length mismatch\") */\n    tag_135:\n        /* \"@openzeppelin/contracts/token/ERC1155/ERC1155.sol\":2846:2876  uint256[] memory batchBalances */\n      0x00\n        /* \"@openzeppelin/contracts/token/ERC1155/ERC1155.sol\":2893:2901  accounts */\n      dup4\n        /* \"@openzeppelin/contracts/token/ERC1155/ERC1155.sol\":2893:2908  accounts.length */\n      mload\n        /* \"@openzeppelin/contracts/token/ERC1155/ERC1155.sol\":2879:2909  new uint256[](accounts.length) */\n      0xffffffffffffffff\n      dup2\n      gt\n      iszero\n      tag_139\n      jumpi\n      tag_139\n      tag_140\n      jump\t// in\n    tag_139:\n      mload(0x40)\n      swap1\n      dup1\n      dup3\n      mstore\n      dup1\n      0x20\n      mul\n      0x20\n      add\n      dup3\n      add\n      0x40\n      mstore\n      dup1\n      iszero\n      tag_141\n      jumpi\n      dup2\n      0x20\n      add\n      0x20\n      dup3\n      mul\n      dup1\n      calldatasize\n      dup4\n      calldatacopy\n      add\n      swap1\n      pop\n    tag_141:\n      pop\n        /* \"@openzeppelin/contracts/token/ERC1155/ERC1155.sol\":2846:2909  uint256[] memory batchBalances = new uint256[](accounts.length) */\n      swap1\n      pop\n        /* \"@openzeppelin/contracts/token/ERC1155/ERC1155.sol\":2925:2934  uint256 i */\n      0x00\n        /* \"@openzeppelin/contracts/token/ERC1155/ERC1155.sol\":2920:3040  for (uint256 i = 0; i < accounts.length; ++i) {... */\n    tag_142:\n        /* \"@openzeppelin/contracts/token/ERC1155/ERC1155.sol\":2944:2952  accounts */\n      dup5\n        /* \"@openzeppelin/contracts/token/ERC1155/ERC1155.sol\":2944:2959  accounts.length */\n      mload\n        /* \"@openzeppelin/contracts/token/ERC1155/ERC1155.sol\":2940:2941  i */\n      dup2\n        /* \"@openzeppelin/contracts/token/ERC1155/ERC1155.sol\":2940:2959  i < accounts.length */\n      lt\n        /* \"@openzeppelin/contracts/token/ERC1155/ERC1155.sol\":2920:3040  for (uint256 i = 0; i < accounts.length; ++i) {... */\n      iszero\n      tag_143\n      jumpi\n        /* \"@openzeppelin/contracts/token/ERC1155/ERC1155.sol\":2999:3029  balanceOf(accounts[i], ids[i]) */\n      tag_145\n        /* \"@openzeppelin/contracts/token/ERC1155/ERC1155.sol\":3009:3017  accounts */\n      dup6\n        /* \"@openzeppelin/contracts/token/ERC1155/ERC1155.sol\":3018:3019  i */\n      dup3\n        /* \"@openzeppelin/contracts/token/ERC1155/ERC1155.sol\":3009:3020  accounts[i] */\n      dup2\n      mload\n      dup2\n      lt\n      tag_147\n      jumpi\n      tag_147\n      tag_148\n      jump\t// in\n    tag_147:\n      0x20\n      mul\n      0x20\n      add\n      add\n      mload\n        /* \"@openzeppelin/contracts/token/ERC1155/ERC1155.sol\":3022:3025  ids */\n      dup6\n        /* \"@openzeppelin/contracts/token/ERC1155/ERC1155.sol\":3026:3027  i */\n      dup4\n        /* \"@openzeppelin/contracts/token/ERC1155/ERC1155.sol\":3022:3028  ids[i] */\n      dup2\n      mload\n      dup2\n      lt\n      tag_150\n      jumpi\n      tag_150\n      tag_148\n      jump\t// in\n    tag_150:\n      0x20\n      mul\n      0x20\n      add\n      add\n      mload\n        /* \"@openzeppelin/contracts/token/ERC1155/ERC1155.sol\":2999:3008  balanceOf */\n      tag_25\n        /* \"@openzeppelin/contracts/token/ERC1155/ERC1155.sol\":2999:3029  balanceOf(accounts[i], ids[i]) */\n      jump\t// in\n    tag_145:\n        /* \"@openzeppelin/contracts/token/ERC1155/ERC1155.sol\":2980:2993  batchBalances */\n      dup3\n        /* \"@openzeppelin/contracts/token/ERC1155/ERC1155.sol\":2994:2995  i */\n      dup3\n        /* \"@openzeppelin/contracts/token/ERC1155/ERC1155.sol\":2980:2996  batchBalances[i] */\n      dup2\n      mload\n      dup2\n      lt\n      tag_152\n      jumpi\n      tag_152\n      tag_148\n      jump\t// in\n    tag_152:\n      0x20\n      swap1\n      dup2\n      mul\n      swap2\n      swap1\n      swap2\n      add\n      add\n        /* \"@openzeppelin/contracts/token/ERC1155/ERC1155.sol\":2980:3029  batchBalances[i] = balanceOf(accounts[i], ids[i]) */\n      mstore\n        /* \"@openzeppelin/contracts/token/ERC1155/ERC1155.sol\":2961:2964  ++i */\n      tag_153\n      dup2\n      tag_154\n      jump\t// in\n    tag_153:\n      swap1\n      pop\n        /* \"@openzeppelin/contracts/token/ERC1155/ERC1155.sol\":2920:3040  for (uint256 i = 0; i < accounts.length; ++i) {... */\n      jump(tag_142)\n    tag_143:\n      pop\n        /* \"@openzeppelin/contracts/token/ERC1155/ERC1155.sol\":3057:3070  batchBalances */\n      swap4\n        /* \"@openzeppelin/contracts/token/ERC1155/ERC1155.sol\":2569:3077  function balanceOfBatch(address[] memory accounts, uint256[] memory ids)... */\n      swap3\n      pop\n      pop\n      pop\n      jump\t// out\n        /* \"@openzeppelin/contracts/access/Ownable.sol\":1831:1932  function renounceOwnership() public virtual onlyOwner {... */\n    tag_62:\n        /* \"@openzeppelin/contracts/access/Ownable.sol\":1094:1107  _checkOwner() */\n      tag_156\n        /* \"@openzeppelin/contracts/access/Ownable.sol\":1094:1105  _checkOwner */\n      tag_102\n        /* \"@openzeppelin/contracts/access/Ownable.sol\":1094:1107  _checkOwner() */\n      jump\t// in\n    tag_156:\n        /* \"@openzeppelin/contracts/access/Ownable.sol\":1895:1925  _transferOwnership(address(0)) */\n      tag_158\n        /* \"@openzeppelin/contracts/access/Ownable.sol\":1922:1923  0 */\n      0x00\n        /* \"@openzeppelin/contracts/access/Ownable.sol\":1895:1913  _transferOwnership */\n      tag_159\n        /* \"@openzeppelin/contracts/access/Ownable.sol\":1895:1925  _transferOwnership(address(0)) */\n      jump\t// in\n    tag_158:\n        /* \"@openzeppelin/contracts/access/Ownable.sol\":1831:1932  function renounceOwnership() public virtual onlyOwner {... */\n      jump\t// out\n        /* \"@openzeppelin/contracts/token/ERC1155/ERC1155.sol\":3145:3298  function setApprovalForAll(address operator, bool approved) public virtual override {... */\n    tag_70:\n        /* \"@openzeppelin/contracts/token/ERC1155/ERC1155.sol\":3239:3291  _setApprovalForAll(_msgSender(), operator, approved) */\n      tag_121\n        /* \"@openzeppelin/contracts/utils/Context.sol\":719:729  msg.sender */\n      caller\n        /* \"@openzeppelin/contracts/token/ERC1155/ERC1155.sol\":3272:3280  operator */\n      dup4\n        /* \"@openzeppelin/contracts/token/ERC1155/ERC1155.sol\":3282:3290  approved */\n      dup4\n        /* \"@openzeppelin/contracts/token/ERC1155/ERC1155.sol\":3239:3257  _setApprovalForAll */\n      tag_164\n        /* \"@openzeppelin/contracts/token/ERC1155/ERC1155.sol\":3239:3291  _setApprovalForAll(_msgSender(), operator, approved) */\n      jump\t// in\n        /* \"verified-sources/0x8982F2001c9e34C8a6109FC8a85539b14D23f9a9/sources/contracts/Pilix_Art.sol\":613:699  function setName(string memory _name) public onlyOwner {... */\n    tag_73:\n        /* \"@openzeppelin/contracts/access/Ownable.sol\":1094:1107  _checkOwner() */\n      tag_166\n        /* \"@openzeppelin/contracts/access/Ownable.sol\":1094:1105  _checkOwner */\n      tag_102\n        /* \"@openzeppelin/contracts/access/Ownable.sol\":1094:1107  _checkOwner() */\n      jump\t// in\n    tag_166:\n        /* \"verified-sources/0x8982F2001c9e34C8a6109FC8a85539b14D23f9a9/sources/contracts/Pilix_Art.sol\":679:683  name */\n      0x05\n        /* \"verified-sources/0x8982F2001c9e34C8a6109FC8a85539b14D23f9a9/sources/contracts/Pilix_Art.sol\":679:691  name = _name */\n      tag_121\n        /* \"verified-sources/0x8982F2001c9e34C8a6109FC8a85539b14D23f9a9/sources/contracts/Pilix_Art.sol\":686:691  _name */\n      dup3\n        /* \"verified-sources/0x8982F2001c9e34C8a6109FC8a85539b14D23f9a9/sources/contracts/Pilix_Art.sol\":679:683  name */\n      dup3\n        /* \"verified-sources/0x8982F2001c9e34C8a6109FC8a85539b14D23f9a9/sources/contracts/Pilix_Art.sol\":679:691  name = _name */\n      tag_169\n      jump\t// in\n        /* \"verified-sources/0x8982F2001c9e34C8a6109FC8a85539b14D23f9a9/sources/contracts/Pilix_Art.sol\":707:873  function mintBatch(uint256[] memory ids, uint256[] memory amounts)... */\n    tag_77:\n        /* \"@openzeppelin/contracts/access/Ownable.sol\":1094:1107  _checkOwner() */\n      tag_171\n        /* \"@openzeppelin/contracts/access/Ownable.sol\":1094:1105  _checkOwner */\n      tag_102\n        /* \"@openzeppelin/contracts/access/Ownable.sol\":1094:1107  _checkOwner() */\n      jump\t// in\n    tag_171:\n        /* \"verified-sources/0x8982F2001c9e34C8a6109FC8a85539b14D23f9a9/sources/contracts/Pilix_Art.sol\":825:865  _mintBatch(msg.sender, ids, amounts, '') */\n      tag_121\n        /* \"verified-sources/0x8982F2001c9e34C8a6109FC8a85539b14D23f9a9/sources/contracts/Pilix_Art.sol\":836:846  msg.sender */\n      caller\n        /* \"verified-sources/0x8982F2001c9e34C8a6109FC8a85539b14D23f9a9/sources/contracts/Pilix_Art.sol\":848:851  ids */\n      dup4\n        /* \"verified-sources/0x8982F2001c9e34C8a6109FC8a85539b14D23f9a9/sources/contracts/Pilix_Art.sol\":853:860  amounts */\n      dup4\n        /* \"verified-sources/0x8982F2001c9e34C8a6109FC8a85539b14D23f9a9/sources/contracts/Pilix_Art.sol\":825:865  _mintBatch(msg.sender, ids, amounts, '') */\n      mload(0x40)\n      dup1\n      0x20\n      add\n      0x40\n      mstore\n      dup1\n      0x00\n      dup2\n      mstore\n      pop\n        /* \"verified-sources/0x8982F2001c9e34C8a6109FC8a85539b14D23f9a9/sources/contracts/Pilix_Art.sol\":825:835  _mintBatch */\n      tag_174\n        /* \"verified-sources/0x8982F2001c9e34C8a6109FC8a85539b14D23f9a9/sources/contracts/Pilix_Art.sol\":825:865  _mintBatch(msg.sender, ids, amounts, '') */\n      jump\t// in\n        /* \"@openzeppelin/contracts/token/ERC1155/ERC1155.sol\":3598:3992  function safeTransferFrom(... */\n    tag_86:\n      sub(shl(0xa0, 0x01), 0x01)\n        /* \"@openzeppelin/contracts/token/ERC1155/ERC1155.sol\":3798:3818  from == _msgSender() */\n      dup6\n      and\n        /* \"@openzeppelin/contracts/utils/Context.sol\":719:729  msg.sender */\n      caller\n        /* \"@openzeppelin/contracts/token/ERC1155/ERC1155.sol\":3798:3818  from == _msgSender() */\n      eq\n      dup1\n        /* \"@openzeppelin/contracts/token/ERC1155/ERC1155.sol\":3798:3858  from == _msgSender() || isApprovedForAll(from, _msgSender()) */\n      tag_179\n      jumpi\n      pop\n        /* \"@openzeppelin/contracts/token/ERC1155/ERC1155.sol\":3822:3858  isApprovedForAll(from, _msgSender()) */\n      tag_179\n        /* \"@openzeppelin/contracts/token/ERC1155/ERC1155.sol\":3839:3843  from */\n      dup6\n        /* \"@openzeppelin/contracts/utils/Context.sol\":719:729  msg.sender */\n      caller\n        /* \"@openzeppelin/contracts/token/ERC1155/ERC1155.sol\":3365:3531  function isApprovedForAll(address account, address operator) public view virtual override returns (bool) {... */\n      tag_79\n      jump\t// in\n        /* \"@openzeppelin/contracts/token/ERC1155/ERC1155.sol\":3822:3858  isApprovedForAll(from, _msgSender()) */\n    tag_179:\n        /* \"@openzeppelin/contracts/token/ERC1155/ERC1155.sol\":3777:3930  require(... */\n      tag_181\n      jumpi\n      mload(0x40)\n      shl(0xe5, 0x461bcd)\n      dup2\n      mstore\n      0x04\n      add\n      tag_93\n      swap1\n      tag_131\n      jump\t// in\n    tag_181:\n        /* \"@openzeppelin/contracts/token/ERC1155/ERC1155.sol\":3940:3985  _safeTransferFrom(from, to, id, amount, data) */\n      tag_132\n        /* \"@openzeppelin/contracts/token/ERC1155/ERC1155.sol\":3958:3962  from */\n      dup6\n        /* \"@openzeppelin/contracts/token/ERC1155/ERC1155.sol\":3964:3966  to */\n      dup6\n        /* \"@openzeppelin/contracts/token/ERC1155/ERC1155.sol\":3968:3970  id */\n      dup6\n        /* \"@openzeppelin/contracts/token/ERC1155/ERC1155.sol\":3972:3978  amount */\n      dup6\n        /* \"@openzeppelin/contracts/token/ERC1155/ERC1155.sol\":3980:3984  data */\n      dup6\n        /* \"@openzeppelin/contracts/token/ERC1155/ERC1155.sol\":3940:3957  _safeTransferFrom */\n      tag_184\n        /* \"@openzeppelin/contracts/token/ERC1155/ERC1155.sol\":3940:3985  _safeTransferFrom(from, to, id, amount, data) */\n      jump\t// in\n        /* \"@openzeppelin/contracts/access/Ownable.sol\":2081:2279  function transferOwnership(address newOwner) public virtual onlyOwner {... */\n    tag_90:\n        /* \"@openzeppelin/contracts/access/Ownable.sol\":1094:1107  _checkOwner() */\n      tag_186\n        /* \"@openzeppelin/contracts/access/Ownable.sol\":1094:1105  _checkOwner */\n      tag_102\n        /* \"@openzeppelin/contracts/access/Ownable.sol\":1094:1107  _checkOwner() */\n      jump\t// in\n    tag_186:\n      sub(shl(0xa0, 0x01), 0x01)\n        /* \"@openzeppelin/contracts/access/Ownable.sol\":2169:2191  newOwner != address(0) */\n      dup2\n      and\n        /* \"@openzeppelin/contracts/access/Ownable.sol\":2161:2234  require(newOwner != address(0), \"Ownable: new owner is the zero address\") */\n      tag_188\n      jumpi\n      mload(0x40)\n      shl(0xe5, 0x461bcd)\n      dup2\n      mstore\n        /* \"#utility.yul\":14286:14288   */\n      0x20\n        /* \"@openzeppelin/contracts/access/Ownable.sol\":2161:2234  require(newOwner != address(0), \"Ownable: new owner is the zero address\") */\n      0x04\n      dup3\n      add\n        /* \"#utility.yul\":14268:14289   */\n      mstore\n        /* \"#utility.yul\":14325:14327   */\n      0x26\n        /* \"#utility.yul\":14305:14323   */\n      0x24\n      dup3\n      add\n        /* \"#utility.yul\":14298:14328   */\n      mstore\n        /* \"#utility.yul\":14364:14398   */\n      0x4f776e61626c653a206e6577206f776e657220697320746865207a65726f2061\n        /* \"#utility.yul\":14344:14362   */\n      0x44\n      dup3\n      add\n        /* \"#utility.yul\":14337:14399   */\n      mstore\n      shl(0xd0, 0x646472657373)\n        /* \"#utility.yul\":14415:14433   */\n      0x64\n      dup3\n      add\n        /* \"#utility.yul\":14408:14444   */\n      mstore\n        /* \"#utility.yul\":14461:14480   */\n      0x84\n      add\n        /* \"@openzeppelin/contracts/access/Ownable.sol\":2161:2234  require(newOwner != address(0), \"Ownable: new owner is the zero address\") */\n      tag_93\n        /* \"#utility.yul\":14084:14486   */\n      jump\n        /* \"@openzeppelin/contracts/access/Ownable.sol\":2161:2234  require(newOwner != address(0), \"Ownable: new owner is the zero address\") */\n    tag_188:\n        /* \"@openzeppelin/contracts/access/Ownable.sol\":2244:2272  _transferOwnership(newOwner) */\n      tag_104\n        /* \"@openzeppelin/contracts/access/Ownable.sol\":2263:2271  newOwner */\n      dup2\n        /* \"@openzeppelin/contracts/access/Ownable.sol\":2244:2262  _transferOwnership */\n      tag_159\n        /* \"@openzeppelin/contracts/access/Ownable.sol\":2244:2272  _transferOwnership(newOwner) */\n      jump\t// in\n        /* \"@openzeppelin/contracts/access/Ownable.sol\":1359:1489  function _checkOwner() internal view virtual {... */\n    tag_102:\n        /* \"@openzeppelin/contracts/access/Ownable.sol\":1247:1254  address */\n      0x00\n        /* \"@openzeppelin/contracts/access/Ownable.sol\":1273:1279  _owner */\n      sload\n      sub(shl(0xa0, 0x01), 0x01)\n      and\n        /* \"@openzeppelin/contracts/utils/Context.sol\":719:729  msg.sender */\n      caller\n        /* \"@openzeppelin/contracts/access/Ownable.sol\":1422:1445  owner() == _msgSender() */\n      eq\n        /* \"@openzeppelin/contracts/access/Ownable.sol\":1414:1482  require(owner() == _msgSender(), \"Ownable: caller is not the owner\") */\n      tag_158\n      jumpi\n      mload(0x40)\n      shl(0xe5, 0x461bcd)\n      dup2\n      mstore\n        /* \"#utility.yul\":14693:14695   */\n      0x20\n        /* \"@openzeppelin/contracts/access/Ownable.sol\":1414:1482  require(owner() == _msgSender(), \"Ownable: caller is not the owner\") */\n      0x04\n      dup3\n      add\n        /* \"#utility.yul\":14675:14696   */\n      dup2\n      swap1\n      mstore\n        /* \"#utility.yul\":14712:14730   */\n      0x24\n      dup3\n      add\n        /* \"#utility.yul\":14705:14735   */\n      mstore\n        /* \"#utility.yul\":14771:14805   */\n      0x4f776e61626c653a2063616c6c6572206973206e6f7420746865206f776e6572\n        /* \"#utility.yul\":14751:14769   */\n      0x44\n      dup3\n      add\n        /* \"#utility.yul\":14744:14806   */\n      mstore\n        /* \"#utility.yul\":14823:14841   */\n      0x64\n      add\n        /* \"@openzeppelin/contracts/access/Ownable.sol\":1414:1482  require(owner() == _msgSender(), \"Ownable: caller is not the owner\") */\n      tag_93\n        /* \"#utility.yul\":14491:14847   */\n      jump\n        /* \"@openzeppelin/contracts/token/ERC1155/ERC1155.sol\":8171:8257  function _setURI(string memory newuri) internal virtual {... */\n    tag_105:\n        /* \"@openzeppelin/contracts/token/ERC1155/ERC1155.sol\":8237:8241  _uri */\n      0x03\n        /* \"@openzeppelin/contracts/token/ERC1155/ERC1155.sol\":8237:8250  _uri = newuri */\n      tag_121\n        /* \"@openzeppelin/contracts/token/ERC1155/ERC1155.sol\":8244:8250  newuri */\n      dup3\n        /* \"@openzeppelin/contracts/token/ERC1155/ERC1155.sol\":8237:8241  _uri */\n      dup3\n        /* \"@openzeppelin/contracts/token/ERC1155/ERC1155.sol\":8237:8250  _uri = newuri */\n      tag_169\n      jump\t// in\n        /* \"@openzeppelin/contracts/token/ERC1155/ERC1155.sol\":8630:9339  function _mint(... */\n    tag_122:\n      sub(shl(0xa0, 0x01), 0x01)\n        /* \"@openzeppelin/contracts/token/ERC1155/ERC1155.sol\":8777:8793  to != address(0) */\n      dup5\n      and\n        /* \"@openzeppelin/contracts/token/ERC1155/ERC1155.sol\":8769:8831  require(to != address(0), \"ERC1155: mint to the zero address\") */\n      tag_202\n      jumpi\n      mload(0x40)\n      shl(0xe5, 0x461bcd)\n      dup2\n      mstore\n      0x04\n      add\n      tag_93\n      swap1\n      tag_204\n      jump\t// in\n    tag_202:\n        /* \"@openzeppelin/contracts/utils/Context.sol\":719:729  msg.sender */\n      caller\n        /* \"@openzeppelin/contracts/token/ERC1155/ERC1155.sol\":8842:8858  address operator */\n      0x00\n        /* \"@openzeppelin/contracts/token/ERC1155/ERC1155.sol\":8906:8927  _asSingletonArray(id) */\n      tag_206\n        /* \"@openzeppelin/contracts/token/ERC1155/ERC1155.sol\":8924:8926  id */\n      dup6\n        /* \"@openzeppelin/contracts/token/ERC1155/ERC1155.sol\":8906:8923  _asSingletonArray */\n      tag_207\n        /* \"@openzeppelin/contracts/token/ERC1155/ERC1155.sol\":8906:8927  _asSingletonArray(id) */\n      jump\t// in\n    tag_206:\n        /* \"@openzeppelin/contracts/token/ERC1155/ERC1155.sol\":8883:8927  uint256[] memory ids = _asSingletonArray(id) */\n      swap1\n      pop\n        /* \"@openzeppelin/contracts/token/ERC1155/ERC1155.sol\":8937:8961  uint256[] memory amounts */\n      0x00\n        /* \"@openzeppelin/contracts/token/ERC1155/ERC1155.sol\":8964:8989  _asSingletonArray(amount) */\n      tag_208\n        /* \"@openzeppelin/contracts/token/ERC1155/ERC1155.sol\":8982:8988  amount */\n      dup6\n        /* \"@openzeppelin/contracts/token/ERC1155/ERC1155.sol\":8964:8981  _asSingletonArray */\n      tag_207\n        /* \"@openzeppelin/contracts/token/ERC1155/ERC1155.sol\":8964:8989  _asSingletonArray(amount) */\n      jump\t// in\n    tag_208:\n        /* \"@openzeppelin/contracts/token/ERC1155/ERC1155.sol\":8937:8989  uint256[] memory amounts = _asSingletonArray(amount) */\n      swap1\n      pop\n        /* \"@openzeppelin/contracts/token/ERC1155/ERC1155.sol\":9077:9090  _balances[id] */\n      0x00\n      dup7\n      dup2\n      mstore\n        /* \"@openzeppelin/contracts/token/ERC1155/ERC1155.sol\":9077:9086  _balances */\n      0x01\n        /* \"@openzeppelin/contracts/token/ERC1155/ERC1155.sol\":9077:9090  _balances[id] */\n      0x20\n      swap1\n      dup2\n      mstore\n      0x40\n      dup1\n      dup4\n      keccak256\n      sub(shl(0xa0, 0x01), 0x01)\n        /* \"@openzeppelin/contracts/token/ERC1155/ERC1155.sol\":9077:9094  _balances[id][to] */\n      dup12\n      and\n      dup5\n      mstore\n      swap1\n      swap2\n      mstore\n      dup2\n      keccak256\n        /* \"@openzeppelin/contracts/token/ERC1155/ERC1155.sol\":9077:9104  _balances[id][to] += amount */\n      dup1\n      sload\n        /* \"@openzeppelin/contracts/token/ERC1155/ERC1155.sol\":9098:9104  amount */\n      dup8\n      swap3\n        /* \"@openzeppelin/contracts/token/ERC1155/ERC1155.sol\":9077:9090  _balances[id] */\n      swap1\n        /* \"@openzeppelin/contracts/token/ERC1155/ERC1155.sol\":9077:9104  _balances[id][to] += amount */\n      tag_211\n      swap1\n        /* \"@openzeppelin/contracts/token/ERC1155/ERC1155.sol\":9098:9104  amount */\n      dup5\n      swap1\n        /* \"@openzeppelin/contracts/token/ERC1155/ERC1155.sol\":9077:9104  _balances[id][to] += amount */\n      tag_212\n      jump\t// in\n    tag_211:\n      swap1\n      swap2\n      sstore\n      pop\n      pop\n        /* \"@openzeppelin/contracts/token/ERC1155/ERC1155.sol\":9119:9171  TransferSingle(operator, address(0), to, id, amount) */\n      0x40\n      dup1\n      mload\n        /* \"#utility.yul\":15558:15583   */\n      dup8\n      dup2\n      mstore\n        /* \"#utility.yul\":15614:15616   */\n      0x20\n        /* \"#utility.yul\":15599:15617   */\n      dup2\n      add\n        /* \"#utility.yul\":15592:15626   */\n      dup8\n      swap1\n      mstore\n      sub(shl(0xa0, 0x01), 0x01)\n        /* \"@openzeppelin/contracts/token/ERC1155/ERC1155.sol\":9119:9171  TransferSingle(operator, address(0), to, id, amount) */\n      dup1\n      dup11\n      and\n      swap3\n        /* \"@openzeppelin/contracts/token/ERC1155/ERC1155.sol\":9152:9153  0 */\n      0x00\n      swap3\n        /* \"@openzeppelin/contracts/token/ERC1155/ERC1155.sol\":9119:9171  TransferSingle(operator, address(0), to, id, amount) */\n      swap2\n      dup8\n      and\n      swap2\n      0xc3d58168c5ae7397731d063d5bbf3d657854427343f4c083240f7aacaa2d0f62\n      swap2\n        /* \"#utility.yul\":15531:15549   */\n      add\n        /* \"@openzeppelin/contracts/token/ERC1155/ERC1155.sol\":9119:9171  TransferSingle(operator, address(0), to, id, amount) */\n      mload(0x40)\n      dup1\n      swap2\n      sub\n      swap1\n      log4\n        /* \"@openzeppelin/contracts/token/ERC1155/ERC1155.sol\":9258:9332  _doSafeTransferAcceptanceCheck(operator, address(0), to, id, amount, data) */\n      tag_217\n        /* \"@openzeppelin/contracts/token/ERC1155/ERC1155.sol\":9289:9297  operator */\n      dup4\n        /* \"@openzeppelin/contracts/token/ERC1155/ERC1155.sol\":9307:9308  0 */\n      0x00\n        /* \"@openzeppelin/contracts/token/ERC1155/ERC1155.sol\":9311:9313  to */\n      dup10\n        /* \"@openzeppelin/contracts/token/ERC1155/ERC1155.sol\":9315:9317  id */\n      dup10\n        /* \"@openzeppelin/contracts/token/ERC1155/ERC1155.sol\":9319:9325  amount */\n      dup10\n        /* \"@openzeppelin/contracts/token/ERC1155/ERC1155.sol\":9327:9331  data */\n      dup10\n        /* \"@openzeppelin/contracts/token/ERC1155/ERC1155.sol\":9258:9288  _doSafeTransferAcceptanceCheck */\n      tag_218\n        /* \"@openzeppelin/contracts/token/ERC1155/ERC1155.sol\":9258:9332  _doSafeTransferAcceptanceCheck(operator, address(0), to, id, amount, data) */\n      jump\t// in\n    tag_217:\n        /* \"@openzeppelin/contracts/token/ERC1155/ERC1155.sol\":8759:9339  {... */\n      pop\n      pop\n      pop\n        /* \"@openzeppelin/contracts/token/ERC1155/ERC1155.sol\":8630:9339  function _mint(... */\n      pop\n      pop\n      pop\n      pop\n      jump\t// out\n        /* \"@openzeppelin/contracts/token/ERC1155/ERC1155.sol\":6233:7348  function _safeBatchTransferFrom(... */\n    tag_133:\n        /* \"@openzeppelin/contracts/token/ERC1155/ERC1155.sol\":6453:6460  amounts */\n      dup2\n        /* \"@openzeppelin/contracts/token/ERC1155/ERC1155.sol\":6453:6467  amounts.length */\n      mload\n        /* \"@openzeppelin/contracts/token/ERC1155/ERC1155.sol\":6439:6442  ids */\n      dup4\n        /* \"@openzeppelin/contracts/token/ERC1155/ERC1155.sol\":6439:6449  ids.length */\n      mload\n        /* \"@openzeppelin/contracts/token/ERC1155/ERC1155.sol\":6439:6467  ids.length == amounts.length */\n      eq\n        /* \"@openzeppelin/contracts/token/ERC1155/ERC1155.sol\":6431:6512  require(ids.length == amounts.length, \"ERC1155: ids and amounts length mismatch\") */\n      tag_221\n      jumpi\n      mload(0x40)\n      shl(0xe5, 0x461bcd)\n      dup2\n      mstore\n      0x04\n      add\n      tag_93\n      swap1\n      tag_223\n      jump\t// in\n    tag_221:\n      sub(shl(0xa0, 0x01), 0x01)\n        /* \"@openzeppelin/contracts/token/ERC1155/ERC1155.sol\":6530:6546  to != address(0) */\n      dup5\n      and\n        /* \"@openzeppelin/contracts/token/ERC1155/ERC1155.sol\":6522:6588  require(to != address(0), \"ERC1155: transfer to the zero address\") */\n      tag_224\n      jumpi\n      mload(0x40)\n      shl(0xe5, 0x461bcd)\n      dup2\n      mstore\n      0x04\n      add\n      tag_93\n      swap1\n      tag_226\n      jump\t// in\n    tag_224:\n        /* \"@openzeppelin/contracts/utils/Context.sol\":719:729  msg.sender */\n      caller\n        /* \"@openzeppelin/contracts/token/ERC1155/ERC1155.sol\":6599:6615  address operator */\n      0x00\n        /* \"@openzeppelin/contracts/token/ERC1155/ERC1155.sol\":6712:7123  for (uint256 i = 0; i < ids.length; ++i) {... */\n    tag_229:\n        /* \"@openzeppelin/contracts/token/ERC1155/ERC1155.sol\":6736:6739  ids */\n      dup5\n        /* \"@openzeppelin/contracts/token/ERC1155/ERC1155.sol\":6736:6746  ids.length */\n      mload\n        /* \"@openzeppelin/contracts/token/ERC1155/ERC1155.sol\":6732:6733  i */\n      dup2\n        /* \"@openzeppelin/contracts/token/ERC1155/ERC1155.sol\":6732:6746  i < ids.length */\n      lt\n        /* \"@openzeppelin/contracts/token/ERC1155/ERC1155.sol\":6712:7123  for (uint256 i = 0; i < ids.length; ++i) {... */\n      iszero\n      tag_230\n      jumpi\n        /* \"@openzeppelin/contracts/token/ERC1155/ERC1155.sol\":6767:6777  uint256 id */\n      0x00\n        /* \"@openzeppelin/contracts/token/ERC1155/ERC1155.sol\":6780:6783  ids */\n      dup6\n        /* \"@openzeppelin/contracts/token/ERC1155/ERC1155.sol\":6784:6785  i */\n      dup3\n        /* \"@openzeppelin/contracts/token/ERC1155/ERC1155.sol\":6780:6786  ids[i] */\n      dup2\n      mload\n      dup2\n      lt\n      tag_233\n      jumpi\n      tag_233\n      tag_148\n      jump\t// in\n    tag_233:\n      0x20\n      mul\n      0x20\n      add\n      add\n      mload\n        /* \"@openzeppelin/contracts/token/ERC1155/ERC1155.sol\":6767:6786  uint256 id = ids[i] */\n      swap1\n      pop\n        /* \"@openzeppelin/contracts/token/ERC1155/ERC1155.sol\":6800:6814  uint256 amount */\n      0x00\n        /* \"@openzeppelin/contracts/token/ERC1155/ERC1155.sol\":6817:6824  amounts */\n      dup6\n        /* \"@openzeppelin/contracts/token/ERC1155/ERC1155.sol\":6825:6826  i */\n      dup4\n        /* \"@openzeppelin/contracts/token/ERC1155/ERC1155.sol\":6817:6827  amounts[i] */\n      dup2\n      mload\n      dup2\n      lt\n      tag_235\n      jumpi\n      tag_235\n      tag_148\n      jump\t// in\n    tag_235:\n      0x20\n      swap1\n      dup2\n      mul\n      swap2\n      swap1\n      swap2\n      add\n      dup2\n      add\n      mload\n        /* \"@openzeppelin/contracts/token/ERC1155/ERC1155.sol\":6842:6861  uint256 fromBalance */\n      0x00\n        /* \"@openzeppelin/contracts/token/ERC1155/ERC1155.sol\":6864:6877  _balances[id] */\n      dup5\n      dup2\n      mstore\n        /* \"@openzeppelin/contracts/token/ERC1155/ERC1155.sol\":6864:6873  _balances */\n      0x01\n        /* \"@openzeppelin/contracts/token/ERC1155/ERC1155.sol\":6864:6877  _balances[id] */\n      dup4\n      mstore\n      0x40\n      dup1\n      dup3\n      keccak256\n      sub(shl(0xa0, 0x01), 0x01)\n        /* \"@openzeppelin/contracts/token/ERC1155/ERC1155.sol\":6864:6883  _balances[id][from] */\n      dup15\n      and\n      dup4\n      mstore\n      swap1\n      swap4\n      mstore\n      swap2\n      swap1\n      swap2\n      keccak256\n      sload\n        /* \"@openzeppelin/contracts/token/ERC1155/ERC1155.sol\":6817:6827  amounts[i] */\n      swap1\n      swap2\n      pop\n        /* \"@openzeppelin/contracts/token/ERC1155/ERC1155.sol\":6905:6926  fromBalance >= amount */\n      dup2\n      dup2\n      lt\n      iszero\n        /* \"@openzeppelin/contracts/token/ERC1155/ERC1155.sol\":6897:6973  require(fromBalance >= amount, \"ERC1155: insufficient balance for transfer\") */\n      tag_236\n      jumpi\n      mload(0x40)\n      shl(0xe5, 0x461bcd)\n      dup2\n      mstore\n      0x04\n      add\n      tag_93\n      swap1\n      tag_238\n      jump\t// in\n    tag_236:\n        /* \"@openzeppelin/contracts/token/ERC1155/ERC1155.sol\":7015:7028  _balances[id] */\n      0x00\n      dup4\n      dup2\n      mstore\n        /* \"@openzeppelin/contracts/token/ERC1155/ERC1155.sol\":7015:7024  _balances */\n      0x01\n        /* \"@openzeppelin/contracts/token/ERC1155/ERC1155.sol\":7015:7028  _balances[id] */\n      0x20\n      swap1\n      dup2\n      mstore\n      0x40\n      dup1\n      dup4\n      keccak256\n      sub(shl(0xa0, 0x01), 0x01)\n        /* \"@openzeppelin/contracts/token/ERC1155/ERC1155.sol\":7015:7034  _balances[id][from] */\n      dup15\n      dup2\n      and\n      dup6\n      mstore\n      swap3\n      mstore\n      dup1\n      dup4\n      keccak256\n        /* \"@openzeppelin/contracts/token/ERC1155/ERC1155.sol\":7037:7057  fromBalance - amount */\n      dup6\n      dup6\n      sub\n        /* \"@openzeppelin/contracts/token/ERC1155/ERC1155.sol\":7015:7057  _balances[id][from] = fromBalance - amount */\n      swap1\n      sstore\n        /* \"@openzeppelin/contracts/token/ERC1155/ERC1155.sol\":7085:7102  _balances[id][to] */\n      swap1\n      dup12\n      and\n      dup3\n      mstore\n      dup2\n      keccak256\n        /* \"@openzeppelin/contracts/token/ERC1155/ERC1155.sol\":7085:7112  _balances[id][to] += amount */\n      dup1\n      sload\n        /* \"@openzeppelin/contracts/token/ERC1155/ERC1155.sol\":7037:7057  fromBalance - amount */\n      dup5\n      swap3\n        /* \"@openzeppelin/contracts/token/ERC1155/ERC1155.sol\":7015:7028  _balances[id] */\n      swap1\n        /* \"@openzeppelin/contracts/token/ERC1155/ERC1155.sol\":7085:7112  _balances[id][to] += amount */\n      tag_239\n      swap1\n        /* \"@openzeppelin/contracts/token/ERC1155/ERC1155.sol\":7037:7057  fromBalance - amount */\n      dup5\n      swap1\n        /* \"@openzeppelin/contracts/token/ERC1155/ERC1155.sol\":7085:7112  _balances[id][to] += amount */\n      tag_212\n      jump\t// in\n    tag_239:\n      swap3\n      pop\n      pop\n      dup2\n      swap1\n      sstore\n      pop\n        /* \"@openzeppelin/contracts/token/ERC1155/ERC1155.sol\":6753:7123  {... */\n      pop\n      pop\n      pop\n        /* \"@openzeppelin/contracts/token/ERC1155/ERC1155.sol\":6748:6751  ++i */\n      dup1\n      tag_240\n      swap1\n      tag_154\n      jump\t// in\n    tag_240:\n      swap1\n      pop\n        /* \"@openzeppelin/contracts/token/ERC1155/ERC1155.sol\":6712:7123  for (uint256 i = 0; i < ids.length; ++i) {... */\n      jump(tag_229)\n    tag_230:\n      pop\n        /* \"@openzeppelin/contracts/token/ERC1155/ERC1155.sol\":7168:7170  to */\n      dup5\n      sub(shl(0xa0, 0x01), 0x01)\n        /* \"@openzeppelin/contracts/token/ERC1155/ERC1155.sol\":7138:7185  TransferBatch(operator, from, to, ids, amounts) */\n      and\n        /* \"@openzeppelin/contracts/token/ERC1155/ERC1155.sol\":7162:7166  from */\n      dup7\n      sub(shl(0xa0, 0x01), 0x01)\n        /* \"@openzeppelin/contracts/token/ERC1155/ERC1155.sol\":7138:7185  TransferBatch(operator, from, to, ids, amounts) */\n      and\n        /* \"@openzeppelin/contracts/token/ERC1155/ERC1155.sol\":7152:7160  operator */\n      dup3\n      sub(shl(0xa0, 0x01), 0x01)\n        /* \"@openzeppelin/contracts/token/ERC1155/ERC1155.sol\":7138:7185  TransferBatch(operator, from, to, ids, amounts) */\n      and\n      0x4a39dc06d4c0dbc64b70af90fd698a233a518aa5d07e595d983b8c0526c8f7fb\n        /* \"@openzeppelin/contracts/token/ERC1155/ERC1155.sol\":7172:7175  ids */\n      dup8\n        /* \"@openzeppelin/contracts/token/ERC1155/ERC1155.sol\":7177:7184  amounts */\n      dup8\n        /* \"@openzeppelin/contracts/token/ERC1155/ERC1155.sol\":7138:7185  TransferBatch(operator, from, to, ids, amounts) */\n      mload(0x40)\n      tag_241\n      swap3\n      swap2\n      swap1\n      tag_242\n      jump\t// in\n    tag_241:\n      mload(0x40)\n      dup1\n      swap2\n      sub\n      swap1\n      log4\n        /* \"@openzeppelin/contracts/token/ERC1155/ERC1155.sol\":7266:7341  _doSafeBatchTransferAcceptanceCheck(operator, from, to, ids, amounts, data) */\n      tag_244\n        /* \"@openzeppelin/contracts/token/ERC1155/ERC1155.sol\":7302:7310  operator */\n      dup2\n        /* \"@openzeppelin/contracts/token/ERC1155/ERC1155.sol\":7312:7316  from */\n      dup8\n        /* \"@openzeppelin/contracts/token/ERC1155/ERC1155.sol\":7318:7320  to */\n      dup8\n        /* \"@openzeppelin/contracts/token/ERC1155/ERC1155.sol\":7322:7325  ids */\n      dup8\n        /* \"@openzeppelin/contracts/token/ERC1155/ERC1155.sol\":7327:7334  amounts */\n      dup8\n        /* \"@openzeppelin/contracts/token/ERC1155/ERC1155.sol\":7336:7340  data */\n      dup8\n        /* \"@openzeppelin/contracts/token/ERC1155/ERC1155.sol\":7266:7301  _doSafeBatchTransferAcceptanceCheck */\n      tag_245\n        /* \"@openzeppelin/contracts/token/ERC1155/ERC1155.sol\":7266:7341  _doSafeBatchTransferAcceptanceCheck(operator, from, to, ids, amounts, data) */\n      jump\t// in\n    tag_244:\n        /* \"@openzeppelin/contracts/token/ERC1155/ERC1155.sol\":6421:7348  {... */\n      pop\n        /* \"@openzeppelin/contracts/token/ERC1155/ERC1155.sol\":6233:7348  function _safeBatchTransferFrom(... */\n      pop\n      pop\n      pop\n      pop\n      pop\n      jump\t// out\n        /* \"@openzeppelin/contracts/access/Ownable.sol\":2433:2620  function _transferOwnership(address newOwner) internal virtual {... */\n    tag_159:\n        /* \"@openzeppelin/contracts/access/Ownable.sol\":2506:2522  address oldOwner */\n      0x00\n        /* \"@openzeppelin/contracts/access/Ownable.sol\":2525:2531  _owner */\n      dup1\n      sload\n      sub(shl(0xa0, 0x01), 0x01)\n        /* \"@openzeppelin/contracts/access/Ownable.sol\":2541:2558  _owner = newOwner */\n      dup4\n      dup2\n      and\n      not(sub(shl(0xa0, 0x01), 0x01))\n      dup4\n      and\n      dup2\n      or\n      dup5\n      sstore\n        /* \"@openzeppelin/contracts/access/Ownable.sol\":2573:2613  OwnershipTransferred(oldOwner, newOwner) */\n      mload(0x40)\n        /* \"@openzeppelin/contracts/access/Ownable.sol\":2525:2531  _owner */\n      swap2\n      swap1\n      swap3\n      and\n      swap3\n      dup4\n      swap2\n        /* \"@openzeppelin/contracts/access/Ownable.sol\":2573:2613  OwnershipTransferred(oldOwner, newOwner) */\n      0x8be0079c531659141344cd1fd0a4f28419497f9722a3daafe3b4186f6b6457e0\n      swap2\n        /* \"@openzeppelin/contracts/access/Ownable.sol\":2506:2522  address oldOwner */\n      swap1\n        /* \"@openzeppelin/contracts/access/Ownable.sol\":2573:2613  OwnershipTransferred(oldOwner, newOwner) */\n      log3\n        /* \"@openzeppelin/contracts/access/Ownable.sol\":2496:2620  {... */\n      pop\n        /* \"@openzeppelin/contracts/access/Ownable.sol\":2433:2620  function _transferOwnership(address newOwner) internal virtual {... */\n      pop\n      jump\t// out\n        /* \"@openzeppelin/contracts/token/ERC1155/ERC1155.sol\":12910:13233  function _setApprovalForAll(... */\n    tag_164:\n        /* \"@openzeppelin/contracts/token/ERC1155/ERC1155.sol\":13060:13068  operator */\n      dup2\n      sub(shl(0xa0, 0x01), 0x01)\n        /* \"@openzeppelin/contracts/token/ERC1155/ERC1155.sol\":13051:13068  owner != operator */\n      and\n        /* \"@openzeppelin/contracts/token/ERC1155/ERC1155.sol\":13051:13056  owner */\n      dup4\n      sub(shl(0xa0, 0x01), 0x01)\n        /* \"@openzeppelin/contracts/token/ERC1155/ERC1155.sol\":13051:13068  owner != operator */\n      and\n      sub\n        /* \"@openzeppelin/contracts/token/ERC1155/ERC1155.sol\":13043:13114  require(owner != operator, \"ERC1155: setting approval status for self\") */\n      tag_248\n      jumpi\n      mload(0x40)\n      shl(0xe5, 0x461bcd)\n      dup2\n      mstore\n        /* \"#utility.yul\":17535:17537   */\n      0x20\n        /* \"@openzeppelin/contracts/token/ERC1155/ERC1155.sol\":13043:13114  require(owner != operator, \"ERC1155: setting approval status for self\") */\n      0x04\n      dup3\n      add\n        /* \"#utility.yul\":17517:17538   */\n      mstore\n        /* \"#utility.yul\":17574:17576   */\n      0x29\n        /* \"#utility.yul\":17554:17572   */\n      0x24\n      dup3\n      add\n        /* \"#utility.yul\":17547:17577   */\n      mstore\n        /* \"#utility.yul\":17613:17647   */\n      0x455243313135353a2073657474696e6720617070726f76616c20737461747573\n        /* \"#utility.yul\":17593:17611   */\n      0x44\n      dup3\n      add\n        /* \"#utility.yul\":17586:17648   */\n      mstore\n      shl(0xb9, 0x103337b91039b2b633)\n        /* \"#utility.yul\":17664:17682   */\n      0x64\n      dup3\n      add\n        /* \"#utility.yul\":17657:17696   */\n      mstore\n        /* \"#utility.yul\":17713:17732   */\n      0x84\n      add\n        /* \"@openzeppelin/contracts/token/ERC1155/ERC1155.sol\":13043:13114  require(owner != operator, \"ERC1155: setting approval status for self\") */\n      tag_93\n        /* \"#utility.yul\":17333:17738   */\n      jump\n        /* \"@openzeppelin/contracts/token/ERC1155/ERC1155.sol\":13043:13114  require(owner != operator, \"ERC1155: setting approval status for self\") */\n    tag_248:\n      sub(shl(0xa0, 0x01), 0x01)\n        /* \"@openzeppelin/contracts/token/ERC1155/ERC1155.sol\":13124:13149  _operatorApprovals[owner] */\n      dup4\n      dup2\n      and\n      0x00\n      dup2\n      dup2\n      mstore\n        /* \"@openzeppelin/contracts/token/ERC1155/ERC1155.sol\":13124:13142  _operatorApprovals */\n      0x02\n        /* \"@openzeppelin/contracts/token/ERC1155/ERC1155.sol\":13124:13149  _operatorApprovals[owner] */\n      0x20\n      swap1\n      dup2\n      mstore\n      0x40\n      dup1\n      dup4\n      keccak256\n        /* \"@openzeppelin/contracts/token/ERC1155/ERC1155.sol\":13124:13159  _operatorApprovals[owner][operator] */\n      swap5\n      dup8\n      and\n      dup1\n      dup5\n      mstore\n      swap5\n      dup3\n      mstore\n      swap2\n      dup3\n      swap1\n      keccak256\n        /* \"@openzeppelin/contracts/token/ERC1155/ERC1155.sol\":13124:13170  _operatorApprovals[owner][operator] = approved */\n      dup1\n      sload\n      not(0xff)\n      and\n      dup7\n      iszero\n      iszero\n      swap1\n      dup2\n      or\n      swap1\n      swap2\n      sstore\n        /* \"@openzeppelin/contracts/token/ERC1155/ERC1155.sol\":13185:13226  ApprovalForAll(owner, operator, approved) */\n      swap2\n      mload\n        /* \"#utility.yul\":1159:1200   */\n      swap2\n      dup3\n      mstore\n        /* \"@openzeppelin/contracts/token/ERC1155/ERC1155.sol\":13185:13226  ApprovalForAll(owner, operator, approved) */\n      0x17307eab39ab6107e8899845ad3d59bd9653f200f220920489ca2b5937696c31\n      swap2\n        /* \"#utility.yul\":1132:1150   */\n      add\n        /* \"@openzeppelin/contracts/token/ERC1155/ERC1155.sol\":13185:13226  ApprovalForAll(owner, operator, approved) */\n      mload(0x40)\n      dup1\n      swap2\n      sub\n      swap1\n      log3\n        /* \"@openzeppelin/contracts/token/ERC1155/ERC1155.sol\":12910:13233  function _setApprovalForAll(... */\n      pop\n      pop\n      pop\n      jump\t// out\n        /* \"@openzeppelin/contracts/token/ERC1155/ERC1155.sol\":9729:10520  function _mintBatch(... */\n    tag_174:\n      sub(shl(0xa0, 0x01), 0x01)\n        /* \"@openzeppelin/contracts/token/ERC1155/ERC1155.sol\":9901:9917  to != address(0) */\n      dup5\n      and\n        /* \"@openzeppelin/contracts/token/ERC1155/ERC1155.sol\":9893:9955  require(to != address(0), \"ERC1155: mint to the zero address\") */\n      tag_253\n      jumpi\n      mload(0x40)\n      shl(0xe5, 0x461bcd)\n      dup2\n      mstore\n      0x04\n      add\n      tag_93\n      swap1\n      tag_204\n      jump\t// in\n    tag_253:\n        /* \"@openzeppelin/contracts/token/ERC1155/ERC1155.sol\":9987:9994  amounts */\n      dup2\n        /* \"@openzeppelin/contracts/token/ERC1155/ERC1155.sol\":9987:10001  amounts.length */\n      mload\n        /* \"@openzeppelin/contracts/token/ERC1155/ERC1155.sol\":9973:9976  ids */\n      dup4\n        /* \"@openzeppelin/contracts/token/ERC1155/ERC1155.sol\":9973:9983  ids.length */\n      mload\n        /* \"@openzeppelin/contracts/token/ERC1155/ERC1155.sol\":9973:10001  ids.length == amounts.length */\n      eq\n        /* \"@openzeppelin/contracts/token/ERC1155/ERC1155.sol\":9965:10046  require(ids.length == amounts.length, \"ERC1155: ids and amounts length mismatch\") */\n      tag_255\n      jumpi\n      mload(0x40)\n      shl(0xe5, 0x461bcd)\n      dup2\n      mstore\n      0x04\n      add\n      tag_93\n      swap1\n      tag_223\n      jump\t// in\n    tag_255:\n        /* \"@openzeppelin/contracts/utils/Context.sol\":719:729  msg.sender */\n      caller\n        /* \"@openzeppelin/contracts/token/ERC1155/ERC1155.sol\":10057:10073  address operator */\n      0x00\n        /* \"@openzeppelin/contracts/token/ERC1155/ERC1155.sol\":10176:10277  for (uint256 i = 0; i < ids.length; i++) {... */\n    tag_259:\n        /* \"@openzeppelin/contracts/token/ERC1155/ERC1155.sol\":10200:10203  ids */\n      dup5\n        /* \"@openzeppelin/contracts/token/ERC1155/ERC1155.sol\":10200:10210  ids.length */\n      mload\n        /* \"@openzeppelin/contracts/token/ERC1155/ERC1155.sol\":10196:10197  i */\n      dup2\n        /* \"@openzeppelin/contracts/token/ERC1155/ERC1155.sol\":10196:10210  i < ids.length */\n      lt\n        /* \"@openzeppelin/contracts/token/ERC1155/ERC1155.sol\":10176:10277  for (uint256 i = 0; i < ids.length; i++) {... */\n      iszero\n      tag_260\n      jumpi\n        /* \"@openzeppelin/contracts/token/ERC1155/ERC1155.sol\":10256:10263  amounts */\n      dup4\n        /* \"@openzeppelin/contracts/token/ERC1155/ERC1155.sol\":10264:10265  i */\n      dup2\n        /* \"@openzeppelin/contracts/token/ERC1155/ERC1155.sol\":10256:10266  amounts[i] */\n      dup2\n      mload\n      dup2\n      lt\n      tag_263\n      jumpi\n      tag_263\n      tag_148\n      jump\t// in\n    tag_263:\n      0x20\n      mul\n      0x20\n      add\n      add\n      mload\n        /* \"@openzeppelin/contracts/token/ERC1155/ERC1155.sol\":10231:10240  _balances */\n      0x01\n        /* \"@openzeppelin/contracts/token/ERC1155/ERC1155.sol\":10231:10248  _balances[ids[i]] */\n      0x00\n        /* \"@openzeppelin/contracts/token/ERC1155/ERC1155.sol\":10241:10244  ids */\n      dup8\n        /* \"@openzeppelin/contracts/token/ERC1155/ERC1155.sol\":10245:10246  i */\n      dup5\n        /* \"@openzeppelin/contracts/token/ERC1155/ERC1155.sol\":10241:10247  ids[i] */\n      dup2\n      mload\n      dup2\n      lt\n      tag_265\n      jumpi\n      tag_265\n      tag_148\n      jump\t// in\n    tag_265:\n      0x20\n      mul\n      0x20\n      add\n      add\n      mload\n        /* \"@openzeppelin/contracts/token/ERC1155/ERC1155.sol\":10231:10248  _balances[ids[i]] */\n      dup2\n      mstore\n      0x20\n      add\n      swap1\n      dup2\n      mstore\n      0x20\n      add\n      0x00\n      keccak256\n        /* \"@openzeppelin/contracts/token/ERC1155/ERC1155.sol\":10231:10252  _balances[ids[i]][to] */\n      0x00\n        /* \"@openzeppelin/contracts/token/ERC1155/ERC1155.sol\":10249:10251  to */\n      dup9\n      sub(shl(0xa0, 0x01), 0x01)\n        /* \"@openzeppelin/contracts/token/ERC1155/ERC1155.sol\":10231:10252  _balances[ids[i]][to] */\n      and\n      sub(shl(0xa0, 0x01), 0x01)\n      and\n      dup2\n      mstore\n      0x20\n      add\n      swap1\n      dup2\n      mstore\n      0x20\n      add\n      0x00\n      keccak256\n      0x00\n        /* \"@openzeppelin/contracts/token/ERC1155/ERC1155.sol\":10231:10266  _balances[ids[i]][to] += amounts[i] */\n      dup3\n      dup3\n      sload\n      tag_266\n      swap2\n      swap1\n      tag_212\n      jump\t// in\n    tag_266:\n      swap1\n      swap2\n      sstore\n      pop\n        /* \"@openzeppelin/contracts/token/ERC1155/ERC1155.sol\":10212:10215  i++ */\n      dup2\n      swap1\n      pop\n      tag_267\n      dup2\n      tag_154\n      jump\t// in\n    tag_267:\n      swap2\n      pop\n      pop\n        /* \"@openzeppelin/contracts/token/ERC1155/ERC1155.sol\":10176:10277  for (uint256 i = 0; i < ids.length; i++) {... */\n      jump(tag_259)\n    tag_260:\n      pop\n        /* \"@openzeppelin/contracts/token/ERC1155/ERC1155.sol\":10328:10330  to */\n      dup5\n      sub(shl(0xa0, 0x01), 0x01)\n        /* \"@openzeppelin/contracts/token/ERC1155/ERC1155.sol\":10292:10345  TransferBatch(operator, address(0), to, ids, amounts) */\n      and\n        /* \"@openzeppelin/contracts/token/ERC1155/ERC1155.sol\":10324:10325  0 */\n      0x00\n      sub(shl(0xa0, 0x01), 0x01)\n        /* \"@openzeppelin/contracts/token/ERC1155/ERC1155.sol\":10292:10345  TransferBatch(operator, address(0), to, ids, amounts) */\n      and\n        /* \"@openzeppelin/contracts/token/ERC1155/ERC1155.sol\":10306:10314  operator */\n      dup3\n      sub(shl(0xa0, 0x01), 0x01)\n        /* \"@openzeppelin/contracts/token/ERC1155/ERC1155.sol\":10292:10345  TransferBatch(operator, address(0), to, ids, amounts) */\n      and\n      0x4a39dc06d4c0dbc64b70af90fd698a233a518aa5d07e595d983b8c0526c8f7fb\n        /* \"@openzeppelin/contracts/token/ERC1155/ERC1155.sol\":10332:10335  ids */\n      dup8\n        /* \"@openzeppelin/contracts/token/ERC1155/ERC1155.sol\":10337:10344  amounts */\n      dup8\n        /* \"@openzeppelin/contracts/token/ERC1155/ERC1155.sol\":10292:10345  TransferBatch(operator, address(0), to, ids, amounts) */\n      mload(0x40)\n      tag_268\n      swap3\n      swap2\n      swap1\n      tag_242\n      jump\t// in\n    tag_268:\n      mload(0x40)\n      dup1\n      swap2\n      sub\n      swap1\n      log4\n        /* \"@openzeppelin/contracts/token/ERC1155/ERC1155.sol\":10432:10513  _doSafeBatchTransferAcceptanceCheck(operator, address(0), to, ids, amounts, data) */\n      tag_132\n        /* \"@openzeppelin/contracts/token/ERC1155/ERC1155.sol\":10468:10476  operator */\n      dup2\n        /* \"@openzeppelin/contracts/token/ERC1155/ERC1155.sol\":10486:10487  0 */\n      0x00\n        /* \"@openzeppelin/contracts/token/ERC1155/ERC1155.sol\":10490:10492  to */\n      dup8\n        /* \"@openzeppelin/contracts/token/ERC1155/ERC1155.sol\":10494:10497  ids */\n      dup8\n        /* \"@openzeppelin/contracts/token/ERC1155/ERC1155.sol\":10499:10506  amounts */\n      dup8\n        /* \"@openzeppelin/contracts/token/ERC1155/ERC1155.sol\":10508:10512  data */\n      dup8\n        /* \"@openzeppelin/contracts/token/ERC1155/ERC1155.sol\":10432:10467  _doSafeBatchTransferAcceptanceCheck */\n      tag_245\n        /* \"@openzeppelin/contracts/token/ERC1155/ERC1155.sol\":10432:10513  _doSafeBatchTransferAcceptanceCheck(operator, address(0), to, ids, amounts, data) */\n      jump\t// in\n        /* \"@openzeppelin/contracts/token/ERC1155/ERC1155.sol\":4940:5887  function _safeTransferFrom(... */\n    tag_184:\n      sub(shl(0xa0, 0x01), 0x01)\n        /* \"@openzeppelin/contracts/token/ERC1155/ERC1155.sol\":5121:5137  to != address(0) */\n      dup5\n      and\n        /* \"@openzeppelin/contracts/token/ERC1155/ERC1155.sol\":5113:5179  require(to != address(0), \"ERC1155: transfer to the zero address\") */\n      tag_272\n      jumpi\n      mload(0x40)\n      shl(0xe5, 0x461bcd)\n      dup2\n      mstore\n      0x04\n      add\n      tag_93\n      swap1\n      tag_226\n      jump\t// in\n    tag_272:\n        /* \"@openzeppelin/contracts/utils/Context.sol\":719:729  msg.sender */\n      caller\n        /* \"@openzeppelin/contracts/token/ERC1155/ERC1155.sol\":5190:5206  address operator */\n      0x00\n        /* \"@openzeppelin/contracts/token/ERC1155/ERC1155.sol\":5254:5275  _asSingletonArray(id) */\n      tag_275\n        /* \"@openzeppelin/contracts/token/ERC1155/ERC1155.sol\":5272:5274  id */\n      dup6\n        /* \"@openzeppelin/contracts/token/ERC1155/ERC1155.sol\":5254:5271  _asSingletonArray */\n      tag_207\n        /* \"@openzeppelin/contracts/token/ERC1155/ERC1155.sol\":5254:5275  _asSingletonArray(id) */\n      jump\t// in\n    tag_275:\n        /* \"@openzeppelin/contracts/token/ERC1155/ERC1155.sol\":5231:5275  uint256[] memory ids = _asSingletonArray(id) */\n      swap1\n      pop\n        /* \"@openzeppelin/contracts/token/ERC1155/ERC1155.sol\":5285:5309  uint256[] memory amounts */\n      0x00\n        /* \"@openzeppelin/contracts/token/ERC1155/ERC1155.sol\":5312:5337  _asSingletonArray(amount) */\n      tag_276\n        /* \"@openzeppelin/contracts/token/ERC1155/ERC1155.sol\":5330:5336  amount */\n      dup6\n        /* \"@openzeppelin/contracts/token/ERC1155/ERC1155.sol\":5312:5329  _asSingletonArray */\n      tag_207\n        /* \"@openzeppelin/contracts/token/ERC1155/ERC1155.sol\":5312:5337  _asSingletonArray(amount) */\n      jump\t// in\n    tag_276:\n        /* \"@openzeppelin/contracts/token/ERC1155/ERC1155.sol\":5285:5337  uint256[] memory amounts = _asSingletonArray(amount) */\n      swap1\n      pop\n        /* \"@openzeppelin/contracts/token/ERC1155/ERC1155.sol\":5419:5438  uint256 fromBalance */\n      0x00\n        /* \"@openzeppelin/contracts/token/ERC1155/ERC1155.sol\":5441:5454  _balances[id] */\n      dup7\n      dup2\n      mstore\n        /* \"@openzeppelin/contracts/token/ERC1155/ERC1155.sol\":5441:5450  _balances */\n      0x01\n        /* \"@openzeppelin/contracts/token/ERC1155/ERC1155.sol\":5441:5454  _balances[id] */\n      0x20\n      swap1\n      dup2\n      mstore\n      0x40\n      dup1\n      dup4\n      keccak256\n      sub(shl(0xa0, 0x01), 0x01)\n        /* \"@openzeppelin/contracts/token/ERC1155/ERC1155.sol\":5441:5460  _balances[id][from] */\n      dup13\n      and\n      dup5\n      mstore\n      swap1\n      swap2\n      mstore\n      swap1\n      keccak256\n      sload\n        /* \"@openzeppelin/contracts/token/ERC1155/ERC1155.sol\":5478:5499  fromBalance >= amount */\n      dup6\n      dup2\n      lt\n      iszero\n        /* \"@openzeppelin/contracts/token/ERC1155/ERC1155.sol\":5470:5546  require(fromBalance >= amount, \"ERC1155: insufficient balance for transfer\") */\n      tag_278\n      jumpi\n      mload(0x40)\n      shl(0xe5, 0x461bcd)\n      dup2\n      mstore\n      0x04\n      add\n      tag_93\n      swap1\n      tag_238\n      jump\t// in\n    tag_278:\n        /* \"@openzeppelin/contracts/token/ERC1155/ERC1155.sol\":5580:5593  _balances[id] */\n      0x00\n      dup8\n      dup2\n      mstore\n        /* \"@openzeppelin/contracts/token/ERC1155/ERC1155.sol\":5580:5589  _balances */\n      0x01\n        /* \"@openzeppelin/contracts/token/ERC1155/ERC1155.sol\":5580:5593  _balances[id] */\n      0x20\n      swap1\n      dup2\n      mstore\n      0x40\n      dup1\n      dup4\n      keccak256\n      sub(shl(0xa0, 0x01), 0x01)\n        /* \"@openzeppelin/contracts/token/ERC1155/ERC1155.sol\":5580:5599  _balances[id][from] */\n      dup14\n      dup2\n      and\n      dup6\n      mstore\n      swap3\n      mstore\n      dup1\n      dup4\n      keccak256\n        /* \"@openzeppelin/contracts/token/ERC1155/ERC1155.sol\":5602:5622  fromBalance - amount */\n      dup10\n      dup6\n      sub\n        /* \"@openzeppelin/contracts/token/ERC1155/ERC1155.sol\":5580:5622  _balances[id][from] = fromBalance - amount */\n      swap1\n      sstore\n        /* \"@openzeppelin/contracts/token/ERC1155/ERC1155.sol\":5642:5659  _balances[id][to] */\n      swap1\n      dup11\n      and\n      dup3\n      mstore\n      dup2\n      keccak256\n        /* \"@openzeppelin/contracts/token/ERC1155/ERC1155.sol\":5642:5669  _balances[id][to] += amount */\n      dup1\n      sload\n        /* \"@openzeppelin/contracts/token/ERC1155/ERC1155.sol\":5602:5622  fromBalance - amount */\n      dup9\n      swap3\n        /* \"@openzeppelin/contracts/token/ERC1155/ERC1155.sol\":5580:5593  _balances[id] */\n      swap1\n        /* \"@openzeppelin/contracts/token/ERC1155/ERC1155.sol\":5642:5669  _balances[id][to] += amount */\n      tag_280\n      swap1\n        /* \"@openzeppelin/contracts/token/ERC1155/ERC1155.sol\":5602:5622  fromBalance - amount */\n      dup5\n      swap1\n        /* \"@openzeppelin/contracts/token/ERC1155/ERC1155.sol\":5642:5669  _balances[id][to] += amount */\n      tag_212\n      jump\t// in\n    tag_280:\n      swap1\n      swap2\n      sstore\n      pop\n      pop\n        /* \"@openzeppelin/contracts/token/ERC1155/ERC1155.sol\":5685:5731  TransferSingle(operator, from, to, id, amount) */\n      0x40\n      dup1\n      mload\n        /* \"#utility.yul\":15558:15583   */\n      dup9\n      dup2\n      mstore\n        /* \"#utility.yul\":15614:15616   */\n      0x20\n        /* \"#utility.yul\":15599:15617   */\n      dup2\n      add\n        /* \"#utility.yul\":15592:15626   */\n      dup9\n      swap1\n      mstore\n      sub(shl(0xa0, 0x01), 0x01)\n        /* \"@openzeppelin/contracts/token/ERC1155/ERC1155.sol\":5685:5731  TransferSingle(operator, from, to, id, amount) */\n      dup1\n      dup12\n      and\n      swap3\n      dup13\n      dup3\n      and\n      swap3\n      swap2\n      dup9\n      and\n      swap2\n      0xc3d58168c5ae7397731d063d5bbf3d657854427343f4c083240f7aacaa2d0f62\n      swap2\n        /* \"#utility.yul\":15531:15549   */\n      add\n        /* \"@openzeppelin/contracts/token/ERC1155/ERC1155.sol\":5685:5731  TransferSingle(operator, from, to, id, amount) */\n      mload(0x40)\n      dup1\n      swap2\n      sub\n      swap1\n      log4\n        /* \"@openzeppelin/contracts/token/ERC1155/ERC1155.sol\":5812:5880  _doSafeTransferAcceptanceCheck(operator, from, to, id, amount, data) */\n      tag_283\n        /* \"@openzeppelin/contracts/token/ERC1155/ERC1155.sol\":5843:5851  operator */\n      dup5\n        /* \"@openzeppelin/contracts/token/ERC1155/ERC1155.sol\":5853:5857  from */\n      dup11\n        /* \"@openzeppelin/contracts/token/ERC1155/ERC1155.sol\":5859:5861  to */\n      dup11\n        /* \"@openzeppelin/contracts/token/ERC1155/ERC1155.sol\":5863:5865  id */\n      dup11\n        /* \"@openzeppelin/contracts/token/ERC1155/ERC1155.sol\":5867:5873  amount */\n      dup11\n        /* \"@openzeppelin/contracts/token/ERC1155/ERC1155.sol\":5875:5879  data */\n      dup11\n        /* \"@openzeppelin/contracts/token/ERC1155/ERC1155.sol\":5812:5842  _doSafeTransferAcceptanceCheck */\n      tag_218\n        /* \"@openzeppelin/contracts/token/ERC1155/ERC1155.sol\":5812:5880  _doSafeTransferAcceptanceCheck(operator, from, to, id, amount, data) */\n      jump\t// in\n    tag_283:\n        /* \"@openzeppelin/contracts/token/ERC1155/ERC1155.sol\":5103:5887  {... */\n      pop\n      pop\n      pop\n      pop\n        /* \"@openzeppelin/contracts/token/ERC1155/ERC1155.sol\":4940:5887  function _safeTransferFrom(... */\n      pop\n      pop\n      pop\n      pop\n      pop\n      jump\t// out\n        /* \"@openzeppelin/contracts/token/ERC1155/ERC1155.sol\":17064:17257  function _asSingletonArray(uint256 element) private pure returns (uint256[] memory) {... */\n    tag_207:\n        /* \"@openzeppelin/contracts/token/ERC1155/ERC1155.sol\":17183:17199  new uint256[](1) */\n      0x40\n      dup1\n      mload\n        /* \"@openzeppelin/contracts/token/ERC1155/ERC1155.sol\":17197:17198  1 */\n      0x01\n        /* \"@openzeppelin/contracts/token/ERC1155/ERC1155.sol\":17183:17199  new uint256[](1) */\n      dup1\n      dup3\n      mstore\n      dup2\n      dup4\n      add\n      swap1\n      swap3\n      mstore\n        /* \"@openzeppelin/contracts/token/ERC1155/ERC1155.sol\":17130:17146  uint256[] memory */\n      0x60\n      swap2\n        /* \"@openzeppelin/contracts/token/ERC1155/ERC1155.sol\":17158:17180  uint256[] memory array */\n      0x00\n      swap2\n        /* \"@openzeppelin/contracts/token/ERC1155/ERC1155.sol\":17183:17199  new uint256[](1) */\n      swap1\n      0x20\n      dup1\n      dup4\n      add\n      swap1\n      dup1\n      calldatasize\n      dup4\n      calldatacopy\n      add\n      swap1\n      pop\n      pop\n        /* \"@openzeppelin/contracts/token/ERC1155/ERC1155.sol\":17158:17199  uint256[] memory array = new uint256[](1) */\n      swap1\n      pop\n        /* \"@openzeppelin/contracts/token/ERC1155/ERC1155.sol\":17220:17227  element */\n      dup3\n        /* \"@openzeppelin/contracts/token/ERC1155/ERC1155.sol\":17209:17214  array */\n      dup2\n        /* \"@openzeppelin/contracts/token/ERC1155/ERC1155.sol\":17215:17216  0 */\n      0x00\n        /* \"@openzeppelin/contracts/token/ERC1155/ERC1155.sol\":17209:17217  array[0] */\n      dup2\n      mload\n      dup2\n      lt\n      tag_289\n      jumpi\n      tag_289\n      tag_148\n      jump\t// in\n    tag_289:\n      0x20\n      swap1\n      dup2\n      mul\n      swap2\n      swap1\n      swap2\n      add\n      add\n        /* \"@openzeppelin/contracts/token/ERC1155/ERC1155.sol\":17209:17227  array[0] = element */\n      mstore\n        /* \"@openzeppelin/contracts/token/ERC1155/ERC1155.sol\":17245:17250  array */\n      swap3\n        /* \"@openzeppelin/contracts/token/ERC1155/ERC1155.sol\":17064:17257  function _asSingletonArray(uint256 element) private pure returns (uint256[] memory) {... */\n      swap2\n      pop\n      pop\n      jump\t// out\n        /* \"@openzeppelin/contracts/token/ERC1155/ERC1155.sol\":15535:16260  function _doSafeTransferAcceptanceCheck(... */\n    tag_218:\n      sub(shl(0xa0, 0x01), 0x01)\n        /* \"@openzeppelin/contracts/token/ERC1155/ERC1155.sol\":15742:15755  to.isContract */\n      dup5\n      and\n        /* \"@openzeppelin/contracts/utils/Address.sol\":1465:1484  account.code.length */\n      extcodesize\n        /* \"@openzeppelin/contracts/utils/Address.sol\":1465:1488  account.code.length > 0 */\n      iszero\n        /* \"@openzeppelin/contracts/token/ERC1155/ERC1155.sol\":15738:16254  if (to.isContract()) {... */\n      tag_244\n      jumpi\n        /* \"@openzeppelin/contracts/token/ERC1155/ERC1155.sol\":15777:15849  IERC1155Receiver(to).onERC1155Received(operator, from, id, amount, data) */\n      mload(0x40)\n      shl(0xe0, 0xf23a6e61)\n      dup2\n      mstore\n      sub(shl(0xa0, 0x01), 0x01)\n        /* \"@openzeppelin/contracts/token/ERC1155/ERC1155.sol\":15777:15815  IERC1155Receiver(to).onERC1155Received */\n      dup6\n      and\n      swap1\n      0xf23a6e61\n      swap1\n        /* \"@openzeppelin/contracts/token/ERC1155/ERC1155.sol\":15777:15849  IERC1155Receiver(to).onERC1155Received(operator, from, id, amount, data) */\n      tag_296\n      swap1\n        /* \"@openzeppelin/contracts/token/ERC1155/ERC1155.sol\":15816:15824  operator */\n      dup10\n      swap1\n        /* \"@openzeppelin/contracts/token/ERC1155/ERC1155.sol\":15826:15830  from */\n      dup10\n      swap1\n        /* \"@openzeppelin/contracts/token/ERC1155/ERC1155.sol\":15832:15834  id */\n      dup9\n      swap1\n        /* \"@openzeppelin/contracts/token/ERC1155/ERC1155.sol\":15836:15842  amount */\n      dup9\n      swap1\n        /* \"@openzeppelin/contracts/token/ERC1155/ERC1155.sol\":15844:15848  data */\n      dup9\n      swap1\n        /* \"@openzeppelin/contracts/token/ERC1155/ERC1155.sol\":15777:15849  IERC1155Receiver(to).onERC1155Received(operator, from, id, amount, data) */\n      0x04\n      add\n      tag_297\n      jump\t// in\n    tag_296:\n      0x20\n      mload(0x40)\n      dup1\n      dup4\n      sub\n      dup2\n      0x00\n      dup8\n      gas\n      call\n      swap3\n      pop\n      pop\n      pop\n      dup1\n      iszero\n      tag_298\n      jumpi\n      pop\n      0x40\n      dup1\n      mload\n      0x1f\n      returndatasize\n      swap1\n      dup2\n      add\n      not(0x1f)\n      and\n      dup3\n      add\n      swap1\n      swap3\n      mstore\n      tag_299\n      swap2\n      dup2\n      add\n      swap1\n      tag_300\n      jump\t// in\n    tag_299:\n      0x01\n    tag_298:\n        /* \"@openzeppelin/contracts/token/ERC1155/ERC1155.sol\":15773:16244  try IERC1155Receiver(to).onERC1155Received(operator, from, id, amount, data) returns (bytes4 response) {... */\n      tag_301\n      jumpi\n      tag_305\n      tag_306\n      jump\t// in\n    tag_305:\n      dup1\n      0x08c379a0\n      sub\n      tag_304\n      jumpi\n      pop\n      tag_307\n      tag_308\n      jump\t// in\n    tag_307:\n      dup1\n      tag_309\n      jumpi\n      pop\n      jump(tag_303)\n    tag_309:\n        /* \"@openzeppelin/contracts/token/ERC1155/ERC1155.sol\":16120:16126  reason */\n      dup1\n        /* \"@openzeppelin/contracts/token/ERC1155/ERC1155.sol\":16113:16127  revert(reason) */\n      mload(0x40)\n      shl(0xe5, 0x461bcd)\n      dup2\n      mstore\n      0x04\n      add\n      tag_93\n      swap2\n      swap1\n      tag_41\n      jump\t// in\n        /* \"@openzeppelin/contracts/token/ERC1155/ERC1155.sol\":15773:16244  try IERC1155Receiver(to).onERC1155Received(operator, from, id, amount, data) returns (bytes4 response) {... */\n    tag_304:\n      pop\n    tag_303:\n        /* \"@openzeppelin/contracts/token/ERC1155/ERC1155.sol\":16167:16229  revert(\"ERC1155: transfer to non-ERC1155Receiver implementer\") */\n      mload(0x40)\n      shl(0xe5, 0x461bcd)\n      dup2\n      mstore\n        /* \"#utility.yul\":19625:19627   */\n      0x20\n        /* \"@openzeppelin/contracts/token/ERC1155/ERC1155.sol\":16167:16229  revert(\"ERC1155: transfer to non-ERC1155Receiver implementer\") */\n      0x04\n      dup3\n      add\n        /* \"#utility.yul\":19607:19628   */\n      mstore\n        /* \"#utility.yul\":19664:19666   */\n      0x34\n        /* \"#utility.yul\":19644:19662   */\n      0x24\n      dup3\n      add\n        /* \"#utility.yul\":19637:19667   */\n      mstore\n        /* \"#utility.yul\":19703:19737   */\n      0x455243313135353a207472616e7366657220746f206e6f6e2d45524331313535\n        /* \"#utility.yul\":19683:19701   */\n      0x44\n      dup3\n      add\n        /* \"#utility.yul\":19676:19738   */\n      mstore\n      shl(0x61, 0x2932b1b2b4bb32b91034b6b83632b6b2b73a32b9)\n        /* \"#utility.yul\":19754:19772   */\n      0x64\n      dup3\n      add\n        /* \"#utility.yul\":19747:19797   */\n      mstore\n        /* \"#utility.yul\":19814:19833   */\n      0x84\n      add\n        /* \"@openzeppelin/contracts/token/ERC1155/ERC1155.sol\":16167:16229  revert(\"ERC1155: transfer to non-ERC1155Receiver implementer\") */\n      tag_93\n        /* \"#utility.yul\":19423:19839   */\n      jump\n        /* \"@openzeppelin/contracts/token/ERC1155/ERC1155.sol\":15773:16244  try IERC1155Receiver(to).onERC1155Received(operator, from, id, amount, data) returns (bytes4 response) {... */\n    tag_301:\n      not(sub(shl(0xe0, 0x01), 0x01))\n        /* \"@openzeppelin/contracts/token/ERC1155/ERC1155.sol\":15898:15953  response != IERC1155Receiver.onERC1155Received.selector */\n      dup2\n      and\n      shl(0xe0, 0xf23a6e61)\n      eq\n        /* \"@openzeppelin/contracts/token/ERC1155/ERC1155.sol\":15894:16046  if (response != IERC1155Receiver.onERC1155Received.selector) {... */\n      tag_217\n      jumpi\n        /* \"@openzeppelin/contracts/token/ERC1155/ERC1155.sol\":15977:16027  revert(\"ERC1155: ERC1155Receiver rejected tokens\") */\n      mload(0x40)\n      shl(0xe5, 0x461bcd)\n      dup2\n      mstore\n      0x04\n      add\n      tag_93\n      swap1\n      tag_316\n      jump\t// in\n        /* \"@openzeppelin/contracts/token/ERC1155/ERC1155.sol\":16266:17058  function _doSafeBatchTransferAcceptanceCheck(... */\n    tag_245:\n      sub(shl(0xa0, 0x01), 0x01)\n        /* \"@openzeppelin/contracts/token/ERC1155/ERC1155.sol\":16498:16511  to.isContract */\n      dup5\n      and\n        /* \"@openzeppelin/contracts/utils/Address.sol\":1465:1484  account.code.length */\n      extcodesize\n        /* \"@openzeppelin/contracts/utils/Address.sol\":1465:1488  account.code.length > 0 */\n      iszero\n        /* \"@openzeppelin/contracts/token/ERC1155/ERC1155.sol\":16494:17052  if (to.isContract()) {... */\n      tag_244\n      jumpi\n        /* \"@openzeppelin/contracts/token/ERC1155/ERC1155.sol\":16533:16612  IERC1155Receiver(to).onERC1155BatchReceived(operator, from, ids, amounts, data) */\n      mload(0x40)\n      shl(0xe0, 0xbc197c81)\n      dup2\n      mstore\n      sub(shl(0xa0, 0x01), 0x01)\n        /* \"@openzeppelin/contracts/token/ERC1155/ERC1155.sol\":16533:16576  IERC1155Receiver(to).onERC1155BatchReceived */\n      dup6\n      and\n      swap1\n      0xbc197c81\n      swap1\n        /* \"@openzeppelin/contracts/token/ERC1155/ERC1155.sol\":16533:16612  IERC1155Receiver(to).onERC1155BatchReceived(operator, from, ids, amounts, data) */\n      tag_320\n      swap1\n        /* \"@openzeppelin/contracts/token/ERC1155/ERC1155.sol\":16577:16585  operator */\n      dup10\n      swap1\n        /* \"@openzeppelin/contracts/token/ERC1155/ERC1155.sol\":16587:16591  from */\n      dup10\n      swap1\n        /* \"@openzeppelin/contracts/token/ERC1155/ERC1155.sol\":16593:16596  ids */\n      dup9\n      swap1\n        /* \"@openzeppelin/contracts/token/ERC1155/ERC1155.sol\":16598:16605  amounts */\n      dup9\n      swap1\n        /* \"@openzeppelin/contracts/token/ERC1155/ERC1155.sol\":16607:16611  data */\n      dup9\n      swap1\n        /* \"@openzeppelin/contracts/token/ERC1155/ERC1155.sol\":16533:16612  IERC1155Receiver(to).onERC1155BatchReceived(operator, from, ids, amounts, data) */\n      0x04\n      add\n      tag_321\n      jump\t// in\n    tag_320:\n      0x20\n      mload(0x40)\n      dup1\n      dup4\n      sub\n      dup2\n      0x00\n      dup8\n      gas\n      call\n      swap3\n      pop\n      pop\n      pop\n      dup1\n      iszero\n      tag_322\n      jumpi\n      pop\n      0x40\n      dup1\n      mload\n      0x1f\n      returndatasize\n      swap1\n      dup2\n      add\n      not(0x1f)\n      and\n      dup3\n      add\n      swap1\n      swap3\n      mstore\n      tag_323\n      swap2\n      dup2\n      add\n      swap1\n      tag_300\n      jump\t// in\n    tag_323:\n      0x01\n    tag_322:\n        /* \"@openzeppelin/contracts/token/ERC1155/ERC1155.sol\":16529:17042  try IERC1155Receiver(to).onERC1155BatchReceived(operator, from, ids, amounts, data) returns (... */\n      tag_324\n      jumpi\n      tag_305\n      tag_306\n      jump\t// in\n    tag_324:\n      not(sub(shl(0xe0, 0x01), 0x01))\n        /* \"@openzeppelin/contracts/token/ERC1155/ERC1155.sol\":16691:16751  response != IERC1155Receiver.onERC1155BatchReceived.selector */\n      dup2\n      and\n      shl(0xe0, 0xbc197c81)\n      eq\n        /* \"@openzeppelin/contracts/token/ERC1155/ERC1155.sol\":16687:16844  if (response != IERC1155Receiver.onERC1155BatchReceived.selector) {... */\n      tag_217\n      jumpi\n        /* \"@openzeppelin/contracts/token/ERC1155/ERC1155.sol\":16775:16825  revert(\"ERC1155: ERC1155Receiver rejected tokens\") */\n      mload(0x40)\n      shl(0xe5, 0x461bcd)\n      dup2\n      mstore\n      0x04\n      add\n      tag_93\n      swap1\n      tag_316\n      jump\t// in\n        /* \"#utility.yul\":14:187   */\n    tag_337:\n        /* \"#utility.yul\":82:102   */\n      dup1\n      calldataload\n      sub(shl(0xa0, 0x01), 0x01)\n        /* \"#utility.yul\":131:162   */\n      dup2\n      and\n        /* \"#utility.yul\":121:163   */\n      dup2\n      eq\n        /* \"#utility.yul\":111:181   */\n      tag_352\n      jumpi\n        /* \"#utility.yul\":177:178   */\n      0x00\n        /* \"#utility.yul\":174:175   */\n      dup1\n        /* \"#utility.yul\":167:179   */\n      revert\n        /* \"#utility.yul\":111:181   */\n    tag_352:\n        /* \"#utility.yul\":14:187   */\n      swap2\n      swap1\n      pop\n      jump\t// out\n        /* \"#utility.yul\":192:446   */\n    tag_24:\n        /* \"#utility.yul\":260:266   */\n      0x00\n        /* \"#utility.yul\":268:274   */\n      dup1\n        /* \"#utility.yul\":321:323   */\n      0x40\n        /* \"#utility.yul\":309:318   */\n      dup4\n        /* \"#utility.yul\":300:307   */\n      dup6\n        /* \"#utility.yul\":296:319   */\n      sub\n        /* \"#utility.yul\":292:324   */\n      slt\n        /* \"#utility.yul\":289:341   */\n      iszero\n      tag_354\n      jumpi\n        /* \"#utility.yul\":337:338   */\n      0x00\n        /* \"#utility.yul\":334:335   */\n      dup1\n        /* \"#utility.yul\":327:339   */\n      revert\n        /* \"#utility.yul\":289:341   */\n    tag_354:\n        /* \"#utility.yul\":360:389   */\n      tag_355\n        /* \"#utility.yul\":379:388   */\n      dup4\n        /* \"#utility.yul\":360:389   */\n      tag_337\n      jump\t// in\n    tag_355:\n        /* \"#utility.yul\":350:389   */\n      swap5\n        /* \"#utility.yul\":436:438   */\n      0x20\n        /* \"#utility.yul\":421:439   */\n      swap4\n      swap1\n      swap4\n      add\n        /* \"#utility.yul\":408:440   */\n      calldataload\n      swap4\n      pop\n      pop\n      pop\n        /* \"#utility.yul\":192:446   */\n      jump\t// out\n        /* \"#utility.yul\":633:764   */\n    tag_338:\n      not(sub(shl(0xe0, 0x01), 0x01))\n        /* \"#utility.yul\":707:739   */\n      dup2\n      and\n        /* \"#utility.yul\":697:740   */\n      dup2\n      eq\n        /* \"#utility.yul\":687:758   */\n      tag_104\n      jumpi\n        /* \"#utility.yul\":754:755   */\n      0x00\n        /* \"#utility.yul\":751:752   */\n      dup1\n        /* \"#utility.yul\":744:756   */\n      revert\n        /* \"#utility.yul\":769:1014   */\n    tag_30:\n        /* \"#utility.yul\":827:833   */\n      0x00\n        /* \"#utility.yul\":880:882   */\n      0x20\n        /* \"#utility.yul\":868:877   */\n      dup3\n        /* \"#utility.yul\":859:866   */\n      dup5\n        /* \"#utility.yul\":855:878   */\n      sub\n        /* \"#utility.yul\":851:883   */\n      slt\n        /* \"#utility.yul\":848:900   */\n      iszero\n      tag_360\n      jumpi\n        /* \"#utility.yul\":896:897   */\n      0x00\n        /* \"#utility.yul\":893:894   */\n      dup1\n        /* \"#utility.yul\":886:898   */\n      revert\n        /* \"#utility.yul\":848:900   */\n    tag_360:\n        /* \"#utility.yul\":935:944   */\n      dup2\n        /* \"#utility.yul\":922:945   */\n      calldataload\n        /* \"#utility.yul\":954:984   */\n      tag_361\n        /* \"#utility.yul\":978:983   */\n      dup2\n        /* \"#utility.yul\":954:984   */\n      tag_338\n      jump\t// in\n    tag_361:\n        /* \"#utility.yul\":1003:1008   */\n      swap4\n        /* \"#utility.yul\":769:1014   */\n      swap3\n      pop\n      pop\n      pop\n      jump\t// out\n        /* \"#utility.yul\":1211:1338   */\n    tag_140:\n        /* \"#utility.yul\":1272:1282   */\n      0x4e487b71\n        /* \"#utility.yul\":1267:1270   */\n      0xe0\n        /* \"#utility.yul\":1263:1283   */\n      shl\n        /* \"#utility.yul\":1260:1261   */\n      0x00\n        /* \"#utility.yul\":1253:1284   */\n      mstore\n        /* \"#utility.yul\":1303:1307   */\n      0x41\n        /* \"#utility.yul\":1300:1301   */\n      0x04\n        /* \"#utility.yul\":1293:1308   */\n      mstore\n        /* \"#utility.yul\":1327:1331   */\n      0x24\n        /* \"#utility.yul\":1324:1325   */\n      0x00\n        /* \"#utility.yul\":1317:1332   */\n      revert\n        /* \"#utility.yul\":1343:1592   */\n    tag_339:\n        /* \"#utility.yul\":1453:1455   */\n      0x1f\n        /* \"#utility.yul\":1434:1447   */\n      dup3\n      add\n      not(0x1f)\n        /* \"#utility.yul\":1430:1457   */\n      and\n        /* \"#utility.yul\":1418:1458   */\n      dup2\n      add\n        /* \"#utility.yul\":1488:1506   */\n      0xffffffffffffffff\n        /* \"#utility.yul\":1473:1507   */\n      dup2\n      gt\n        /* \"#utility.yul\":1509:1531   */\n      dup3\n      dup3\n      lt\n        /* \"#utility.yul\":1470:1532   */\n      or\n        /* \"#utility.yul\":1467:1555   */\n      iszero\n      tag_366\n      jumpi\n        /* \"#utility.yul\":1535:1553   */\n      tag_366\n      tag_140\n      jump\t// in\n    tag_366:\n        /* \"#utility.yul\":1571:1573   */\n      0x40\n        /* \"#utility.yul\":1564:1586   */\n      mstore\n      pop\n      pop\n        /* \"#utility.yul\":1343:1592   */\n      jump\t// out\n        /* \"#utility.yul\":1597:2066   */\n    tag_340:\n        /* \"#utility.yul\":1662:1667   */\n      0x00\n        /* \"#utility.yul\":1696:1714   */\n      0xffffffffffffffff\n        /* \"#utility.yul\":1688:1694   */\n      dup4\n        /* \"#utility.yul\":1685:1715   */\n      gt\n        /* \"#utility.yul\":1682:1738   */\n      iszero\n      tag_369\n      jumpi\n        /* \"#utility.yul\":1718:1736   */\n      tag_369\n      tag_140\n      jump\t// in\n    tag_369:\n        /* \"#utility.yul\":1767:1769   */\n      0x40\n        /* \"#utility.yul\":1761:1770   */\n      mload\n        /* \"#utility.yul\":1779:1848   */\n      tag_370\n        /* \"#utility.yul\":1836:1838   */\n      0x1f\n        /* \"#utility.yul\":1815:1830   */\n      dup6\n      add\n      not(0x1f)\n        /* \"#utility.yul\":1811:1840   */\n      and\n        /* \"#utility.yul\":1842:1846   */\n      0x20\n        /* \"#utility.yul\":1807:1847   */\n      add\n        /* \"#utility.yul\":1761:1770   */\n      dup3\n        /* \"#utility.yul\":1779:1848   */\n      tag_339\n      jump\t// in\n    tag_370:\n        /* \"#utility.yul\":1866:1872   */\n      dup1\n        /* \"#utility.yul\":1857:1872   */\n      swap2\n      pop\n        /* \"#utility.yul\":1896:1902   */\n      dup4\n        /* \"#utility.yul\":1888:1894   */\n      dup2\n        /* \"#utility.yul\":1881:1903   */\n      mstore\n        /* \"#utility.yul\":1936:1939   */\n      dup5\n        /* \"#utility.yul\":1927:1933   */\n      dup5\n        /* \"#utility.yul\":1922:1925   */\n      dup5\n        /* \"#utility.yul\":1918:1934   */\n      add\n        /* \"#utility.yul\":1915:1940   */\n      gt\n        /* \"#utility.yul\":1912:1957   */\n      iszero\n      tag_371\n      jumpi\n        /* \"#utility.yul\":1953:1954   */\n      0x00\n        /* \"#utility.yul\":1950:1951   */\n      dup1\n        /* \"#utility.yul\":1943:1955   */\n      revert\n        /* \"#utility.yul\":1912:1957   */\n    tag_371:\n        /* \"#utility.yul\":2003:2009   */\n      dup4\n        /* \"#utility.yul\":1998:2001   */\n      dup4\n        /* \"#utility.yul\":1991:1995   */\n      0x20\n        /* \"#utility.yul\":1983:1989   */\n      dup4\n        /* \"#utility.yul\":1979:1996   */\n      add\n        /* \"#utility.yul\":1966:2010   */\n      calldatacopy\n        /* \"#utility.yul\":2058:2059   */\n      0x00\n        /* \"#utility.yul\":2051:2055   */\n      0x20\n        /* \"#utility.yul\":2042:2048   */\n      dup6\n        /* \"#utility.yul\":2034:2040   */\n      dup4\n        /* \"#utility.yul\":2030:2049   */\n      add\n        /* \"#utility.yul\":2026:2056   */\n      add\n        /* \"#utility.yul\":2019:2060   */\n      mstore\n      pop\n        /* \"#utility.yul\":1597:2066   */\n      swap4\n      swap3\n      pop\n      pop\n      pop\n      jump\t// out\n        /* \"#utility.yul\":2071:2522   */\n    tag_36:\n        /* \"#utility.yul\":2140:2146   */\n      0x00\n        /* \"#utility.yul\":2193:2195   */\n      0x20\n        /* \"#utility.yul\":2181:2190   */\n      dup3\n        /* \"#utility.yul\":2172:2179   */\n      dup5\n        /* \"#utility.yul\":2168:2191   */\n      sub\n        /* \"#utility.yul\":2164:2196   */\n      slt\n        /* \"#utility.yul\":2161:2213   */\n      iszero\n      tag_373\n      jumpi\n        /* \"#utility.yul\":2209:2210   */\n      0x00\n        /* \"#utility.yul\":2206:2207   */\n      dup1\n        /* \"#utility.yul\":2199:2211   */\n      revert\n        /* \"#utility.yul\":2161:2213   */\n    tag_373:\n        /* \"#utility.yul\":2249:2258   */\n      dup2\n        /* \"#utility.yul\":2236:2259   */\n      calldataload\n        /* \"#utility.yul\":2282:2300   */\n      0xffffffffffffffff\n        /* \"#utility.yul\":2274:2280   */\n      dup2\n        /* \"#utility.yul\":2271:2301   */\n      gt\n        /* \"#utility.yul\":2268:2318   */\n      iszero\n      tag_374\n      jumpi\n        /* \"#utility.yul\":2314:2315   */\n      0x00\n        /* \"#utility.yul\":2311:2312   */\n      dup1\n        /* \"#utility.yul\":2304:2316   */\n      revert\n        /* \"#utility.yul\":2268:2318   */\n    tag_374:\n        /* \"#utility.yul\":2337:2359   */\n      dup3\n      add\n        /* \"#utility.yul\":2390:2394   */\n      0x1f\n        /* \"#utility.yul\":2382:2395   */\n      dup2\n      add\n        /* \"#utility.yul\":2378:2405   */\n      dup5\n      sgt\n        /* \"#utility.yul\":2368:2423   */\n      tag_375\n      jumpi\n        /* \"#utility.yul\":2419:2420   */\n      0x00\n        /* \"#utility.yul\":2416:2417   */\n      dup1\n        /* \"#utility.yul\":2409:2421   */\n      revert\n        /* \"#utility.yul\":2368:2423   */\n    tag_375:\n        /* \"#utility.yul\":2442:2516   */\n      tag_376\n        /* \"#utility.yul\":2508:2515   */\n      dup5\n        /* \"#utility.yul\":2503:2505   */\n      dup3\n        /* \"#utility.yul\":2490:2506   */\n      calldataload\n        /* \"#utility.yul\":2485:2487   */\n      0x20\n        /* \"#utility.yul\":2481:2483   */\n      dup5\n        /* \"#utility.yul\":2477:2488   */\n      add\n        /* \"#utility.yul\":2442:2516   */\n      tag_340\n      jump\t// in\n    tag_376:\n        /* \"#utility.yul\":2432:2516   */\n      swap5\n        /* \"#utility.yul\":2071:2522   */\n      swap4\n      pop\n      pop\n      pop\n      pop\n      jump\t// out\n        /* \"#utility.yul\":2527:2950   */\n    tag_341:\n        /* \"#utility.yul\":2569:2572   */\n      0x00\n        /* \"#utility.yul\":2607:2612   */\n      dup2\n        /* \"#utility.yul\":2601:2613   */\n      mload\n        /* \"#utility.yul\":2634:2640   */\n      dup1\n        /* \"#utility.yul\":2629:2632   */\n      dup5\n        /* \"#utility.yul\":2622:2641   */\n      mstore\n        /* \"#utility.yul\":2659:2660   */\n      0x00\n        /* \"#utility.yul\":2669:2831   */\n    tag_378:\n        /* \"#utility.yul\":2683:2689   */\n      dup2\n        /* \"#utility.yul\":2680:2681   */\n      dup2\n        /* \"#utility.yul\":2677:2690   */\n      lt\n        /* \"#utility.yul\":2669:2831   */\n      iszero\n      tag_380\n      jumpi\n        /* \"#utility.yul\":2745:2749   */\n      0x20\n        /* \"#utility.yul\":2801:2814   */\n      dup2\n      dup6\n      add\n        /* \"#utility.yul\":2797:2819   */\n      dup2\n      add\n        /* \"#utility.yul\":2791:2820   */\n      mload\n        /* \"#utility.yul\":2773:2784   */\n      dup7\n      dup4\n      add\n        /* \"#utility.yul\":2769:2789   */\n      dup3\n      add\n        /* \"#utility.yul\":2762:2821   */\n      mstore\n        /* \"#utility.yul\":2698:2710   */\n      add\n        /* \"#utility.yul\":2669:2831   */\n      jump(tag_378)\n    tag_380:\n        /* \"#utility.yul\":2673:2676   */\n      pop\n        /* \"#utility.yul\":2876:2877   */\n      0x00\n        /* \"#utility.yul\":2869:2873   */\n      0x20\n        /* \"#utility.yul\":2860:2866   */\n      dup3\n        /* \"#utility.yul\":2855:2858   */\n      dup7\n        /* \"#utility.yul\":2851:2867   */\n      add\n        /* \"#utility.yul\":2847:2874   */\n      add\n        /* \"#utility.yul\":2840:2878   */\n      mstore\n        /* \"#utility.yul\":2939:2943   */\n      0x20\n        /* \"#utility.yul\":2932:2934   */\n      0x1f\n        /* \"#utility.yul\":2928:2935   */\n      not\n        /* \"#utility.yul\":2923:2925   */\n      0x1f\n        /* \"#utility.yul\":2915:2921   */\n      dup4\n        /* \"#utility.yul\":2911:2926   */\n      add\n        /* \"#utility.yul\":2907:2936   */\n      and\n        /* \"#utility.yul\":2902:2905   */\n      dup6\n        /* \"#utility.yul\":2898:2937   */\n      add\n        /* \"#utility.yul\":2894:2944   */\n      add\n        /* \"#utility.yul\":2887:2944   */\n      swap2\n      pop\n      pop\n        /* \"#utility.yul\":2527:2950   */\n      swap3\n      swap2\n      pop\n      pop\n      jump\t// out\n        /* \"#utility.yul\":2955:3175   */\n    tag_41:\n        /* \"#utility.yul\":3104:3106   */\n      0x20\n        /* \"#utility.yul\":3093:3102   */\n      dup2\n        /* \"#utility.yul\":3086:3107   */\n      mstore\n        /* \"#utility.yul\":3067:3071   */\n      0x00\n        /* \"#utility.yul\":3124:3169   */\n      tag_361\n        /* \"#utility.yul\":3165:3167   */\n      0x20\n        /* \"#utility.yul\":3154:3163   */\n      dup4\n        /* \"#utility.yul\":3150:3168   */\n      add\n        /* \"#utility.yul\":3142:3148   */\n      dup5\n        /* \"#utility.yul\":3124:3169   */\n      tag_341\n      jump\t// in\n        /* \"#utility.yul\":3180:3360   */\n    tag_44:\n        /* \"#utility.yul\":3239:3245   */\n      0x00\n        /* \"#utility.yul\":3292:3294   */\n      0x20\n        /* \"#utility.yul\":3280:3289   */\n      dup3\n        /* \"#utility.yul\":3271:3278   */\n      dup5\n        /* \"#utility.yul\":3267:3290   */\n      sub\n        /* \"#utility.yul\":3263:3295   */\n      slt\n        /* \"#utility.yul\":3260:3312   */\n      iszero\n      tag_384\n      jumpi\n        /* \"#utility.yul\":3308:3309   */\n      0x00\n        /* \"#utility.yul\":3305:3306   */\n      dup1\n        /* \"#utility.yul\":3298:3310   */\n      revert\n        /* \"#utility.yul\":3260:3312   */\n    tag_384:\n      pop\n        /* \"#utility.yul\":3331:3354   */\n      calldataload\n      swap2\n        /* \"#utility.yul\":3180:3360   */\n      swap1\n      pop\n      jump\t// out\n        /* \"#utility.yul\":3365:3613   */\n    tag_49:\n        /* \"#utility.yul\":3433:3439   */\n      0x00\n        /* \"#utility.yul\":3441:3447   */\n      dup1\n        /* \"#utility.yul\":3494:3496   */\n      0x40\n        /* \"#utility.yul\":3482:3491   */\n      dup4\n        /* \"#utility.yul\":3473:3480   */\n      dup6\n        /* \"#utility.yul\":3469:3492   */\n      sub\n        /* \"#utility.yul\":3465:3497   */\n      slt\n        /* \"#utility.yul\":3462:3514   */\n      iszero\n      tag_386\n      jumpi\n        /* \"#utility.yul\":3510:3511   */\n      0x00\n        /* \"#utility.yul\":3507:3508   */\n      dup1\n        /* \"#utility.yul\":3500:3512   */\n      revert\n        /* \"#utility.yul\":3462:3514   */\n    tag_386:\n      pop\n      pop\n        /* \"#utility.yul\":3533:3556   */\n      dup1\n      calldataload\n      swap3\n        /* \"#utility.yul\":3603:3605   */\n      0x20\n        /* \"#utility.yul\":3588:3606   */\n      swap1\n      swap2\n      add\n        /* \"#utility.yul\":3575:3607   */\n      calldataload\n      swap2\n      pop\n        /* \"#utility.yul\":3365:3613   */\n      jump\t// out\n        /* \"#utility.yul\":3618:3801   */\n    tag_342:\n        /* \"#utility.yul\":3678:3682   */\n      0x00\n        /* \"#utility.yul\":3711:3729   */\n      0xffffffffffffffff\n        /* \"#utility.yul\":3703:3709   */\n      dup3\n        /* \"#utility.yul\":3700:3730   */\n      gt\n        /* \"#utility.yul\":3697:3753   */\n      iszero\n      tag_389\n      jumpi\n        /* \"#utility.yul\":3733:3751   */\n      tag_389\n      tag_140\n      jump\t// in\n    tag_389:\n      pop\n        /* \"#utility.yul\":3778:3779   */\n      0x05\n        /* \"#utility.yul\":3774:3788   */\n      shl\n        /* \"#utility.yul\":3790:3794   */\n      0x20\n        /* \"#utility.yul\":3770:3795   */\n      add\n      swap1\n        /* \"#utility.yul\":3618:3801   */\n      jump\t// out\n        /* \"#utility.yul\":3806:4530   */\n    tag_343:\n        /* \"#utility.yul\":3860:3865   */\n      0x00\n        /* \"#utility.yul\":3913:3916   */\n      dup3\n        /* \"#utility.yul\":3906:3910   */\n      0x1f\n        /* \"#utility.yul\":3898:3904   */\n      dup4\n        /* \"#utility.yul\":3894:3911   */\n      add\n        /* \"#utility.yul\":3890:3917   */\n      slt\n        /* \"#utility.yul\":3880:3935   */\n      tag_391\n      jumpi\n        /* \"#utility.yul\":3931:3932   */\n      0x00\n        /* \"#utility.yul\":3928:3929   */\n      dup1\n        /* \"#utility.yul\":3921:3933   */\n      revert\n        /* \"#utility.yul\":3880:3935   */\n    tag_391:\n        /* \"#utility.yul\":3967:3973   */\n      dup2\n        /* \"#utility.yul\":3954:3974   */\n      calldataload\n        /* \"#utility.yul\":3993:3997   */\n      0x20\n        /* \"#utility.yul\":4016:4059   */\n      tag_392\n        /* \"#utility.yul\":4056:4058   */\n      dup3\n        /* \"#utility.yul\":4016:4059   */\n      tag_342\n      jump\t// in\n    tag_392:\n        /* \"#utility.yul\":4088:4090   */\n      0x40\n        /* \"#utility.yul\":4082:4091   */\n      mload\n        /* \"#utility.yul\":4100:4131   */\n      tag_393\n        /* \"#utility.yul\":4128:4130   */\n      dup3\n        /* \"#utility.yul\":4120:4126   */\n      dup3\n        /* \"#utility.yul\":4100:4131   */\n      tag_339\n      jump\t// in\n    tag_393:\n        /* \"#utility.yul\":4166:4184   */\n      dup4\n      dup2\n      mstore\n        /* \"#utility.yul\":4258:4259   */\n      0x05\n        /* \"#utility.yul\":4254:4264   */\n      swap4\n      swap1\n      swap4\n      shl\n        /* \"#utility.yul\":4242:4265   */\n      dup6\n      add\n        /* \"#utility.yul\":4238:4270   */\n      dup3\n      add\n      swap3\n        /* \"#utility.yul\":4200:4215   */\n      dup3\n      dup2\n      add\n      swap2\n      pop\n        /* \"#utility.yul\":4282:4297   */\n      dup7\n      dup5\n      gt\n        /* \"#utility.yul\":4279:4314   */\n      iszero\n      tag_394\n      jumpi\n        /* \"#utility.yul\":4310:4311   */\n      0x00\n        /* \"#utility.yul\":4307:4308   */\n      dup1\n        /* \"#utility.yul\":4300:4312   */\n      revert\n        /* \"#utility.yul\":4279:4314   */\n    tag_394:\n        /* \"#utility.yul\":4346:4348   */\n      dup3\n        /* \"#utility.yul\":4338:4344   */\n      dup7\n        /* \"#utility.yul\":4334:4349   */\n      add\n        /* \"#utility.yul\":4358:4500   */\n    tag_395:\n        /* \"#utility.yul\":4374:4380   */\n      dup5\n        /* \"#utility.yul\":4369:4372   */\n      dup2\n        /* \"#utility.yul\":4366:4381   */\n      lt\n        /* \"#utility.yul\":4358:4500   */\n      iszero\n      tag_397\n      jumpi\n        /* \"#utility.yul\":4440:4457   */\n      dup1\n      calldataload\n        /* \"#utility.yul\":4428:4458   */\n      dup4\n      mstore\n        /* \"#utility.yul\":4478:4490   */\n      swap2\n      dup4\n      add\n      swap2\n        /* \"#utility.yul\":4391:4403   */\n      dup4\n      add\n        /* \"#utility.yul\":4358:4500   */\n      jump(tag_395)\n    tag_397:\n      pop\n        /* \"#utility.yul\":4518:4524   */\n      swap7\n        /* \"#utility.yul\":3806:4530   */\n      swap6\n      pop\n      pop\n      pop\n      pop\n      pop\n      pop\n      jump\t// out\n        /* \"#utility.yul\":4535:4756   */\n    tag_344:\n        /* \"#utility.yul\":4577:4582   */\n      0x00\n        /* \"#utility.yul\":4630:4633   */\n      dup3\n        /* \"#utility.yul\":4623:4627   */\n      0x1f\n        /* \"#utility.yul\":4615:4621   */\n      dup4\n        /* \"#utility.yul\":4611:4628   */\n      add\n        /* \"#utility.yul\":4607:4634   */\n      slt\n        /* \"#utility.yul\":4597:4652   */\n      tag_399\n      jumpi\n        /* \"#utility.yul\":4648:4649   */\n      0x00\n        /* \"#utility.yul\":4645:4646   */\n      dup1\n        /* \"#utility.yul\":4638:4650   */\n      revert\n        /* \"#utility.yul\":4597:4652   */\n    tag_399:\n        /* \"#utility.yul\":4670:4750   */\n      tag_361\n        /* \"#utility.yul\":4746:4749   */\n      dup4\n        /* \"#utility.yul\":4737:4743   */\n      dup4\n        /* \"#utility.yul\":4724:4744   */\n      calldataload\n        /* \"#utility.yul\":4717:4721   */\n      0x20\n        /* \"#utility.yul\":4709:4715   */\n      dup6\n        /* \"#utility.yul\":4705:4722   */\n      add\n        /* \"#utility.yul\":4670:4750   */\n      tag_340\n      jump\t// in\n        /* \"#utility.yul\":4761:5704   */\n    tag_53:\n        /* \"#utility.yul\":4915:4921   */\n      0x00\n        /* \"#utility.yul\":4923:4929   */\n      dup1\n        /* \"#utility.yul\":4931:4937   */\n      0x00\n        /* \"#utility.yul\":4939:4945   */\n      dup1\n        /* \"#utility.yul\":4947:4953   */\n      0x00\n        /* \"#utility.yul\":5000:5003   */\n      0xa0\n        /* \"#utility.yul\":4988:4997   */\n      dup7\n        /* \"#utility.yul\":4979:4986   */\n      dup9\n        /* \"#utility.yul\":4975:4998   */\n      sub\n        /* \"#utility.yul\":4971:5004   */\n      slt\n        /* \"#utility.yul\":4968:5021   */\n      iszero\n      tag_402\n      jumpi\n        /* \"#utility.yul\":5017:5018   */\n      0x00\n        /* \"#utility.yul\":5014:5015   */\n      dup1\n        /* \"#utility.yul\":5007:5019   */\n      revert\n        /* \"#utility.yul\":4968:5021   */\n    tag_402:\n        /* \"#utility.yul\":5040:5069   */\n      tag_403\n        /* \"#utility.yul\":5059:5068   */\n      dup7\n        /* \"#utility.yul\":5040:5069   */\n      tag_337\n      jump\t// in\n    tag_403:\n        /* \"#utility.yul\":5030:5069   */\n      swap5\n      pop\n        /* \"#utility.yul\":5088:5126   */\n      tag_404\n        /* \"#utility.yul\":5122:5124   */\n      0x20\n        /* \"#utility.yul\":5111:5120   */\n      dup8\n        /* \"#utility.yul\":5107:5125   */\n      add\n        /* \"#utility.yul\":5088:5126   */\n      tag_337\n      jump\t// in\n    tag_404:\n        /* \"#utility.yul\":5078:5126   */\n      swap4\n      pop\n        /* \"#utility.yul\":5177:5179   */\n      0x40\n        /* \"#utility.yul\":5166:5175   */\n      dup7\n        /* \"#utility.yul\":5162:5180   */\n      add\n        /* \"#utility.yul\":5149:5181   */\n      calldataload\n        /* \"#utility.yul\":5200:5218   */\n      0xffffffffffffffff\n        /* \"#utility.yul\":5241:5243   */\n      dup1\n        /* \"#utility.yul\":5233:5239   */\n      dup3\n        /* \"#utility.yul\":5230:5244   */\n      gt\n        /* \"#utility.yul\":5227:5261   */\n      iszero\n      tag_405\n      jumpi\n        /* \"#utility.yul\":5257:5258   */\n      0x00\n        /* \"#utility.yul\":5254:5255   */\n      dup1\n        /* \"#utility.yul\":5247:5259   */\n      revert\n        /* \"#utility.yul\":5227:5261   */\n    tag_405:\n        /* \"#utility.yul\":5280:5341   */\n      tag_406\n        /* \"#utility.yul\":5333:5340   */\n      dup10\n        /* \"#utility.yul\":5324:5330   */\n      dup4\n        /* \"#utility.yul\":5313:5322   */\n      dup11\n        /* \"#utility.yul\":5309:5331   */\n      add\n        /* \"#utility.yul\":5280:5341   */\n      tag_343\n      jump\t// in\n    tag_406:\n        /* \"#utility.yul\":5270:5341   */\n      swap5\n      pop\n        /* \"#utility.yul\":5394:5396   */\n      0x60\n        /* \"#utility.yul\":5383:5392   */\n      dup9\n        /* \"#utility.yul\":5379:5397   */\n      add\n        /* \"#utility.yul\":5366:5398   */\n      calldataload\n        /* \"#utility.yul\":5350:5398   */\n      swap2\n      pop\n        /* \"#utility.yul\":5423:5425   */\n      dup1\n        /* \"#utility.yul\":5413:5421   */\n      dup3\n        /* \"#utility.yul\":5410:5426   */\n      gt\n        /* \"#utility.yul\":5407:5443   */\n      iszero\n      tag_407\n      jumpi\n        /* \"#utility.yul\":5439:5440   */\n      0x00\n        /* \"#utility.yul\":5436:5437   */\n      dup1\n        /* \"#utility.yul\":5429:5441   */\n      revert\n        /* \"#utility.yul\":5407:5443   */\n    tag_407:\n        /* \"#utility.yul\":5462:5525   */\n      tag_408\n        /* \"#utility.yul\":5517:5524   */\n      dup10\n        /* \"#utility.yul\":5506:5514   */\n      dup4\n        /* \"#utility.yul\":5495:5504   */\n      dup11\n        /* \"#utility.yul\":5491:5515   */\n      add\n        /* \"#utility.yul\":5462:5525   */\n      tag_343\n      jump\t// in\n    tag_408:\n        /* \"#utility.yul\":5452:5525   */\n      swap4\n      pop\n        /* \"#utility.yul\":5578:5581   */\n      0x80\n        /* \"#utility.yul\":5567:5576   */\n      dup9\n        /* \"#utility.yul\":5563:5582   */\n      add\n        /* \"#utility.yul\":5550:5583   */\n      calldataload\n        /* \"#utility.yul\":5534:5583   */\n      swap2\n      pop\n        /* \"#utility.yul\":5608:5610   */\n      dup1\n        /* \"#utility.yul\":5598:5606   */\n      dup3\n        /* \"#utility.yul\":5595:5611   */\n      gt\n        /* \"#utility.yul\":5592:5628   */\n      iszero\n      tag_409\n      jumpi\n        /* \"#utility.yul\":5624:5625   */\n      0x00\n        /* \"#utility.yul\":5621:5622   */\n      dup1\n        /* \"#utility.yul\":5614:5626   */\n      revert\n        /* \"#utility.yul\":5592:5628   */\n    tag_409:\n      pop\n        /* \"#utility.yul\":5647:5698   */\n      tag_410\n        /* \"#utility.yul\":5690:5697   */\n      dup9\n        /* \"#utility.yul\":5679:5687   */\n      dup3\n        /* \"#utility.yul\":5668:5677   */\n      dup10\n        /* \"#utility.yul\":5664:5688   */\n      add\n        /* \"#utility.yul\":5647:5698   */\n      tag_344\n      jump\t// in\n    tag_410:\n        /* \"#utility.yul\":5637:5698   */\n      swap2\n      pop\n      pop\n        /* \"#utility.yul\":4761:5704   */\n      swap3\n      swap6\n      pop\n      swap3\n      swap6\n      swap1\n      swap4\n      pop\n      jump\t// out\n        /* \"#utility.yul\":5709:6917   */\n    tag_57:\n        /* \"#utility.yul\":5827:5833   */\n      0x00\n        /* \"#utility.yul\":5835:5841   */\n      dup1\n        /* \"#utility.yul\":5888:5890   */\n      0x40\n        /* \"#utility.yul\":5876:5885   */\n      dup4\n        /* \"#utility.yul\":5867:5874   */\n      dup6\n        /* \"#utility.yul\":5863:5886   */\n      sub\n        /* \"#utility.yul\":5859:5891   */\n      slt\n        /* \"#utility.yul\":5856:5908   */\n      iszero\n      tag_412\n      jumpi\n        /* \"#utility.yul\":5904:5905   */\n      0x00\n        /* \"#utility.yul\":5901:5902   */\n      dup1\n        /* \"#utility.yul\":5894:5906   */\n      revert\n        /* \"#utility.yul\":5856:5908   */\n    tag_412:\n        /* \"#utility.yul\":5944:5953   */\n      dup3\n        /* \"#utility.yul\":5931:5954   */\n      calldataload\n        /* \"#utility.yul\":5973:5991   */\n      0xffffffffffffffff\n        /* \"#utility.yul\":6014:6016   */\n      dup1\n        /* \"#utility.yul\":6006:6012   */\n      dup3\n        /* \"#utility.yul\":6003:6017   */\n      gt\n        /* \"#utility.yul\":6000:6034   */\n      iszero\n      tag_413\n      jumpi\n        /* \"#utility.yul\":6030:6031   */\n      0x00\n        /* \"#utility.yul\":6027:6028   */\n      dup1\n        /* \"#utility.yul\":6020:6032   */\n      revert\n        /* \"#utility.yul\":6000:6034   */\n    tag_413:\n        /* \"#utility.yul\":6068:6074   */\n      dup2\n        /* \"#utility.yul\":6057:6066   */\n      dup6\n        /* \"#utility.yul\":6053:6075   */\n      add\n        /* \"#utility.yul\":6043:6075   */\n      swap2\n      pop\n        /* \"#utility.yul\":6113:6120   */\n      dup6\n        /* \"#utility.yul\":6106:6110   */\n      0x1f\n        /* \"#utility.yul\":6102:6104   */\n      dup4\n        /* \"#utility.yul\":6098:6111   */\n      add\n        /* \"#utility.yul\":6094:6121   */\n      slt\n        /* \"#utility.yul\":6084:6139   */\n      tag_414\n      jumpi\n        /* \"#utility.yul\":6135:6136   */\n      0x00\n        /* \"#utility.yul\":6132:6133   */\n      dup1\n        /* \"#utility.yul\":6125:6137   */\n      revert\n        /* \"#utility.yul\":6084:6139   */\n    tag_414:\n        /* \"#utility.yul\":6171:6173   */\n      dup2\n        /* \"#utility.yul\":6158:6174   */\n      calldataload\n        /* \"#utility.yul\":6193:6197   */\n      0x20\n        /* \"#utility.yul\":6216:6259   */\n      tag_415\n        /* \"#utility.yul\":6256:6258   */\n      dup3\n        /* \"#utility.yul\":6216:6259   */\n      tag_342\n      jump\t// in\n    tag_415:\n        /* \"#utility.yul\":6288:6290   */\n      0x40\n        /* \"#utility.yul\":6282:6291   */\n      mload\n        /* \"#utility.yul\":6300:6331   */\n      tag_416\n        /* \"#utility.yul\":6328:6330   */\n      dup3\n        /* \"#utility.yul\":6320:6326   */\n      dup3\n        /* \"#utility.yul\":6300:6331   */\n      tag_339\n      jump\t// in\n    tag_416:\n        /* \"#utility.yul\":6366:6384   */\n      dup4\n      dup2\n      mstore\n        /* \"#utility.yul\":6454:6455   */\n      0x05\n        /* \"#utility.yul\":6450:6460   */\n      swap4\n      swap1\n      swap4\n      shl\n        /* \"#utility.yul\":6442:6461   */\n      dup6\n      add\n        /* \"#utility.yul\":6438:6466   */\n      dup3\n      add\n      swap3\n        /* \"#utility.yul\":6400:6415   */\n      dup3\n      dup2\n      add\n      swap2\n      pop\n        /* \"#utility.yul\":6478:6497   */\n      dup10\n      dup5\n      gt\n        /* \"#utility.yul\":6475:6514   */\n      iszero\n      tag_417\n      jumpi\n        /* \"#utility.yul\":6510:6511   */\n      0x00\n        /* \"#utility.yul\":6507:6508   */\n      dup1\n        /* \"#utility.yul\":6500:6512   */\n      revert\n        /* \"#utility.yul\":6475:6514   */\n    tag_417:\n        /* \"#utility.yul\":6534:6545   */\n      swap5\n      dup3\n      add\n      swap5\n        /* \"#utility.yul\":6554:6702   */\n    tag_418:\n        /* \"#utility.yul\":6570:6576   */\n      dup4\n        /* \"#utility.yul\":6565:6568   */\n      dup7\n        /* \"#utility.yul\":6562:6577   */\n      lt\n        /* \"#utility.yul\":6554:6702   */\n      iszero\n      tag_420\n      jumpi\n        /* \"#utility.yul\":6636:6659   */\n      tag_421\n        /* \"#utility.yul\":6655:6658   */\n      dup7\n        /* \"#utility.yul\":6636:6659   */\n      tag_337\n      jump\t// in\n    tag_421:\n        /* \"#utility.yul\":6624:6660   */\n      dup3\n      mstore\n        /* \"#utility.yul\":6587:6599   */\n      swap5\n      dup3\n      add\n      swap5\n        /* \"#utility.yul\":6680:6692   */\n      swap1\n      dup3\n      add\n      swap1\n        /* \"#utility.yul\":6554:6702   */\n      jump(tag_418)\n    tag_420:\n        /* \"#utility.yul\":6721:6727   */\n      swap7\n      pop\n      pop\n        /* \"#utility.yul\":6765:6783   */\n      dup7\n      add\n        /* \"#utility.yul\":6752:6784   */\n      calldataload\n      swap3\n      pop\n      pop\n        /* \"#utility.yul\":6796:6812   */\n      dup1\n      dup3\n      gt\n        /* \"#utility.yul\":6793:6829   */\n      iszero\n      tag_422\n      jumpi\n        /* \"#utility.yul\":6825:6826   */\n      0x00\n        /* \"#utility.yul\":6822:6823   */\n      dup1\n        /* \"#utility.yul\":6815:6827   */\n      revert\n        /* \"#utility.yul\":6793:6829   */\n    tag_422:\n      pop\n        /* \"#utility.yul\":6848:6911   */\n      tag_423\n        /* \"#utility.yul\":6903:6910   */\n      dup6\n        /* \"#utility.yul\":6892:6900   */\n      dup3\n        /* \"#utility.yul\":6881:6890   */\n      dup7\n        /* \"#utility.yul\":6877:6901   */\n      add\n        /* \"#utility.yul\":6848:6911   */\n      tag_343\n      jump\t// in\n    tag_423:\n        /* \"#utility.yul\":6838:6911   */\n      swap2\n      pop\n      pop\n        /* \"#utility.yul\":5709:6917   */\n      swap3\n      pop\n      swap3\n      swap1\n      pop\n      jump\t// out\n        /* \"#utility.yul\":6922:7357   */\n    tag_345:\n        /* \"#utility.yul\":6975:6978   */\n      0x00\n        /* \"#utility.yul\":7013:7018   */\n      dup2\n        /* \"#utility.yul\":7007:7019   */\n      mload\n        /* \"#utility.yul\":7040:7046   */\n      dup1\n        /* \"#utility.yul\":7035:7038   */\n      dup5\n        /* \"#utility.yul\":7028:7047   */\n      mstore\n        /* \"#utility.yul\":7066:7070   */\n      0x20\n        /* \"#utility.yul\":7095:7097   */\n      dup1\n        /* \"#utility.yul\":7090:7093   */\n      dup6\n        /* \"#utility.yul\":7086:7098   */\n      add\n        /* \"#utility.yul\":7079:7098   */\n      swap5\n      pop\n        /* \"#utility.yul\":7132:7134   */\n      dup1\n        /* \"#utility.yul\":7125:7130   */\n      dup5\n        /* \"#utility.yul\":7121:7135   */\n      add\n        /* \"#utility.yul\":7153:7154   */\n      0x00\n        /* \"#utility.yul\":7163:7332   */\n    tag_425:\n        /* \"#utility.yul\":7177:7183   */\n      dup4\n        /* \"#utility.yul\":7174:7175   */\n      dup2\n        /* \"#utility.yul\":7171:7184   */\n      lt\n        /* \"#utility.yul\":7163:7332   */\n      iszero\n      tag_427\n      jumpi\n        /* \"#utility.yul\":7238:7251   */\n      dup2\n      mload\n        /* \"#utility.yul\":7226:7252   */\n      dup8\n      mstore\n        /* \"#utility.yul\":7272:7284   */\n      swap6\n      dup3\n      add\n      swap6\n        /* \"#utility.yul\":7307:7322   */\n      swap1\n      dup3\n      add\n      swap1\n        /* \"#utility.yul\":7199:7200   */\n      0x01\n        /* \"#utility.yul\":7192:7201   */\n      add\n        /* \"#utility.yul\":7163:7332   */\n      jump(tag_425)\n    tag_427:\n      pop\n        /* \"#utility.yul\":7348:7351   */\n      swap5\n      swap6\n        /* \"#utility.yul\":6922:7357   */\n      swap5\n      pop\n      pop\n      pop\n      pop\n      pop\n      jump\t// out\n        /* \"#utility.yul\":7362:7623   */\n    tag_60:\n        /* \"#utility.yul\":7541:7543   */\n      0x20\n        /* \"#utility.yul\":7530:7539   */\n      dup2\n        /* \"#utility.yul\":7523:7544   */\n      mstore\n        /* \"#utility.yul\":7504:7508   */\n      0x00\n        /* \"#utility.yul\":7561:7617   */\n      tag_361\n        /* \"#utility.yul\":7613:7615   */\n      0x20\n        /* \"#utility.yul\":7602:7611   */\n      dup4\n        /* \"#utility.yul\":7598:7616   */\n      add\n        /* \"#utility.yul\":7590:7596   */\n      dup5\n        /* \"#utility.yul\":7561:7617   */\n      tag_345\n      jump\t// in\n        /* \"#utility.yul\":7836:8183   */\n    tag_69:\n        /* \"#utility.yul\":7901:7907   */\n      0x00\n        /* \"#utility.yul\":7909:7915   */\n      dup1\n        /* \"#utility.yul\":7962:7964   */\n      0x40\n        /* \"#utility.yul\":7950:7959   */\n      dup4\n        /* \"#utility.yul\":7941:7948   */\n      dup6\n        /* \"#utility.yul\":7937:7960   */\n      sub\n        /* \"#utility.yul\":7933:7965   */\n      slt\n        /* \"#utility.yul\":7930:7982   */\n      iszero\n      tag_432\n      jumpi\n        /* \"#utility.yul\":7978:7979   */\n      0x00\n        /* \"#utility.yul\":7975:7976   */\n      dup1\n        /* \"#utility.yul\":7968:7980   */\n      revert\n        /* \"#utility.yul\":7930:7982   */\n    tag_432:\n        /* \"#utility.yul\":8001:8030   */\n      tag_433\n        /* \"#utility.yul\":8020:8029   */\n      dup4\n        /* \"#utility.yul\":8001:8030   */\n      tag_337\n      jump\t// in\n    tag_433:\n        /* \"#utility.yul\":7991:8030   */\n      swap2\n      pop\n        /* \"#utility.yul\":8080:8082   */\n      0x20\n        /* \"#utility.yul\":8069:8078   */\n      dup4\n        /* \"#utility.yul\":8065:8083   */\n      add\n        /* \"#utility.yul\":8052:8084   */\n      calldataload\n        /* \"#utility.yul\":8127:8132   */\n      dup1\n        /* \"#utility.yul\":8120:8133   */\n      iszero\n        /* \"#utility.yul\":8113:8134   */\n      iszero\n        /* \"#utility.yul\":8106:8111   */\n      dup2\n        /* \"#utility.yul\":8103:8135   */\n      eq\n        /* \"#utility.yul\":8093:8153   */\n      tag_434\n      jumpi\n        /* \"#utility.yul\":8149:8150   */\n      0x00\n        /* \"#utility.yul\":8146:8147   */\n      dup1\n        /* \"#utility.yul\":8139:8151   */\n      revert\n        /* \"#utility.yul\":8093:8153   */\n    tag_434:\n        /* \"#utility.yul\":8172:8177   */\n      dup1\n        /* \"#utility.yul\":8162:8177   */\n      swap2\n      pop\n      pop\n        /* \"#utility.yul\":7836:8183   */\n      swap3\n      pop\n      swap3\n      swap1\n      pop\n      jump\t// out\n        /* \"#utility.yul\":8188:8783   */\n    tag_76:\n        /* \"#utility.yul\":8306:8312   */\n      0x00\n        /* \"#utility.yul\":8314:8320   */\n      dup1\n        /* \"#utility.yul\":8367:8369   */\n      0x40\n        /* \"#utility.yul\":8355:8364   */\n      dup4\n        /* \"#utility.yul\":8346:8353   */\n      dup6\n        /* \"#utility.yul\":8342:8365   */\n      sub\n        /* \"#utility.yul\":8338:8370   */\n      slt\n        /* \"#utility.yul\":8335:8387   */\n      iszero\n      tag_436\n      jumpi\n        /* \"#utility.yul\":8383:8384   */\n      0x00\n        /* \"#utility.yul\":8380:8381   */\n      dup1\n        /* \"#utility.yul\":8373:8385   */\n      revert\n        /* \"#utility.yul\":8335:8387   */\n    tag_436:\n        /* \"#utility.yul\":8423:8432   */\n      dup3\n        /* \"#utility.yul\":8410:8433   */\n      calldataload\n        /* \"#utility.yul\":8452:8470   */\n      0xffffffffffffffff\n        /* \"#utility.yul\":8493:8495   */\n      dup1\n        /* \"#utility.yul\":8485:8491   */\n      dup3\n        /* \"#utility.yul\":8482:8496   */\n      gt\n        /* \"#utility.yul\":8479:8513   */\n      iszero\n      tag_437\n      jumpi\n        /* \"#utility.yul\":8509:8510   */\n      0x00\n        /* \"#utility.yul\":8506:8507   */\n      dup1\n        /* \"#utility.yul\":8499:8511   */\n      revert\n        /* \"#utility.yul\":8479:8513   */\n    tag_437:\n        /* \"#utility.yul\":8532:8593   */\n      tag_438\n        /* \"#utility.yul\":8585:8592   */\n      dup7\n        /* \"#utility.yul\":8576:8582   */\n      dup4\n        /* \"#utility.yul\":8565:8574   */\n      dup8\n        /* \"#utility.yul\":8561:8583   */\n      add\n        /* \"#utility.yul\":8532:8593   */\n      tag_343\n      jump\t// in\n    tag_438:\n        /* \"#utility.yul\":8522:8593   */\n      swap4\n      pop\n        /* \"#utility.yul\":8646:8648   */\n      0x20\n        /* \"#utility.yul\":8635:8644   */\n      dup6\n        /* \"#utility.yul\":8631:8649   */\n      add\n        /* \"#utility.yul\":8618:8650   */\n      calldataload\n        /* \"#utility.yul\":8602:8650   */\n      swap2\n      pop\n        /* \"#utility.yul\":8675:8677   */\n      dup1\n        /* \"#utility.yul\":8665:8673   */\n      dup3\n        /* \"#utility.yul\":8662:8678   */\n      gt\n        /* \"#utility.yul\":8659:8695   */\n      iszero\n      tag_422\n      jumpi\n        /* \"#utility.yul\":8691:8692   */\n      0x00\n        /* \"#utility.yul\":8688:8689   */\n      dup1\n        /* \"#utility.yul\":8681:8693   */\n      revert\n        /* \"#utility.yul\":8788:9048   */\n    tag_80:\n        /* \"#utility.yul\":8856:8862   */\n      0x00\n        /* \"#utility.yul\":8864:8870   */\n      dup1\n        /* \"#utility.yul\":8917:8919   */\n      0x40\n        /* \"#utility.yul\":8905:8914   */\n      dup4\n        /* \"#utility.yul\":8896:8903   */\n      dup6\n        /* \"#utility.yul\":8892:8915   */\n      sub\n        /* \"#utility.yul\":8888:8920   */\n      slt\n        /* \"#utility.yul\":8885:8937   */\n      iszero\n      tag_442\n      jumpi\n        /* \"#utility.yul\":8933:8934   */\n      0x00\n        /* \"#utility.yul\":8930:8931   */\n      dup1\n        /* \"#utility.yul\":8923:8935   */\n      revert\n        /* \"#utility.yul\":8885:8937   */\n    tag_442:\n        /* \"#utility.yul\":8956:8985   */\n      tag_443\n        /* \"#utility.yul\":8975:8984   */\n      dup4\n        /* \"#utility.yul\":8956:8985   */\n      tag_337\n      jump\t// in\n    tag_443:\n        /* \"#utility.yul\":8946:8985   */\n      swap2\n      pop\n        /* \"#utility.yul\":9004:9042   */\n      tag_444\n        /* \"#utility.yul\":9038:9040   */\n      0x20\n        /* \"#utility.yul\":9027:9036   */\n      dup5\n        /* \"#utility.yul\":9023:9041   */\n      add\n        /* \"#utility.yul\":9004:9042   */\n      tag_337\n      jump\t// in\n    tag_444:\n        /* \"#utility.yul\":8994:9042   */\n      swap1\n      pop\n        /* \"#utility.yul\":8788:9048   */\n      swap3\n      pop\n      swap3\n      swap1\n      pop\n      jump\t// out\n        /* \"#utility.yul\":9053:9659   */\n    tag_85:\n        /* \"#utility.yul\":9157:9163   */\n      0x00\n        /* \"#utility.yul\":9165:9171   */\n      dup1\n        /* \"#utility.yul\":9173:9179   */\n      0x00\n        /* \"#utility.yul\":9181:9187   */\n      dup1\n        /* \"#utility.yul\":9189:9195   */\n      0x00\n        /* \"#utility.yul\":9242:9245   */\n      0xa0\n        /* \"#utility.yul\":9230:9239   */\n      dup7\n        /* \"#utility.yul\":9221:9228   */\n      dup9\n        /* \"#utility.yul\":9217:9240   */\n      sub\n        /* \"#utility.yul\":9213:9246   */\n      slt\n        /* \"#utility.yul\":9210:9263   */\n      iszero\n      tag_446\n      jumpi\n        /* \"#utility.yul\":9259:9260   */\n      0x00\n        /* \"#utility.yul\":9256:9257   */\n      dup1\n        /* \"#utility.yul\":9249:9261   */\n      revert\n        /* \"#utility.yul\":9210:9263   */\n    tag_446:\n        /* \"#utility.yul\":9282:9311   */\n      tag_447\n        /* \"#utility.yul\":9301:9310   */\n      dup7\n        /* \"#utility.yul\":9282:9311   */\n      tag_337\n      jump\t// in\n    tag_447:\n        /* \"#utility.yul\":9272:9311   */\n      swap5\n      pop\n        /* \"#utility.yul\":9330:9368   */\n      tag_448\n        /* \"#utility.yul\":9364:9366   */\n      0x20\n        /* \"#utility.yul\":9353:9362   */\n      dup8\n        /* \"#utility.yul\":9349:9367   */\n      add\n        /* \"#utility.yul\":9330:9368   */\n      tag_337\n      jump\t// in\n    tag_448:\n        /* \"#utility.yul\":9320:9368   */\n      swap4\n      pop\n        /* \"#utility.yul\":9415:9417   */\n      0x40\n        /* \"#utility.yul\":9404:9413   */\n      dup7\n        /* \"#utility.yul\":9400:9418   */\n      add\n        /* \"#utility.yul\":9387:9419   */\n      calldataload\n        /* \"#utility.yul\":9377:9419   */\n      swap3\n      pop\n        /* \"#utility.yul\":9466:9468   */\n      0x60\n        /* \"#utility.yul\":9455:9464   */\n      dup7\n        /* \"#utility.yul\":9451:9469   */\n      add\n        /* \"#utility.yul\":9438:9470   */\n      calldataload\n        /* \"#utility.yul\":9428:9470   */\n      swap2\n      pop\n        /* \"#utility.yul\":9521:9524   */\n      0x80\n        /* \"#utility.yul\":9510:9519   */\n      dup7\n        /* \"#utility.yul\":9506:9525   */\n      add\n        /* \"#utility.yul\":9493:9526   */\n      calldataload\n        /* \"#utility.yul\":9549:9567   */\n      0xffffffffffffffff\n        /* \"#utility.yul\":9541:9547   */\n      dup2\n        /* \"#utility.yul\":9538:9568   */\n      gt\n        /* \"#utility.yul\":9535:9585   */\n      iszero\n      tag_449\n      jumpi\n        /* \"#utility.yul\":9581:9582   */\n      0x00\n        /* \"#utility.yul\":9578:9579   */\n      dup1\n        /* \"#utility.yul\":9571:9583   */\n      revert\n        /* \"#utility.yul\":9535:9585   */\n    tag_449:\n        /* \"#utility.yul\":9604:9653   */\n      tag_410\n        /* \"#utility.yul\":9645:9652   */\n      dup9\n        /* \"#utility.yul\":9636:9642   */\n      dup3\n        /* \"#utility.yul\":9625:9634   */\n      dup10\n        /* \"#utility.yul\":9621:9643   */\n      add\n        /* \"#utility.yul\":9604:9653   */\n      tag_344\n      jump\t// in\n        /* \"#utility.yul\":9664:9850   */\n    tag_89:\n        /* \"#utility.yul\":9723:9729   */\n      0x00\n        /* \"#utility.yul\":9776:9778   */\n      0x20\n        /* \"#utility.yul\":9764:9773   */\n      dup3\n        /* \"#utility.yul\":9755:9762   */\n      dup5\n        /* \"#utility.yul\":9751:9774   */\n      sub\n        /* \"#utility.yul\":9747:9779   */\n      slt\n        /* \"#utility.yul\":9744:9796   */\n      iszero\n      tag_452\n      jumpi\n        /* \"#utility.yul\":9792:9793   */\n      0x00\n        /* \"#utility.yul\":9789:9790   */\n      dup1\n        /* \"#utility.yul\":9782:9794   */\n      revert\n        /* \"#utility.yul\":9744:9796   */\n    tag_452:\n        /* \"#utility.yul\":9815:9844   */\n      tag_361\n        /* \"#utility.yul\":9834:9843   */\n      dup3\n        /* \"#utility.yul\":9815:9844   */\n      tag_337\n      jump\t// in\n        /* \"#utility.yul\":10266:10646   */\n    tag_107:\n        /* \"#utility.yul\":10345:10346   */\n      0x01\n        /* \"#utility.yul\":10341:10353   */\n      dup2\n      dup2\n      shr\n      swap1\n        /* \"#utility.yul\":10388:10400   */\n      dup3\n      and\n      dup1\n        /* \"#utility.yul\":10409:10470   */\n      tag_456\n      jumpi\n        /* \"#utility.yul\":10463:10467   */\n      0x7f\n        /* \"#utility.yul\":10455:10461   */\n      dup3\n        /* \"#utility.yul\":10451:10468   */\n      and\n        /* \"#utility.yul\":10441:10468   */\n      swap2\n      pop\n        /* \"#utility.yul\":10409:10470   */\n    tag_456:\n        /* \"#utility.yul\":10516:10518   */\n      0x20\n        /* \"#utility.yul\":10508:10514   */\n      dup3\n        /* \"#utility.yul\":10505:10519   */\n      lt\n        /* \"#utility.yul\":10485:10503   */\n      dup2\n        /* \"#utility.yul\":10482:10520   */\n      sub\n        /* \"#utility.yul\":10479:10640   */\n      tag_457\n      jumpi\n        /* \"#utility.yul\":10562:10572   */\n      0x4e487b71\n        /* \"#utility.yul\":10557:10560   */\n      0xe0\n        /* \"#utility.yul\":10553:10573   */\n      shl\n        /* \"#utility.yul\":10550:10551   */\n      0x00\n        /* \"#utility.yul\":10543:10574   */\n      mstore\n        /* \"#utility.yul\":10597:10601   */\n      0x22\n        /* \"#utility.yul\":10594:10595   */\n      0x04\n        /* \"#utility.yul\":10587:10602   */\n      mstore\n        /* \"#utility.yul\":10625:10629   */\n      0x24\n        /* \"#utility.yul\":10622:10623   */\n      0x00\n        /* \"#utility.yul\":10615:10630   */\n      revert\n        /* \"#utility.yul\":10479:10640   */\n    tag_457:\n      pop\n        /* \"#utility.yul\":10266:10646   */\n      swap2\n      swap1\n      pop\n      jump\t// out\n        /* \"#utility.yul\":10651:11061   */\n    tag_131:\n        /* \"#utility.yul\":10853:10855   */\n      0x20\n        /* \"#utility.yul\":10835:10856   */\n      dup1\n      dup3\n      mstore\n        /* \"#utility.yul\":10892:10894   */\n      0x2e\n        /* \"#utility.yul\":10872:10890   */\n      swap1\n      dup3\n      add\n        /* \"#utility.yul\":10865:10895   */\n      mstore\n        /* \"#utility.yul\":10931:10965   */\n      0x455243313135353a2063616c6c6572206973206e6f7420746f6b656e206f776e\n        /* \"#utility.yul\":10926:10928   */\n      0x40\n        /* \"#utility.yul\":10911:10929   */\n      dup3\n      add\n        /* \"#utility.yul\":10904:10966   */\n      mstore\n      shl(0x92, 0x195c881bdc88185c1c1c9bdd9959)\n        /* \"#utility.yul\":10997:10999   */\n      0x60\n        /* \"#utility.yul\":10982:11000   */\n      dup3\n      add\n        /* \"#utility.yul\":10975:11019   */\n      mstore\n        /* \"#utility.yul\":11051:11054   */\n      0x80\n        /* \"#utility.yul\":11036:11055   */\n      add\n      swap1\n        /* \"#utility.yul\":10651:11061   */\n      jump\t// out\n        /* \"#utility.yul\":11476:11603   */\n    tag_148:\n        /* \"#utility.yul\":11537:11547   */\n      0x4e487b71\n        /* \"#utility.yul\":11532:11535   */\n      0xe0\n        /* \"#utility.yul\":11528:11548   */\n      shl\n        /* \"#utility.yul\":11525:11526   */\n      0x00\n        /* \"#utility.yul\":11518:11549   */\n      mstore\n        /* \"#utility.yul\":11568:11572   */\n      0x32\n        /* \"#utility.yul\":11565:11566   */\n      0x04\n        /* \"#utility.yul\":11558:11573   */\n      mstore\n        /* \"#utility.yul\":11592:11596   */\n      0x24\n        /* \"#utility.yul\":11589:11590   */\n      0x00\n        /* \"#utility.yul\":11582:11597   */\n      revert\n        /* \"#utility.yul\":11608:11735   */\n    tag_346:\n        /* \"#utility.yul\":11669:11679   */\n      0x4e487b71\n        /* \"#utility.yul\":11664:11667   */\n      0xe0\n        /* \"#utility.yul\":11660:11680   */\n      shl\n        /* \"#utility.yul\":11657:11658   */\n      0x00\n        /* \"#utility.yul\":11650:11681   */\n      mstore\n        /* \"#utility.yul\":11700:11704   */\n      0x11\n        /* \"#utility.yul\":11697:11698   */\n      0x04\n        /* \"#utility.yul\":11690:11705   */\n      mstore\n        /* \"#utility.yul\":11724:11728   */\n      0x24\n        /* \"#utility.yul\":11721:11722   */\n      0x00\n        /* \"#utility.yul\":11714:11729   */\n      revert\n        /* \"#utility.yul\":11740:11875   */\n    tag_154:\n        /* \"#utility.yul\":11779:11782   */\n      0x00\n        /* \"#utility.yul\":11800:11817   */\n      0x01\n      dup3\n      add\n        /* \"#utility.yul\":11797:11840   */\n      tag_464\n      jumpi\n        /* \"#utility.yul\":11820:11838   */\n      tag_464\n      tag_346\n      jump\t// in\n    tag_464:\n      pop\n        /* \"#utility.yul\":11867:11868   */\n      0x01\n        /* \"#utility.yul\":11856:11869   */\n      add\n      swap1\n        /* \"#utility.yul\":11740:11875   */\n      jump\t// out\n        /* \"#utility.yul\":12006:12551   */\n    tag_348:\n        /* \"#utility.yul\":12108:12110   */\n      0x1f\n        /* \"#utility.yul\":12103:12106   */\n      dup3\n        /* \"#utility.yul\":12100:12111   */\n      gt\n        /* \"#utility.yul\":12097:12545   */\n      iszero\n      tag_467\n      jumpi\n        /* \"#utility.yul\":12144:12145   */\n      0x00\n        /* \"#utility.yul\":12169:12174   */\n      dup2\n        /* \"#utility.yul\":12165:12167   */\n      dup2\n        /* \"#utility.yul\":12158:12175   */\n      mstore\n        /* \"#utility.yul\":12214:12218   */\n      0x20\n        /* \"#utility.yul\":12210:12212   */\n      dup2\n        /* \"#utility.yul\":12200:12219   */\n      keccak256\n        /* \"#utility.yul\":12284:12286   */\n      0x1f\n        /* \"#utility.yul\":12272:12282   */\n      dup6\n        /* \"#utility.yul\":12268:12287   */\n      add\n        /* \"#utility.yul\":12265:12266   */\n      0x05\n        /* \"#utility.yul\":12261:12288   */\n      shr\n        /* \"#utility.yul\":12255:12259   */\n      dup2\n        /* \"#utility.yul\":12251:12289   */\n      add\n        /* \"#utility.yul\":12320:12324   */\n      0x20\n        /* \"#utility.yul\":12308:12318   */\n      dup7\n        /* \"#utility.yul\":12305:12325   */\n      lt\n        /* \"#utility.yul\":12302:12349   */\n      iszero\n      tag_468\n      jumpi\n      pop\n        /* \"#utility.yul\":12343:12347   */\n      dup1\n        /* \"#utility.yul\":12302:12349   */\n    tag_468:\n        /* \"#utility.yul\":12398:12400   */\n      0x1f\n        /* \"#utility.yul\":12393:12396   */\n      dup6\n        /* \"#utility.yul\":12389:12401   */\n      add\n        /* \"#utility.yul\":12386:12387   */\n      0x05\n        /* \"#utility.yul\":12382:12402   */\n      shr\n        /* \"#utility.yul\":12376:12380   */\n      dup3\n        /* \"#utility.yul\":12372:12403   */\n      add\n        /* \"#utility.yul\":12362:12403   */\n      swap2\n      pop\n        /* \"#utility.yul\":12453:12535   */\n    tag_469:\n        /* \"#utility.yul\":12471:12473   */\n      dup2\n        /* \"#utility.yul\":12464:12469   */\n      dup2\n        /* \"#utility.yul\":12461:12474   */\n      lt\n        /* \"#utility.yul\":12453:12535   */\n      iszero\n      tag_244\n      jumpi\n        /* \"#utility.yul\":12516:12533   */\n      dup3\n      dup2\n      sstore\n        /* \"#utility.yul\":12497:12498   */\n      0x01\n        /* \"#utility.yul\":12486:12499   */\n      add\n        /* \"#utility.yul\":12453:12535   */\n      jump(tag_469)\n        /* \"#utility.yul\":12097:12545   */\n    tag_467:\n        /* \"#utility.yul\":12006:12551   */\n      pop\n      pop\n      pop\n      jump\t// out\n        /* \"#utility.yul\":12727:14079   */\n    tag_169:\n        /* \"#utility.yul\":12853:12856   */\n      dup2\n        /* \"#utility.yul\":12847:12857   */\n      mload\n        /* \"#utility.yul\":12880:12898   */\n      0xffffffffffffffff\n        /* \"#utility.yul\":12872:12878   */\n      dup2\n        /* \"#utility.yul\":12869:12899   */\n      gt\n        /* \"#utility.yul\":12866:12922   */\n      iszero\n      tag_475\n      jumpi\n        /* \"#utility.yul\":12902:12920   */\n      tag_475\n      tag_140\n      jump\t// in\n    tag_475:\n        /* \"#utility.yul\":12931:13028   */\n      tag_476\n        /* \"#utility.yul\":13021:13027   */\n      dup2\n        /* \"#utility.yul\":12981:13019   */\n      tag_477\n        /* \"#utility.yul\":13013:13017   */\n      dup5\n        /* \"#utility.yul\":13007:13018   */\n      sload\n        /* \"#utility.yul\":12981:13019   */\n      tag_107\n      jump\t// in\n    tag_477:\n        /* \"#utility.yul\":12975:12979   */\n      dup5\n        /* \"#utility.yul\":12931:13028   */\n      tag_348\n      jump\t// in\n    tag_476:\n        /* \"#utility.yul\":13083:13087   */\n      0x20\n      dup1\n        /* \"#utility.yul\":13147:13149   */\n      0x1f\n        /* \"#utility.yul\":13136:13150   */\n      dup4\n      gt\n        /* \"#utility.yul\":13164:13165   */\n      0x01\n        /* \"#utility.yul\":13159:13822   */\n      dup2\n      eq\n      tag_479\n      jumpi\n        /* \"#utility.yul\":13866:13867   */\n      0x00\n        /* \"#utility.yul\":13883:13889   */\n      dup5\n        /* \"#utility.yul\":13880:13969   */\n      iszero\n      tag_480\n      jumpi\n      pop\n        /* \"#utility.yul\":13935:13954   */\n      dup6\n      dup4\n      add\n        /* \"#utility.yul\":13929:13955   */\n      mload\n        /* \"#utility.yul\":13880:13969   */\n    tag_480:\n      not(0x00)\n        /* \"#utility.yul\":12684:12685   */\n      0x03\n        /* \"#utility.yul\":12680:12691   */\n      dup7\n      swap1\n      shl\n        /* \"#utility.yul\":12676:12700   */\n      shr\n        /* \"#utility.yul\":12672:12701   */\n      not\n        /* \"#utility.yul\":12662:12702   */\n      and\n        /* \"#utility.yul\":12708:12709   */\n      0x01\n        /* \"#utility.yul\":12704:12715   */\n      dup6\n      swap1\n      shl\n        /* \"#utility.yul\":12659:12716   */\n      or\n        /* \"#utility.yul\":13982:14063   */\n      dup6\n      sstore\n        /* \"#utility.yul\":13129:14073   */\n      jump(tag_244)\n        /* \"#utility.yul\":13159:13822   */\n    tag_479:\n        /* \"#utility.yul\":11953:11954   */\n      0x00\n        /* \"#utility.yul\":11946:11960   */\n      dup6\n      dup2\n      mstore\n        /* \"#utility.yul\":11990:11994   */\n      0x20\n        /* \"#utility.yul\":11977:11995   */\n      dup2\n      keccak256\n      not(0x1f)\n        /* \"#utility.yul\":13195:13215   */\n      dup7\n      and\n      swap2\n        /* \"#utility.yul\":13313:13549   */\n    tag_483:\n        /* \"#utility.yul\":13327:13334   */\n      dup3\n        /* \"#utility.yul\":13324:13325   */\n      dup2\n        /* \"#utility.yul\":13321:13335   */\n      lt\n        /* \"#utility.yul\":13313:13549   */\n      iszero\n      tag_485\n      jumpi\n        /* \"#utility.yul\":13416:13435   */\n      dup9\n      dup7\n      add\n        /* \"#utility.yul\":13410:13436   */\n      mload\n        /* \"#utility.yul\":13395:13437   */\n      dup3\n      sstore\n        /* \"#utility.yul\":13508:13535   */\n      swap5\n      dup5\n      add\n      swap5\n        /* \"#utility.yul\":13476:13477   */\n      0x01\n        /* \"#utility.yul\":13464:13478   */\n      swap1\n      swap2\n      add\n      swap1\n        /* \"#utility.yul\":13343:13362   */\n      dup5\n      add\n        /* \"#utility.yul\":13313:13549   */\n      jump(tag_483)\n    tag_485:\n        /* \"#utility.yul\":13317:13320   */\n      pop\n        /* \"#utility.yul\":13577:13583   */\n      dup6\n        /* \"#utility.yul\":13568:13575   */\n      dup3\n        /* \"#utility.yul\":13565:13584   */\n      lt\n        /* \"#utility.yul\":13562:13763   */\n      iszero\n      tag_486\n      jumpi\n        /* \"#utility.yul\":13638:13657   */\n      dup8\n      dup6\n      add\n        /* \"#utility.yul\":13632:13658   */\n      mload\n      not(0x00)\n        /* \"#utility.yul\":13721:13722   */\n      0x03\n        /* \"#utility.yul\":13717:13731   */\n      dup9\n      swap1\n      shl\n        /* \"#utility.yul\":13733:13736   */\n      0xf8\n        /* \"#utility.yul\":13713:13737   */\n      and\n        /* \"#utility.yul\":13709:13746   */\n      shr\n        /* \"#utility.yul\":13705:13747   */\n      not\n        /* \"#utility.yul\":13690:13748   */\n      and\n        /* \"#utility.yul\":13675:13749   */\n      dup2\n      sstore\n        /* \"#utility.yul\":13562:13763   */\n    tag_486:\n      pop\n      pop\n      pop\n      pop\n      pop\n        /* \"#utility.yul\":13809:13810   */\n      0x01\n        /* \"#utility.yul\":13793:13807   */\n      swap1\n      dup2\n      shl\n        /* \"#utility.yul\":13789:13811   */\n      add\n        /* \"#utility.yul\":13776:13812   */\n      swap1\n      sstore\n      pop\n        /* \"#utility.yul\":12727:14079   */\n      jump\t// out\n        /* \"#utility.yul\":14852:15249   */\n    tag_204:\n        /* \"#utility.yul\":15054:15056   */\n      0x20\n        /* \"#utility.yul\":15036:15057   */\n      dup1\n      dup3\n      mstore\n        /* \"#utility.yul\":15093:15095   */\n      0x21\n        /* \"#utility.yul\":15073:15091   */\n      swap1\n      dup3\n      add\n        /* \"#utility.yul\":15066:15096   */\n      mstore\n        /* \"#utility.yul\":15132:15166   */\n      0x455243313135353a206d696e7420746f20746865207a65726f20616464726573\n        /* \"#utility.yul\":15127:15129   */\n      0x40\n        /* \"#utility.yul\":15112:15130   */\n      dup3\n      add\n        /* \"#utility.yul\":15105:15167   */\n      mstore\n      shl(0xf8, 0x73)\n        /* \"#utility.yul\":15198:15200   */\n      0x60\n        /* \"#utility.yul\":15183:15201   */\n      dup3\n      add\n        /* \"#utility.yul\":15176:15207   */\n      mstore\n        /* \"#utility.yul\":15239:15242   */\n      0x80\n        /* \"#utility.yul\":15224:15243   */\n      add\n      swap1\n        /* \"#utility.yul\":14852:15249   */\n      jump\t// out\n        /* \"#utility.yul\":15254:15379   */\n    tag_212:\n        /* \"#utility.yul\":15319:15328   */\n      dup1\n      dup3\n      add\n        /* \"#utility.yul\":15340:15350   */\n      dup1\n      dup3\n      gt\n        /* \"#utility.yul\":15337:15373   */\n      iszero\n      tag_91\n      jumpi\n        /* \"#utility.yul\":15353:15371   */\n      tag_91\n      tag_346\n      jump\t// in\n        /* \"#utility.yul\":15637:16041   */\n    tag_223:\n        /* \"#utility.yul\":15839:15841   */\n      0x20\n        /* \"#utility.yul\":15821:15842   */\n      dup1\n      dup3\n      mstore\n        /* \"#utility.yul\":15878:15880   */\n      0x28\n        /* \"#utility.yul\":15858:15876   */\n      swap1\n      dup3\n      add\n        /* \"#utility.yul\":15851:15881   */\n      mstore\n        /* \"#utility.yul\":15917:15951   */\n      0x455243313135353a2069647320616e6420616d6f756e7473206c656e67746820\n        /* \"#utility.yul\":15912:15914   */\n      0x40\n        /* \"#utility.yul\":15897:15915   */\n      dup3\n      add\n        /* \"#utility.yul\":15890:15952   */\n      mstore\n      shl(0xc3, 0x0dad2e6dac2e8c6d)\n        /* \"#utility.yul\":15983:15985   */\n      0x60\n        /* \"#utility.yul\":15968:15986   */\n      dup3\n      add\n        /* \"#utility.yul\":15961:15999   */\n      mstore\n        /* \"#utility.yul\":16031:16034   */\n      0x80\n        /* \"#utility.yul\":16016:16035   */\n      add\n      swap1\n        /* \"#utility.yul\":15637:16041   */\n      jump\t// out\n        /* \"#utility.yul\":16046:16447   */\n    tag_226:\n        /* \"#utility.yul\":16248:16250   */\n      0x20\n        /* \"#utility.yul\":16230:16251   */\n      dup1\n      dup3\n      mstore\n        /* \"#utility.yul\":16287:16289   */\n      0x25\n        /* \"#utility.yul\":16267:16285   */\n      swap1\n      dup3\n      add\n        /* \"#utility.yul\":16260:16290   */\n      mstore\n        /* \"#utility.yul\":16326:16360   */\n      0x455243313135353a207472616e7366657220746f20746865207a65726f206164\n        /* \"#utility.yul\":16321:16323   */\n      0x40\n        /* \"#utility.yul\":16306:16324   */\n      dup3\n      add\n        /* \"#utility.yul\":16299:16361   */\n      mstore\n      shl(0xd8, 0x6472657373)\n        /* \"#utility.yul\":16392:16394   */\n      0x60\n        /* \"#utility.yul\":16377:16395   */\n      dup3\n      add\n        /* \"#utility.yul\":16370:16405   */\n      mstore\n        /* \"#utility.yul\":16437:16440   */\n      0x80\n        /* \"#utility.yul\":16422:16441   */\n      add\n      swap1\n        /* \"#utility.yul\":16046:16447   */\n      jump\t// out\n        /* \"#utility.yul\":16452:16858   */\n    tag_238:\n        /* \"#utility.yul\":16654:16656   */\n      0x20\n        /* \"#utility.yul\":16636:16657   */\n      dup1\n      dup3\n      mstore\n        /* \"#utility.yul\":16693:16695   */\n      0x2a\n        /* \"#utility.yul\":16673:16691   */\n      swap1\n      dup3\n      add\n        /* \"#utility.yul\":16666:16696   */\n      mstore\n        /* \"#utility.yul\":16732:16766   */\n      0x455243313135353a20696e73756666696369656e742062616c616e636520666f\n        /* \"#utility.yul\":16727:16729   */\n      0x40\n        /* \"#utility.yul\":16712:16730   */\n      dup3\n      add\n        /* \"#utility.yul\":16705:16767   */\n      mstore\n      shl(0xb1, 0x39103a3930b739b332b9)\n        /* \"#utility.yul\":16798:16800   */\n      0x60\n        /* \"#utility.yul\":16783:16801   */\n      dup3\n      add\n        /* \"#utility.yul\":16776:16816   */\n      mstore\n        /* \"#utility.yul\":16848:16851   */\n      0x80\n        /* \"#utility.yul\":16833:16852   */\n      add\n      swap1\n        /* \"#utility.yul\":16452:16858   */\n      jump\t// out\n        /* \"#utility.yul\":16863:17328   */\n    tag_242:\n        /* \"#utility.yul\":17120:17122   */\n      0x40\n        /* \"#utility.yul\":17109:17118   */\n      dup2\n        /* \"#utility.yul\":17102:17123   */\n      mstore\n        /* \"#utility.yul\":17083:17087   */\n      0x00\n        /* \"#utility.yul\":17146:17202   */\n      tag_498\n        /* \"#utility.yul\":17198:17200   */\n      0x40\n        /* \"#utility.yul\":17187:17196   */\n      dup4\n        /* \"#utility.yul\":17183:17201   */\n      add\n        /* \"#utility.yul\":17175:17181   */\n      dup6\n        /* \"#utility.yul\":17146:17202   */\n      tag_345\n      jump\t// in\n    tag_498:\n        /* \"#utility.yul\":17250:17259   */\n      dup3\n        /* \"#utility.yul\":17242:17248   */\n      dup2\n        /* \"#utility.yul\":17238:17260   */\n      sub\n        /* \"#utility.yul\":17233:17235   */\n      0x20\n        /* \"#utility.yul\":17222:17231   */\n      dup5\n        /* \"#utility.yul\":17218:17236   */\n      add\n        /* \"#utility.yul\":17211:17261   */\n      mstore\n        /* \"#utility.yul\":17278:17322   */\n      tag_499\n        /* \"#utility.yul\":17315:17321   */\n      dup2\n        /* \"#utility.yul\":17307:17313   */\n      dup6\n        /* \"#utility.yul\":17278:17322   */\n      tag_345\n      jump\t// in\n    tag_499:\n        /* \"#utility.yul\":17270:17322   */\n      swap6\n        /* \"#utility.yul\":16863:17328   */\n      swap5\n      pop\n      pop\n      pop\n      pop\n      pop\n      jump\t// out\n        /* \"#utility.yul\":17743:18304   */\n    tag_297:\n      sub(shl(0xa0, 0x01), 0x01)\n        /* \"#utility.yul\":18040:18055   */\n      dup7\n      dup2\n      and\n        /* \"#utility.yul\":18022:18056   */\n      dup3\n      mstore\n        /* \"#utility.yul\":18092:18107   */\n      dup6\n      and\n        /* \"#utility.yul\":18087:18089   */\n      0x20\n        /* \"#utility.yul\":18072:18090   */\n      dup3\n      add\n        /* \"#utility.yul\":18065:18108   */\n      mstore\n        /* \"#utility.yul\":18139:18141   */\n      0x40\n        /* \"#utility.yul\":18124:18142   */\n      dup2\n      add\n        /* \"#utility.yul\":18117:18151   */\n      dup5\n      swap1\n      mstore\n        /* \"#utility.yul\":18182:18184   */\n      0x60\n        /* \"#utility.yul\":18167:18185   */\n      dup2\n      add\n        /* \"#utility.yul\":18160:18194   */\n      dup4\n      swap1\n      mstore\n        /* \"#utility.yul\":18002:18005   */\n      0xa0\n        /* \"#utility.yul\":18225:18228   */\n      0x80\n        /* \"#utility.yul\":18210:18229   */\n      dup3\n      add\n        /* \"#utility.yul\":18203:18235   */\n      dup2\n      swap1\n      mstore\n        /* \"#utility.yul\":17965:17969   */\n      0x00\n      swap1\n        /* \"#utility.yul\":18252:18298   */\n      tag_502\n      swap1\n        /* \"#utility.yul\":18278:18297   */\n      dup4\n      add\n        /* \"#utility.yul\":18270:18276   */\n      dup5\n        /* \"#utility.yul\":18252:18298   */\n      tag_341\n      jump\t// in\n    tag_502:\n        /* \"#utility.yul\":18244:18298   */\n      swap8\n        /* \"#utility.yul\":17743:18304   */\n      swap7\n      pop\n      pop\n      pop\n      pop\n      pop\n      pop\n      pop\n      jump\t// out\n        /* \"#utility.yul\":18309:18558   */\n    tag_300:\n        /* \"#utility.yul\":18378:18384   */\n      0x00\n        /* \"#utility.yul\":18431:18433   */\n      0x20\n        /* \"#utility.yul\":18419:18428   */\n      dup3\n        /* \"#utility.yul\":18410:18417   */\n      dup5\n        /* \"#utility.yul\":18406:18429   */\n      sub\n        /* \"#utility.yul\":18402:18434   */\n      slt\n        /* \"#utility.yul\":18399:18451   */\n      iszero\n      tag_504\n      jumpi\n        /* \"#utility.yul\":18447:18448   */\n      0x00\n        /* \"#utility.yul\":18444:18445   */\n      dup1\n        /* \"#utility.yul\":18437:18449   */\n      revert\n        /* \"#utility.yul\":18399:18451   */\n    tag_504:\n        /* \"#utility.yul\":18479:18488   */\n      dup2\n        /* \"#utility.yul\":18473:18489   */\n      mload\n        /* \"#utility.yul\":18498:18528   */\n      tag_361\n        /* \"#utility.yul\":18522:18527   */\n      dup2\n        /* \"#utility.yul\":18498:18528   */\n      tag_338\n      jump\t// in\n        /* \"#utility.yul\":18563:18742   */\n    tag_306:\n        /* \"#utility.yul\":18598:18601   */\n      0x00\n        /* \"#utility.yul\":18640:18641   */\n      0x03\n        /* \"#utility.yul\":18622:18638   */\n      returndatasize\n        /* \"#utility.yul\":18619:18642   */\n      gt\n        /* \"#utility.yul\":18616:18736   */\n      iszero\n      tag_507\n      jumpi\n        /* \"#utility.yul\":18686:18687   */\n      0x04\n        /* \"#utility.yul\":18683:18684   */\n      0x00\n        /* \"#utility.yul\":18680:18681   */\n      dup1\n        /* \"#utility.yul\":18665:18688   */\n      returndatacopy\n      pop\n        /* \"#utility.yul\":18723:18724   */\n      0x00\n        /* \"#utility.yul\":18717:18725   */\n      mload\n        /* \"#utility.yul\":18712:18715   */\n      0xe0\n        /* \"#utility.yul\":18708:18726   */\n      shr\n        /* \"#utility.yul\":18616:18736   */\n    tag_507:\n        /* \"#utility.yul\":18563:18742   */\n      swap1\n      jump\t// out\n        /* \"#utility.yul\":18747:19418   */\n    tag_308:\n        /* \"#utility.yul\":18786:18789   */\n      0x00\n        /* \"#utility.yul\":18828:18832   */\n      0x44\n        /* \"#utility.yul\":18810:18826   */\n      returndatasize\n        /* \"#utility.yul\":18807:18833   */\n      lt\n        /* \"#utility.yul\":18804:18843   */\n      iszero\n      tag_509\n      jumpi\n        /* \"#utility.yul\":18747:19418   */\n      swap1\n      jump\t// out\n        /* \"#utility.yul\":18804:18843   */\n    tag_509:\n        /* \"#utility.yul\":18870:18872   */\n      0x40\n        /* \"#utility.yul\":18864:18873   */\n      mload\n      not(0x03)\n        /* \"#utility.yul\":18935:18951   */\n      returndatasize\n        /* \"#utility.yul\":18931:18956   */\n      dup2\n      add\n        /* \"#utility.yul\":18928:18929   */\n      0x04\n        /* \"#utility.yul\":18864:18873   */\n      dup4\n        /* \"#utility.yul\":18907:18957   */\n      returndatacopy\n        /* \"#utility.yul\":18986:18990   */\n      dup2\n        /* \"#utility.yul\":18980:18991   */\n      mload\n        /* \"#utility.yul\":19010:19026   */\n      returndatasize\n        /* \"#utility.yul\":19045:19063   */\n      0xffffffffffffffff\n        /* \"#utility.yul\":19116:19118   */\n      dup2\n        /* \"#utility.yul\":19109:19113   */\n      0x24\n        /* \"#utility.yul\":19101:19107   */\n      dup5\n        /* \"#utility.yul\":19097:19114   */\n      add\n        /* \"#utility.yul\":19094:19119   */\n      gt\n        /* \"#utility.yul\":19089:19091   */\n      dup2\n        /* \"#utility.yul\":19081:19087   */\n      dup5\n        /* \"#utility.yul\":19078:19092   */\n      gt\n        /* \"#utility.yul\":19075:19120   */\n      or\n        /* \"#utility.yul\":19072:19130   */\n      iszero\n      tag_510\n      jumpi\n        /* \"#utility.yul\":19123:19128   */\n      pop\n      pop\n      pop\n      pop\n      pop\n        /* \"#utility.yul\":18747:19418   */\n      swap1\n      jump\t// out\n        /* \"#utility.yul\":19072:19130   */\n    tag_510:\n        /* \"#utility.yul\":19160:19166   */\n      dup3\n        /* \"#utility.yul\":19154:19158   */\n      dup6\n        /* \"#utility.yul\":19150:19167   */\n      add\n        /* \"#utility.yul\":19139:19167   */\n      swap2\n      pop\n        /* \"#utility.yul\":19196:19199   */\n      dup2\n        /* \"#utility.yul\":19190:19200   */\n      mload\n        /* \"#utility.yul\":19223:19225   */\n      dup2\n        /* \"#utility.yul\":19215:19221   */\n      dup2\n        /* \"#utility.yul\":19212:19226   */\n      gt\n        /* \"#utility.yul\":19209:19236   */\n      iszero\n      tag_511\n      jumpi\n        /* \"#utility.yul\":19229:19234   */\n      pop\n      pop\n      pop\n      pop\n      pop\n      pop\n        /* \"#utility.yul\":18747:19418   */\n      swap1\n      jump\t// out\n        /* \"#utility.yul\":19209:19236   */\n    tag_511:\n        /* \"#utility.yul\":19313:19315   */\n      dup5\n        /* \"#utility.yul\":19294:19310   */\n      returndatasize\n        /* \"#utility.yul\":19288:19292   */\n      dup8\n        /* \"#utility.yul\":19284:19311   */\n      add\n        /* \"#utility.yul\":19280:19316   */\n      add\n        /* \"#utility.yul\":19273:19277   */\n      0x20\n        /* \"#utility.yul\":19264:19270   */\n      dup3\n        /* \"#utility.yul\":19259:19262   */\n      dup6\n        /* \"#utility.yul\":19255:19271   */\n      add\n        /* \"#utility.yul\":19251:19278   */\n      add\n        /* \"#utility.yul\":19248:19317   */\n      gt\n        /* \"#utility.yul\":19245:19327   */\n      iszero\n      tag_512\n      jumpi\n        /* \"#utility.yul\":19320:19325   */\n      pop\n      pop\n      pop\n      pop\n      pop\n      pop\n        /* \"#utility.yul\":18747:19418   */\n      swap1\n      jump\t// out\n        /* \"#utility.yul\":19245:19327   */\n    tag_512:\n        /* \"#utility.yul\":19336:19393   */\n      tag_513\n        /* \"#utility.yul\":19387:19391   */\n      0x20\n        /* \"#utility.yul\":19378:19384   */\n      dup3\n        /* \"#utility.yul\":19370:19376   */\n      dup7\n        /* \"#utility.yul\":19366:19385   */\n      add\n        /* \"#utility.yul\":19362:19392   */\n      add\n        /* \"#utility.yul\":19356:19360   */\n      dup8\n        /* \"#utility.yul\":19336:19393   */\n      tag_339\n      jump\t// in\n    tag_513:\n      pop\n        /* \"#utility.yul\":19409:19412   */\n      swap1\n      swap6\n        /* \"#utility.yul\":18747:19418   */\n      swap5\n      pop\n      pop\n      pop\n      pop\n      pop\n      jump\t// out\n        /* \"#utility.yul\":19844:20248   */\n    tag_316:\n        /* \"#utility.yul\":20046:20048   */\n      0x20\n        /* \"#utility.yul\":20028:20049   */\n      dup1\n      dup3\n      mstore\n        /* \"#utility.yul\":20085:20087   */\n      0x28\n        /* \"#utility.yul\":20065:20083   */\n      swap1\n      dup3\n      add\n        /* \"#utility.yul\":20058:20088   */\n      mstore\n        /* \"#utility.yul\":20124:20158   */\n      0x455243313135353a204552433131353552656365697665722072656a65637465\n        /* \"#utility.yul\":20119:20121   */\n      0x40\n        /* \"#utility.yul\":20104:20122   */\n      dup3\n      add\n        /* \"#utility.yul\":20097:20159   */\n      mstore\n      shl(0xc0, 0x6420746f6b656e73)\n        /* \"#utility.yul\":20190:20192   */\n      0x60\n        /* \"#utility.yul\":20175:20193   */\n      dup3\n      add\n        /* \"#utility.yul\":20168:20206   */\n      mstore\n        /* \"#utility.yul\":20238:20241   */\n      0x80\n        /* \"#utility.yul\":20223:20242   */\n      add\n      swap1\n        /* \"#utility.yul\":19844:20248   */\n      jump\t// out\n        /* \"#utility.yul\":20253:21080   */\n    tag_321:\n      sub(shl(0xa0, 0x01), 0x01)\n        /* \"#utility.yul\":20650:20665   */\n      dup7\n      dup2\n      and\n        /* \"#utility.yul\":20632:20666   */\n      dup3\n      mstore\n        /* \"#utility.yul\":20702:20717   */\n      dup6\n      and\n        /* \"#utility.yul\":20697:20699   */\n      0x20\n        /* \"#utility.yul\":20682:20700   */\n      dup3\n      add\n        /* \"#utility.yul\":20675:20718   */\n      mstore\n        /* \"#utility.yul\":20612:20615   */\n      0xa0\n        /* \"#utility.yul\":20749:20751   */\n      0x40\n        /* \"#utility.yul\":20734:20752   */\n      dup3\n      add\n        /* \"#utility.yul\":20727:20758   */\n      dup2\n      swap1\n      mstore\n        /* \"#utility.yul\":20575:20579   */\n      0x00\n      swap1\n        /* \"#utility.yul\":20781:20838   */\n      tag_517\n      swap1\n        /* \"#utility.yul\":20818:20837   */\n      dup4\n      add\n        /* \"#utility.yul\":20810:20816   */\n      dup7\n        /* \"#utility.yul\":20781:20838   */\n      tag_345\n      jump\t// in\n    tag_517:\n        /* \"#utility.yul\":20886:20895   */\n      dup3\n        /* \"#utility.yul\":20878:20884   */\n      dup2\n        /* \"#utility.yul\":20874:20896   */\n      sub\n        /* \"#utility.yul\":20869:20871   */\n      0x60\n        /* \"#utility.yul\":20858:20867   */\n      dup5\n        /* \"#utility.yul\":20854:20872   */\n      add\n        /* \"#utility.yul\":20847:20897   */\n      mstore\n        /* \"#utility.yul\":20920:20964   */\n      tag_518\n        /* \"#utility.yul\":20957:20963   */\n      dup2\n        /* \"#utility.yul\":20949:20955   */\n      dup7\n        /* \"#utility.yul\":20920:20964   */\n      tag_345\n      jump\t// in\n    tag_518:\n        /* \"#utility.yul\":20906:20964   */\n      swap1\n      pop\n        /* \"#utility.yul\":21013:21022   */\n      dup3\n        /* \"#utility.yul\":21005:21011   */\n      dup2\n        /* \"#utility.yul\":21001:21023   */\n      sub\n        /* \"#utility.yul\":20995:20998   */\n      0x80\n        /* \"#utility.yul\":20984:20993   */\n      dup5\n        /* \"#utility.yul\":20980:20999   */\n      add\n        /* \"#utility.yul\":20973:21024   */\n      mstore\n        /* \"#utility.yul\":21041:21074   */\n      tag_519\n        /* \"#utility.yul\":21067:21073   */\n      dup2\n        /* \"#utility.yul\":21059:21065   */\n      dup6\n        /* \"#utility.yul\":21041:21074   */\n      tag_341\n      jump\t// in\n    tag_519:\n        /* \"#utility.yul\":21033:21074   */\n      swap9\n        /* \"#utility.yul\":20253:21080   */\n      swap8\n      pop\n      pop\n      pop\n      pop\n      pop\n      pop\n      pop\n      pop\n      jump\t// out\n\n    auxdata: 0xa26469706673582212207175ce7fa9d9cc80ff640bd79a7e8220479196796ba48b97ec724496b3e5c32e64736f6c63430008130033\n}\n",
				"bytecode": {
					"linkReferences": {},
					"object": "60806040523480156200001157600080fd5b506040518060a001604052806062815260200162001de860629139620000373362000074565b6200004281620000c4565b506040805180820190915260098152680a0ded8f2a0929892b60bb1b60208201526200006e90620000d6565b620002c0565b600080546001600160a01b038381166001600160a01b0319831681178455604051919092169283917f8be0079c531659141344cd1fd0a4f28419497f9722a3daafe3b4186f6b6457e09190a35050565b6003620000d28282620001f4565b5050565b620000e0620000ee565b6005620000d28282620001f4565b6000546001600160a01b031633146200014d5760405162461bcd60e51b815260206004820181905260248201527f4f776e61626c653a2063616c6c6572206973206e6f7420746865206f776e6572604482015260640160405180910390fd5b565b634e487b7160e01b600052604160045260246000fd5b600181811c908216806200017a57607f821691505b6020821081036200019b57634e487b7160e01b600052602260045260246000fd5b50919050565b601f821115620001ef57600081815260208120601f850160051c81016020861015620001ca5750805b601f850160051c820191505b81811015620001eb57828155600101620001d6565b5050505b505050565b81516001600160401b038111156200021057620002106200014f565b620002288162000221845462000165565b84620001a1565b602080601f831160018114620002605760008415620002475750858301515b600019600386901b1c1916600185901b178555620001eb565b600085815260208120601f198616915b82811015620002915788860151825594840194600190910190840162000270565b5085821015620002b05787850151600019600388901b60f8161c191681555b5050505050600190811b01905550565b611b1880620002d06000396000f3fe608060405234801561001057600080fd5b50600436106100ff5760003560e01c8063715018a611610097578063d351cfdc11610066578063d351cfdc14610219578063e985e9c51461022c578063f242432a14610268578063f2fde38b1461027b57600080fd5b8063715018a6146101d05780638da5cb5b146101d8578063a22cb465146101f3578063c47f00271461020657600080fd5b80630e89341c116100d35780630e89341c146101775780631b2ef1ca1461018a5780632eb2c2d61461019d5780634e1273f4146101b057600080fd5b8062fdd58e1461010457806301ffc9a71461012a57806302fe53051461014d57806306fdde0314610162575b600080fd5b610117610112366004611065565b61028e565b6040519081526020015b60405180910390f35b61013d6101383660046110a5565b610329565b6040519015158152602001610121565b61016061015b36600461116a565b610379565b005b61016a61038d565b6040516101219190611201565b61016a610185366004611214565b61041b565b61016061019836600461122d565b6104af565b6101606101ab366004611304565b6104d6565b6101c36101be3660046113ae565b610522565b60405161012191906114b4565b61016061064c565b6000546040516001600160a01b039091168152602001610121565b6101606102013660046114c7565b610660565b61016061021436600461116a565b61066b565b610160610227366004611503565b61067f565b61013d61023a366004611550565b6001600160a01b03918216600090815260026020908152604080832093909416825291909152205460ff1690565b610160610276366004611583565b6106a2565b6101606102893660046115e8565b6106e7565b60006001600160a01b0383166102fe5760405162461bcd60e51b815260206004820152602a60248201527f455243313135353a2061646472657373207a65726f206973206e6f742061207660448201526930b634b21037bbb732b960b11b60648201526084015b60405180910390fd5b5060008181526001602090815260408083206001600160a01b03861684529091529020545b92915050565b60006001600160e01b03198216636cdb3d1360e11b148061035a57506001600160e01b031982166303a24d0760e21b145b8061032357506301ffc9a760e01b6001600160e01b0319831614610323565b61038161075d565b61038a816107b7565b50565b6005805461039a90611603565b80601f01602080910402602001604051908101604052809291908181526020018280546103c690611603565b80156104135780601f106103e857610100808354040283529160200191610413565b820191906000526020600020905b8154815290600101906020018083116103f657829003601f168201915b505050505081565b60606003805461042a90611603565b80601f016020809104026020016040519081016040528092919081815260200182805461045690611603565b80156104a35780601f10610478576101008083540402835291602001916104a3565b820191906000526020600020905b81548152906001019060200180831161048657829003601f168201915b50505050509050919050565b6104b761075d565b6104d2338383604051806020016040528060008152506107c3565b5050565b6001600160a01b0385163314806104f257506104f2853361023a565b61050e5760405162461bcd60e51b81526004016102f59061163d565b61051b858585858561089f565b5050505050565b606081518351146105875760405162461bcd60e51b815260206004820152602960248201527f455243313135353a206163636f756e747320616e6420696473206c656e677468604482015268040dad2e6dac2e8c6d60bb1b60648201526084016102f5565b6000835167ffffffffffffffff8111156105a3576105a36110c9565b6040519080825280602002602001820160405280156105cc578160200160208202803683370190505b50905060005b8451811015610644576106178582815181106105f0576105f061168b565b602002602001015185838151811061060a5761060a61168b565b602002602001015161028e565b8282815181106106295761062961168b565b602090810291909101015261063d816116b7565b90506105d2565b509392505050565b61065461075d565b61065e6000610a3e565b565b6104d2338383610a8e565b61067361075d565b60056104d2828261171b565b61068761075d565b6104d233838360405180602001604052806000815250610b6e565b6001600160a01b0385163314806106be57506106be853361023a565b6106da5760405162461bcd60e51b81526004016102f59061163d565b61051b8585858585610cba565b6106ef61075d565b6001600160a01b0381166107545760405162461bcd60e51b815260206004820152602660248201527f4f776e61626c653a206e6577206f776e657220697320746865207a65726f206160448201526564647265737360d01b60648201526084016102f5565b61038a81610a3e565b6000546001600160a01b0316331461065e5760405162461bcd60e51b815260206004820181905260248201527f4f776e61626c653a2063616c6c6572206973206e6f7420746865206f776e657260448201526064016102f5565b60036104d2828261171b565b6001600160a01b0384166107e95760405162461bcd60e51b81526004016102f5906117db565b3360006107f585610de8565b9050600061080285610de8565b905060008681526001602090815260408083206001600160a01b038b1684529091528120805487929061083690849061181c565b909155505060408051878152602081018790526001600160a01b03808a1692600092918716917fc3d58168c5ae7397731d063d5bbf3d657854427343f4c083240f7aacaa2d0f62910160405180910390a461089683600089898989610e33565b50505050505050565b81518351146108c05760405162461bcd60e51b81526004016102f59061182f565b6001600160a01b0384166108e65760405162461bcd60e51b81526004016102f590611877565b3360005b84518110156109d05760008582815181106109075761090761168b565b6020026020010151905060008583815181106109255761092561168b565b60209081029190910181015160008481526001835260408082206001600160a01b038e1683529093529190912054909150818110156109765760405162461bcd60e51b81526004016102f5906118bc565b60008381526001602090815260408083206001600160a01b038e8116855292528083208585039055908b168252812080548492906109b590849061181c565b92505081905550505050806109c9906116b7565b90506108ea565b50846001600160a01b0316866001600160a01b0316826001600160a01b03167f4a39dc06d4c0dbc64b70af90fd698a233a518aa5d07e595d983b8c0526c8f7fb8787604051610a20929190611906565b60405180910390a4610a36818787878787610f8e565b505050505050565b600080546001600160a01b038381166001600160a01b0319831681178455604051919092169283917f8be0079c531659141344cd1fd0a4f28419497f9722a3daafe3b4186f6b6457e09190a35050565b816001600160a01b0316836001600160a01b031603610b015760405162461bcd60e51b815260206004820152602960248201527f455243313135353a2073657474696e6720617070726f76616c20737461747573604482015268103337b91039b2b63360b91b60648201526084016102f5565b6001600160a01b03838116600081815260026020908152604080832094871680845294825291829020805460ff191686151590811790915591519182527f17307eab39ab6107e8899845ad3d59bd9653f200f220920489ca2b5937696c31910160405180910390a3505050565b6001600160a01b038416610b945760405162461bcd60e51b81526004016102f5906117db565b8151835114610bb55760405162461bcd60e51b81526004016102f59061182f565b3360005b8451811015610c5257838181518110610bd457610bd461168b565b602002602001015160016000878481518110610bf257610bf261168b565b602002602001015181526020019081526020016000206000886001600160a01b03166001600160a01b031681526020019081526020016000206000828254610c3a919061181c565b90915550819050610c4a816116b7565b915050610bb9565b50846001600160a01b031660006001600160a01b0316826001600160a01b03167f4a39dc06d4c0dbc64b70af90fd698a233a518aa5d07e595d983b8c0526c8f7fb8787604051610ca3929190611906565b60405180910390a461051b81600087878787610f8e565b6001600160a01b038416610ce05760405162461bcd60e51b81526004016102f590611877565b336000610cec85610de8565b90506000610cf985610de8565b905060008681526001602090815260408083206001600160a01b038c16845290915290205485811015610d3e5760405162461bcd60e51b81526004016102f5906118bc565b60008781526001602090815260408083206001600160a01b038d8116855292528083208985039055908a16825281208054889290610d7d90849061181c565b909155505060408051888152602081018890526001600160a01b03808b16928c821692918816917fc3d58168c5ae7397731d063d5bbf3d657854427343f4c083240f7aacaa2d0f62910160405180910390a4610ddd848a8a8a8a8a610e33565b505050505050505050565b60408051600180825281830190925260609160009190602080830190803683370190505090508281600081518110610e2257610e2261168b565b602090810291909101015292915050565b6001600160a01b0384163b15610a365760405163f23a6e6160e01b81526001600160a01b0385169063f23a6e6190610e779089908990889088908890600401611934565b6020604051808303816000875af1925050508015610eb2575060408051601f3d908101601f19168201909252610eaf91810190611979565b60015b610f5e57610ebe611996565b806308c379a003610ef75750610ed26119b2565b80610edd5750610ef9565b8060405162461bcd60e51b81526004016102f59190611201565b505b60405162461bcd60e51b815260206004820152603460248201527f455243313135353a207472616e7366657220746f206e6f6e2d455243313135356044820152732932b1b2b4bb32b91034b6b83632b6b2b73a32b960611b60648201526084016102f5565b6001600160e01b0319811663f23a6e6160e01b146108965760405162461bcd60e51b81526004016102f590611a3c565b6001600160a01b0384163b15610a365760405163bc197c8160e01b81526001600160a01b0385169063bc197c8190610fd29089908990889088908890600401611a84565b6020604051808303816000875af192505050801561100d575060408051601f3d908101601f1916820190925261100a91810190611979565b60015b61101957610ebe611996565b6001600160e01b0319811663bc197c8160e01b146108965760405162461bcd60e51b81526004016102f590611a3c565b80356001600160a01b038116811461106057600080fd5b919050565b6000806040838503121561107857600080fd5b61108183611049565b946020939093013593505050565b6001600160e01b03198116811461038a57600080fd5b6000602082840312156110b757600080fd5b81356110c28161108f565b9392505050565b634e487b7160e01b600052604160045260246000fd5b601f8201601f1916810167ffffffffffffffff81118282101715611105576111056110c9565b6040525050565b600067ffffffffffffffff831115611126576111266110c9565b60405161113d601f8501601f1916602001826110df565b80915083815284848401111561115257600080fd5b83836020830137600060208583010152509392505050565b60006020828403121561117c57600080fd5b813567ffffffffffffffff81111561119357600080fd5b8201601f810184136111a457600080fd5b6111b38482356020840161110c565b949350505050565b6000815180845260005b818110156111e1576020818501810151868301820152016111c5565b506000602082860101526020601f19601f83011685010191505092915050565b6020815260006110c260208301846111bb565b60006020828403121561122657600080fd5b5035919050565b6000806040838503121561124057600080fd5b50508035926020909101359150565b600067ffffffffffffffff821115611269576112696110c9565b5060051b60200190565b600082601f83011261128457600080fd5b813560206112918261124f565b60405161129e82826110df565b83815260059390931b85018201928281019150868411156112be57600080fd5b8286015b848110156112d957803583529183019183016112c2565b509695505050505050565b600082601f8301126112f557600080fd5b6110c28383356020850161110c565b600080600080600060a0868803121561131c57600080fd5b61132586611049565b945061133360208701611049565b9350604086013567ffffffffffffffff8082111561135057600080fd5b61135c89838a01611273565b9450606088013591508082111561137257600080fd5b61137e89838a01611273565b9350608088013591508082111561139457600080fd5b506113a1888289016112e4565b9150509295509295909350565b600080604083850312156113c157600080fd5b823567ffffffffffffffff808211156113d957600080fd5b818501915085601f8301126113ed57600080fd5b813560206113fa8261124f565b60405161140782826110df565b83815260059390931b850182019282810191508984111561142757600080fd5b948201945b8386101561144c5761143d86611049565b8252948201949082019061142c565b9650508601359250508082111561146257600080fd5b5061146f85828601611273565b9150509250929050565b600081518084526020808501945080840160005b838110156114a95781518752958201959082019060010161148d565b509495945050505050565b6020815260006110c26020830184611479565b600080604083850312156114da57600080fd5b6114e383611049565b9150602083013580151581146114f857600080fd5b809150509250929050565b6000806040838503121561151657600080fd5b823567ffffffffffffffff8082111561152e57600080fd5b61153a86838701611273565b9350602085013591508082111561146257600080fd5b6000806040838503121561156357600080fd5b61156c83611049565b915061157a60208401611049565b90509250929050565b600080600080600060a0868803121561159b57600080fd5b6115a486611049565b94506115b260208701611049565b93506040860135925060608601359150608086013567ffffffffffffffff8111156115dc57600080fd5b6113a1888289016112e4565b6000602082840312156115fa57600080fd5b6110c282611049565b600181811c9082168061161757607f821691505b60208210810361163757634e487b7160e01b600052602260045260246000fd5b50919050565b6020808252602e908201527f455243313135353a2063616c6c6572206973206e6f7420746f6b656e206f776e60408201526d195c881bdc88185c1c1c9bdd995960921b606082015260800190565b634e487b7160e01b600052603260045260246000fd5b634e487b7160e01b600052601160045260246000fd5b6000600182016116c9576116c96116a1565b5060010190565b601f82111561171657600081815260208120601f850160051c810160208610156116f75750805b601f850160051c820191505b81811015610a3657828155600101611703565b505050565b815167ffffffffffffffff811115611735576117356110c9565b611749816117438454611603565b846116d0565b602080601f83116001811461177e57600084156117665750858301515b600019600386901b1c1916600185901b178555610a36565b600085815260208120601f198616915b828110156117ad5788860151825594840194600190910190840161178e565b50858210156117cb5787850151600019600388901b60f8161c191681555b5050505050600190811b01905550565b60208082526021908201527f455243313135353a206d696e7420746f20746865207a65726f206164647265736040820152607360f81b606082015260800190565b80820180821115610323576103236116a1565b60208082526028908201527f455243313135353a2069647320616e6420616d6f756e7473206c656e677468206040820152670dad2e6dac2e8c6d60c31b606082015260800190565b60208082526025908201527f455243313135353a207472616e7366657220746f20746865207a65726f206164604082015264647265737360d81b606082015260800190565b6020808252602a908201527f455243313135353a20696e73756666696369656e742062616c616e636520666f60408201526939103a3930b739b332b960b11b606082015260800190565b6040815260006119196040830185611479565b828103602084015261192b8185611479565b95945050505050565b6001600160a01b03868116825285166020820152604081018490526060810183905260a06080820181905260009061196e908301846111bb565b979650505050505050565b60006020828403121561198b57600080fd5b81516110c28161108f565b600060033d11156119af5760046000803e5060005160e01c5b90565b600060443d10156119c05790565b6040516003193d81016004833e81513d67ffffffffffffffff81602484011181841117156119f057505050505090565b8285019150815181811115611a085750505050505090565b843d8701016020828501011115611a225750505050505090565b611a31602082860101876110df565b509095945050505050565b60208082526028908201527f455243313135353a204552433131353552656365697665722072656a656374656040820152676420746f6b656e7360c01b606082015260800190565b6001600160a01b0386811682528516602082015260a060408201819052600090611ab090830186611479565b8281036060840152611ac28186611479565b90508281036080840152611ad681856111bb565b9897505050505050505056fea26469706673582212207175ce7fa9d9cc80ff640bd79a7e8220479196796ba48b97ec724496b3e5c32e64736f6c6343000813003368747470733a2f2f62616679626569656f797a336b6b3537616f626d366c72756465616f6f6a63696d6b6e65637a36683433796f78616e686d6f37637236787276346d2e697066732e6e667473746f726167652e6c696e6b2f7b69647d2e6a736f6e",
					"opcodes": "PUSH1 0x80 PUSH1 0x40 MSTORE CALLVALUE DUP1 ISZERO PUSH3 0x11 JUMPI PUSH1 0x0 DUP1 REVERT JUMPDEST POP PUSH1 0x40 MLOAD DUP1 PUSH1 0xA0 ADD PUSH1 0x40 MSTORE DUP1 PUSH1 0x62 DUP2 MSTORE PUSH1 0x20 ADD PUSH3 0x1DE8 PUSH1 0x62 SWAP2 CODECOPY PUSH3 0x37 CALLER PUSH3 0x74 JUMP JUMPDEST PUSH3 0x42 DUP2 PUSH3 0xC4 JUMP JUMPDEST POP PUSH1 0x40 DUP1 MLOAD DUP1 DUP3 ADD SWAP1 SWAP2 MSTORE PUSH1 0x9 DUP2 MSTORE PUSH9 0xA0DED8F2A0929892B PUSH1 0xBB SHL PUSH1 0x20 DUP3 ADD MSTORE PUSH3 0x6E SWAP1 PUSH3 0xD6 JUMP JUMPDEST PUSH3 0x2C0 JUMP JUMPDEST PUSH1 0x0 DUP1 SLOAD PUSH1 0x1 PUSH1 0x1 PUSH1 0xA0 SHL SUB DUP4 DUP2 AND PUSH1 0x1 PUSH1 0x1 PUSH1 0xA0 SHL SUB NOT DUP4 AND DUP2 OR DUP5 SSTORE PUSH1 0x40 MLOAD SWAP2 SWAP1 SWAP3 AND SWAP3 DUP4 SWAP2 PUSH32 0x8BE0079C531659141344CD1FD0A4F28419497F9722A3DAAFE3B4186F6B6457E0 SWAP2 SWAP1 LOG3 POP POP JUMP JUMPDEST PUSH1 0x3 PUSH3 0xD2 DUP3 DUP3 PUSH3 0x1F4 JUMP JUMPDEST POP POP JUMP JUMPDEST PUSH3 0xE0 PUSH3 0xEE JUMP JUMPDEST PUSH1 0x5 PUSH3 0xD2 DUP3 DUP3 PUSH3 0x1F4 JUMP JUMPDEST PUSH1 0x0 SLOAD PUSH1 0x1 PUSH1 0x1 PUSH1 0xA0 SHL SUB AND CALLER EQ PUSH3 0x14D JUMPI PUSH1 0x40 MLOAD PUSH3 0x461BCD PUSH1 0xE5 SHL DUP2 MSTORE PUSH1 0x20 PUSH1 0x4 DUP3 ADD DUP2 SWAP1 MSTORE PUSH1 0x24 DUP3 ADD MSTORE PUSH32 0x4F776E61626C653A2063616C6C6572206973206E6F7420746865206F776E6572 PUSH1 0x44 DUP3 ADD MSTORE PUSH1 0x64 ADD PUSH1 0x40 MLOAD DUP1 SWAP2 SUB SWAP1 REVERT JUMPDEST JUMP JUMPDEST PUSH4 0x4E487B71 PUSH1 0xE0 SHL PUSH1 0x0 MSTORE PUSH1 0x41 PUSH1 0x4 MSTORE PUSH1 0x24 PUSH1 0x0 REVERT JUMPDEST PUSH1 0x1 DUP2 DUP2 SHR SWAP1 DUP3 AND DUP1 PUSH3 0x17A JUMPI PUSH1 0x7F DUP3 AND SWAP2 POP JUMPDEST PUSH1 0x20 DUP3 LT DUP2 SUB PUSH3 0x19B JUMPI PUSH4 0x4E487B71 PUSH1 0xE0 SHL PUSH1 0x0 MSTORE PUSH1 0x22 PUSH1 0x4 MSTORE PUSH1 0x24 PUSH1 0x0 REVERT JUMPDEST POP SWAP2 SWAP1 POP JUMP JUMPDEST PUSH1 0x1F DUP3 GT ISZERO PUSH3 0x1EF JUMPI PUSH1 0x0 DUP2 DUP2 MSTORE PUSH1 0x20 DUP2 KECCAK256 PUSH1 0x1F DUP6 ADD PUSH1 0x5 SHR DUP2 ADD PUSH1 0x20 DUP7 LT ISZERO PUSH3 0x1CA JUMPI POP DUP1 JUMPDEST PUSH1 0x1F DUP6 ADD PUSH1 0x5 SHR DUP3 ADD SWAP2 POP JUMPDEST DUP2 DUP2 LT ISZERO PUSH3 0x1EB JUMPI DUP3 DUP2 SSTORE PUSH1 0x1 ADD PUSH3 0x1D6 JUMP JUMPDEST POP POP POP JUMPDEST POP POP POP JUMP JUMPDEST DUP2 MLOAD PUSH1 0x1 PUSH1 0x1 PUSH1 0x40 SHL SUB DUP2 GT ISZERO PUSH3 0x210 JUMPI PUSH3 0x210 PUSH3 0x14F JUMP JUMPDEST PUSH3 0x228 DUP2 PUSH3 0x221 DUP5 SLOAD PUSH3 0x165 JUMP JUMPDEST DUP5 PUSH3 0x1A1 JUMP JUMPDEST PUSH1 0x20 DUP1 PUSH1 0x1F DUP4 GT PUSH1 0x1 DUP2 EQ PUSH3 0x260 JUMPI PUSH1 0x0 DUP5 ISZERO PUSH3 0x247 JUMPI POP DUP6 DUP4 ADD MLOAD JUMPDEST PUSH1 0x0 NOT PUSH1 0x3 DUP7 SWAP1 SHL SHR NOT AND PUSH1 0x1 DUP6 SWAP1 SHL OR DUP6 SSTORE PUSH3 0x1EB JUMP JUMPDEST PUSH1 0x0 DUP6 DUP2 MSTORE PUSH1 0x20 DUP2 KECCAK256 PUSH1 0x1F NOT DUP7 AND SWAP2 JUMPDEST DUP3 DUP2 LT ISZERO PUSH3 0x291 JUMPI DUP9 DUP7 ADD MLOAD DUP3 SSTORE SWAP5 DUP5 ADD SWAP5 PUSH1 0x1 SWAP1 SWAP2 ADD SWAP1 DUP5 ADD PUSH3 0x270 JUMP JUMPDEST POP DUP6 DUP3 LT ISZERO PUSH3 0x2B0 JUMPI DUP8 DUP6 ADD MLOAD PUSH1 0x0 NOT PUSH1 0x3 DUP9 SWAP1 SHL PUSH1 0xF8 AND SHR NOT AND DUP2 SSTORE JUMPDEST POP POP POP POP POP PUSH1 0x1 SWAP1 DUP2 SHL ADD SWAP1 SSTORE POP JUMP JUMPDEST PUSH2 0x1B18 DUP1 PUSH3 0x2D0 PUSH1 0x0 CODECOPY PUSH1 0x0 RETURN INVALID PUSH1 0x80 PUSH1 0x40 MSTORE CALLVALUE DUP1 ISZERO PUSH2 0x10 JUMPI PUSH1 0x0 DUP1 REVERT JUMPDEST POP PUSH1 0x4 CALLDATASIZE LT PUSH2 0xFF JUMPI PUSH1 0x0 CALLDATALOAD PUSH1 0xE0 SHR DUP1 PUSH4 0x715018A6 GT PUSH2 0x97 JUMPI DUP1 PUSH4 0xD351CFDC GT PUSH2 0x66 JUMPI DUP1 PUSH4 0xD351CFDC EQ PUSH2 0x219 JUMPI DUP1 PUSH4 0xE985E9C5 EQ PUSH2 0x22C JUMPI DUP1 PUSH4 0xF242432A EQ PUSH2 0x268 JUMPI DUP1 PUSH4 0xF2FDE38B EQ PUSH2 0x27B JUMPI PUSH1 0x0 DUP1 REVERT JUMPDEST DUP1 PUSH4 0x715018A6 EQ PUSH2 0x1D0 JUMPI DUP1 PUSH4 0x8DA5CB5B EQ PUSH2 0x1D8 JUMPI DUP1 PUSH4 0xA22CB465 EQ PUSH2 0x1F3 JUMPI DUP1 PUSH4 0xC47F0027 EQ PUSH2 0x206 JUMPI PUSH1 0x0 DUP1 REVERT JUMPDEST DUP1 PUSH4 0xE89341C GT PUSH2 0xD3 JUMPI DUP1 PUSH4 0xE89341C EQ PUSH2 0x177 JUMPI DUP1 PUSH4 0x1B2EF1CA EQ PUSH2 0x18A JUMPI DUP1 PUSH4 0x2EB2C2D6 EQ PUSH2 0x19D JUMPI DUP1 PUSH4 0x4E1273F4 EQ PUSH2 0x1B0 JUMPI PUSH1 0x0 DUP1 REVERT JUMPDEST DUP1 PUSH3 0xFDD58E EQ PUSH2 0x104 JUMPI DUP1 PUSH4 0x1FFC9A7 EQ PUSH2 0x12A JUMPI DUP1 PUSH4 0x2FE5305 EQ PUSH2 0x14D JUMPI DUP1 PUSH4 0x6FDDE03 EQ PUSH2 0x162 JUMPI JUMPDEST PUSH1 0x0 DUP1 REVERT JUMPDEST PUSH2 0x117 PUSH2 0x112 CALLDATASIZE PUSH1 0x4 PUSH2 0x1065 JUMP JUMPDEST PUSH2 0x28E JUMP JUMPDEST PUSH1 0x40 MLOAD SWAP1 DUP2 MSTORE PUSH1 0x20 ADD JUMPDEST PUSH1 0x40 MLOAD DUP1 SWAP2 SUB SWAP1 RETURN JUMPDEST PUSH2 0x13D PUSH2 0x138 CALLDATASIZE PUSH1 0x4 PUSH2 0x10A5 JUMP JUMPDEST PUSH2 0x329 JUMP JUMPDEST PUSH1 0x40 MLOAD SWAP1 ISZERO ISZERO DUP2 MSTORE PUSH1 0x20 ADD PUSH2 0x121 JUMP JUMPDEST PUSH2 0x160 PUSH2 0x15B CALLDATASIZE PUSH1 0x4 PUSH2 0x116A JUMP JUMPDEST PUSH2 0x379 JUMP JUMPDEST STOP JUMPDEST PUSH2 0x16A PUSH2 0x38D JUMP JUMPDEST PUSH1 0x40 MLOAD PUSH2 0x121 SWAP2 SWAP1 PUSH2 0x1201 JUMP JUMPDEST PUSH2 0x16A PUSH2 0x185 CALLDATASIZE PUSH1 0x4 PUSH2 0x1214 JUMP JUMPDEST PUSH2 0x41B JUMP JUMPDEST PUSH2 0x160 PUSH2 0x198 CALLDATASIZE PUSH1 0x4 PUSH2 0x122D JUMP JUMPDEST PUSH2 0x4AF JUMP JUMPDEST PUSH2 0x160 PUSH2 0x1AB CALLDATASIZE PUSH1 0x4 PUSH2 0x1304 JUMP JUMPDEST PUSH2 0x4D6 JUMP JUMPDEST PUSH2 0x1C3 PUSH2 0x1BE CALLDATASIZE PUSH1 0x4 PUSH2 0x13AE JUMP JUMPDEST PUSH2 0x522 JUMP JUMPDEST PUSH1 0x40 MLOAD PUSH2 0x121 SWAP2 SWAP1 PUSH2 0x14B4 JUMP JUMPDEST PUSH2 0x160 PUSH2 0x64C JUMP JUMPDEST PUSH1 0x0 SLOAD PUSH1 0x40 MLOAD PUSH1 0x1 PUSH1 0x1 PUSH1 0xA0 SHL SUB SWAP1 SWAP2 AND DUP2 MSTORE PUSH1 0x20 ADD PUSH2 0x121 JUMP JUMPDEST PUSH2 0x160 PUSH2 0x201 CALLDATASIZE PUSH1 0x4 PUSH2 0x14C7 JUMP JUMPDEST PUSH2 0x660 JUMP JUMPDEST PUSH2 0x160 PUSH2 0x214 CALLDATASIZE PUSH1 0x4 PUSH2 0x116A JUMP JUMPDEST PUSH2 0x66B JUMP JUMPDEST PUSH2 0x160 PUSH2 0x227 CALLDATASIZE PUSH1 0x4 PUSH2 0x1503 JUMP JUMPDEST PUSH2 0x67F JUMP JUMPDEST PUSH2 0x13D PUSH2 0x23A CALLDATASIZE PUSH1 0x4 PUSH2 0x1550 JUMP JUMPDEST PUSH1 0x1 PUSH1 0x1 PUSH1 0xA0 SHL SUB SWAP2 DUP3 AND PUSH1 0x0 SWAP1 DUP2 MSTORE PUSH1 0x2 PUSH1 0x20 SWAP1 DUP2 MSTORE PUSH1 0x40 DUP1 DUP4 KECCAK256 SWAP4 SWAP1 SWAP5 AND DUP3 MSTORE SWAP2 SWAP1 SWAP2 MSTORE KECCAK256 SLOAD PUSH1 0xFF AND SWAP1 JUMP JUMPDEST PUSH2 0x160 PUSH2 0x276 CALLDATASIZE PUSH1 0x4 PUSH2 0x1583 JUMP JUMPDEST PUSH2 0x6A2 JUMP JUMPDEST PUSH2 0x160 PUSH2 0x289 CALLDATASIZE PUSH1 0x4 PUSH2 0x15E8 JUMP JUMPDEST PUSH2 0x6E7 JUMP JUMPDEST PUSH1 0x0 PUSH1 0x1 PUSH1 0x1 PUSH1 0xA0 SHL SUB DUP4 AND PUSH2 0x2FE JUMPI PUSH1 0x40 MLOAD PUSH3 0x461BCD PUSH1 0xE5 SHL DUP2 MSTORE PUSH1 0x20 PUSH1 0x4 DUP3 ADD MSTORE PUSH1 0x2A PUSH1 0x24 DUP3 ADD MSTORE PUSH32 0x455243313135353A2061646472657373207A65726F206973206E6F7420612076 PUSH1 0x44 DUP3 ADD MSTORE PUSH10 0x30B634B21037BBB732B9 PUSH1 0xB1 SHL PUSH1 0x64 DUP3 ADD MSTORE PUSH1 0x84 ADD JUMPDEST PUSH1 0x40 MLOAD DUP1 SWAP2 SUB SWAP1 REVERT JUMPDEST POP PUSH1 0x0 DUP2 DUP2 MSTORE PUSH1 0x1 PUSH1 0x20 SWAP1 DUP2 MSTORE PUSH1 0x40 DUP1 DUP4 KECCAK256 PUSH1 0x1 PUSH1 0x1 PUSH1 0xA0 SHL SUB DUP7 AND DUP5 MSTORE SWAP1 SWAP2 MSTORE SWAP1 KECCAK256 SLOAD JUMPDEST SWAP3 SWAP2 POP POP JUMP JUMPDEST PUSH1 0x0 PUSH1 0x1 PUSH1 0x1 PUSH1 0xE0 SHL SUB NOT DUP3 AND PUSH4 0x6CDB3D13 PUSH1 0xE1 SHL EQ DUP1 PUSH2 0x35A JUMPI POP PUSH1 0x1 PUSH1 0x1 PUSH1 0xE0 SHL SUB NOT DUP3 AND PUSH4 0x3A24D07 PUSH1 0xE2 SHL EQ JUMPDEST DUP1 PUSH2 0x323 JUMPI POP PUSH4 0x1FFC9A7 PUSH1 0xE0 SHL PUSH1 0x1 PUSH1 0x1 PUSH1 0xE0 SHL SUB NOT DUP4 AND EQ PUSH2 0x323 JUMP JUMPDEST PUSH2 0x381 PUSH2 0x75D JUMP JUMPDEST PUSH2 0x38A DUP2 PUSH2 0x7B7 JUMP JUMPDEST POP JUMP JUMPDEST PUSH1 0x5 DUP1 SLOAD PUSH2 0x39A SWAP1 PUSH2 0x1603 JUMP JUMPDEST DUP1 PUSH1 0x1F ADD PUSH1 0x20 DUP1 SWAP2 DIV MUL PUSH1 0x20 ADD PUSH1 0x40 MLOAD SWAP1 DUP2 ADD PUSH1 0x40 MSTORE DUP1 SWAP3 SWAP2 SWAP1 DUP2 DUP2 MSTORE PUSH1 0x20 ADD DUP3 DUP1 SLOAD PUSH2 0x3C6 SWAP1 PUSH2 0x1603 JUMP JUMPDEST DUP1 ISZERO PUSH2 0x413 JUMPI DUP1 PUSH1 0x1F LT PUSH2 0x3E8 JUMPI PUSH2 0x100 DUP1 DUP4 SLOAD DIV MUL DUP4 MSTORE SWAP2 PUSH1 0x20 ADD SWAP2 PUSH2 0x413 JUMP JUMPDEST DUP3 ADD SWAP2 SWAP1 PUSH1 0x0 MSTORE PUSH1 0x20 PUSH1 0x0 KECCAK256 SWAP1 JUMPDEST DUP2 SLOAD DUP2 MSTORE SWAP1 PUSH1 0x1 ADD SWAP1 PUSH1 0x20 ADD DUP1 DUP4 GT PUSH2 0x3F6 JUMPI DUP3 SWAP1 SUB PUSH1 0x1F AND DUP3 ADD SWAP2 JUMPDEST POP POP POP POP POP DUP2 JUMP JUMPDEST PUSH1 0x60 PUSH1 0x3 DUP1 SLOAD PUSH2 0x42A SWAP1 PUSH2 0x1603 JUMP JUMPDEST DUP1 PUSH1 0x1F ADD PUSH1 0x20 DUP1 SWAP2 DIV MUL PUSH1 0x20 ADD PUSH1 0x40 MLOAD SWAP1 DUP2 ADD PUSH1 0x40 MSTORE DUP1 SWAP3 SWAP2 SWAP1 DUP2 DUP2 MSTORE PUSH1 0x20 ADD DUP3 DUP1 SLOAD PUSH2 0x456 SWAP1 PUSH2 0x1603 JUMP JUMPDEST DUP1 ISZERO PUSH2 0x4A3 JUMPI DUP1 PUSH1 0x1F LT PUSH2 0x478 JUMPI PUSH2 0x100 DUP1 DUP4 SLOAD DIV MUL DUP4 MSTORE SWAP2 PUSH1 0x20 ADD SWAP2 PUSH2 0x4A3 JUMP JUMPDEST DUP3 ADD SWAP2 SWAP1 PUSH1 0x0 MSTORE PUSH1 0x20 PUSH1 0x0 KECCAK256 SWAP1 JUMPDEST DUP2 SLOAD DUP2 MSTORE SWAP1 PUSH1 0x1 ADD SWAP1 PUSH1 0x20 ADD DUP1 DUP4 GT PUSH2 0x486 JUMPI DUP3 SWAP1 SUB PUSH1 0x1F AND DUP3 ADD SWAP2 JUMPDEST POP POP POP POP POP SWAP1 POP SWAP2 SWAP1 POP JUMP JUMPDEST PUSH2 0x4B7 PUSH2 0x75D JUMP JUMPDEST PUSH2 0x4D2 CALLER DUP4 DUP4 PUSH1 0x40 MLOAD DUP1 PUSH1 0x20 ADD PUSH1 0x40 MSTORE DUP1 PUSH1 0x0 DUP2 MSTORE POP PUSH2 0x7C3 JUMP JUMPDEST POP POP JUMP JUMPDEST PUSH1 0x1 PUSH1 0x1 PUSH1 0xA0 SHL SUB DUP6 AND CALLER EQ DUP1 PUSH2 0x4F2 JUMPI POP PUSH2 0x4F2 DUP6 CALLER PUSH2 0x23A JUMP JUMPDEST PUSH2 0x50E JUMPI PUSH1 0x40 MLOAD PUSH3 0x461BCD PUSH1 0xE5 SHL DUP2 MSTORE PUSH1 0x4 ADD PUSH2 0x2F5 SWAP1 PUSH2 0x163D JUMP JUMPDEST PUSH2 0x51B DUP6 DUP6 DUP6 DUP6 DUP6 PUSH2 0x89F JUMP JUMPDEST POP POP POP POP POP JUMP JUMPDEST PUSH1 0x60 DUP2 MLOAD DUP4 MLOAD EQ PUSH2 0x587 JUMPI PUSH1 0x40 MLOAD PUSH3 0x461BCD PUSH1 0xE5 SHL DUP2 MSTORE PUSH1 0x20 PUSH1 0x4 DUP3 ADD MSTORE PUSH1 0x29 PUSH1 0x24 DUP3 ADD MSTORE PUSH32 0x455243313135353A206163636F756E747320616E6420696473206C656E677468 PUSH1 0x44 DUP3 ADD MSTORE PUSH9 0x40DAD2E6DAC2E8C6D PUSH1 0xBB SHL PUSH1 0x64 DUP3 ADD MSTORE PUSH1 0x84 ADD PUSH2 0x2F5 JUMP JUMPDEST PUSH1 0x0 DUP4 MLOAD PUSH8 0xFFFFFFFFFFFFFFFF DUP2 GT ISZERO PUSH2 0x5A3 JUMPI PUSH2 0x5A3 PUSH2 0x10C9 JUMP JUMPDEST PUSH1 0x40 MLOAD SWAP1 DUP1 DUP3 MSTORE DUP1 PUSH1 0x20 MUL PUSH1 0x20 ADD DUP3 ADD PUSH1 0x40 MSTORE DUP1 ISZERO PUSH2 0x5CC JUMPI DUP2 PUSH1 0x20 ADD PUSH1 0x20 DUP3 MUL DUP1 CALLDATASIZE DUP4 CALLDATACOPY ADD SWAP1 POP JUMPDEST POP SWAP1 POP PUSH1 0x0 JUMPDEST DUP5 MLOAD DUP2 LT ISZERO PUSH2 0x644 JUMPI PUSH2 0x617 DUP6 DUP3 DUP2 MLOAD DUP2 LT PUSH2 0x5F0 JUMPI PUSH2 0x5F0 PUSH2 0x168B JUMP JUMPDEST PUSH1 0x20 MUL PUSH1 0x20 ADD ADD MLOAD DUP6 DUP4 DUP2 MLOAD DUP2 LT PUSH2 0x60A JUMPI PUSH2 0x60A PUSH2 0x168B JUMP JUMPDEST PUSH1 0x20 MUL PUSH1 0x20 ADD ADD MLOAD PUSH2 0x28E JUMP JUMPDEST DUP3 DUP3 DUP2 MLOAD DUP2 LT PUSH2 0x629 JUMPI PUSH2 0x629 PUSH2 0x168B JUMP JUMPDEST PUSH1 0x20 SWAP1 DUP2 MUL SWAP2 SWAP1 SWAP2 ADD ADD MSTORE PUSH2 0x63D DUP2 PUSH2 0x16B7 JUMP JUMPDEST SWAP1 POP PUSH2 0x5D2 JUMP JUMPDEST POP SWAP4 SWAP3 POP POP POP JUMP JUMPDEST PUSH2 0x654 PUSH2 0x75D JUMP JUMPDEST PUSH2 0x65E PUSH1 0x0 PUSH2 0xA3E JUMP JUMPDEST JUMP JUMPDEST PUSH2 0x4D2 CALLER DUP4 DUP4 PUSH2 0xA8E JUMP JUMPDEST PUSH2 0x673 PUSH2 0x75D JUMP JUMPDEST PUSH1 0x5 PUSH2 0x4D2 DUP3 DUP3 PUSH2 0x171B JUMP JUMPDEST PUSH2 0x687 PUSH2 0x75D JUMP JUMPDEST PUSH2 0x4D2 CALLER DUP4 DUP4 PUSH1 0x40 MLOAD DUP1 PUSH1 0x20 ADD PUSH1 0x40 MSTORE DUP1 PUSH1 0x0 DUP2 MSTORE POP PUSH2 0xB6E JUMP JUMPDEST PUSH1 0x1 PUSH1 0x1 PUSH1 0xA0 SHL SUB DUP6 AND CALLER EQ DUP1 PUSH2 0x6BE JUMPI POP PUSH2 0x6BE DUP6 CALLER PUSH2 0x23A JUMP JUMPDEST PUSH2 0x6DA JUMPI PUSH1 0x40 MLOAD PUSH3 0x461BCD PUSH1 0xE5 SHL DUP2 MSTORE PUSH1 0x4 ADD PUSH2 0x2F5 SWAP1 PUSH2 0x163D JUMP JUMPDEST PUSH2 0x51B DUP6 DUP6 DUP6 DUP6 DUP6 PUSH2 0xCBA JUMP JUMPDEST PUSH2 0x6EF PUSH2 0x75D JUMP JUMPDEST PUSH1 0x1 PUSH1 0x1 PUSH1 0xA0 SHL SUB DUP2 AND PUSH2 0x754 JUMPI PUSH1 0x40 MLOAD PUSH3 0x461BCD PUSH1 0xE5 SHL DUP2 MSTORE PUSH1 0x20 PUSH1 0x4 DUP3 ADD MSTORE PUSH1 0x26 PUSH1 0x24 DUP3 ADD MSTORE PUSH32 0x4F776E61626C653A206E6577206F776E657220697320746865207A65726F2061 PUSH1 0x44 DUP3 ADD MSTORE PUSH6 0x646472657373 PUSH1 0xD0 SHL PUSH1 0x64 DUP3 ADD MSTORE PUSH1 0x84 ADD PUSH2 0x2F5 JUMP JUMPDEST PUSH2 0x38A DUP2 PUSH2 0xA3E JUMP JUMPDEST PUSH1 0x0 SLOAD PUSH1 0x1 PUSH1 0x1 PUSH1 0xA0 SHL SUB AND CALLER EQ PUSH2 0x65E JUMPI PUSH1 0x40 MLOAD PUSH3 0x461BCD PUSH1 0xE5 SHL DUP2 MSTORE PUSH1 0x20 PUSH1 0x4 DUP3 ADD DUP2 SWAP1 MSTORE PUSH1 0x24 DUP3 ADD MSTORE PUSH32 0x4F776E61626C653A2063616C6C6572206973206E6F7420746865206F776E6572 PUSH1 0x44 DUP3 ADD MSTORE PUSH1 0x64 ADD PUSH2 0x2F5 JUMP JUMPDEST PUSH1 0x3 PUSH2 0x4D2 DUP3 DUP3 PUSH2 0x171B JUMP JUMPDEST PUSH1 0x1 PUSH1 0x1 PUSH1 0xA0 SHL SUB DUP5 AND PUSH2 0x7E9 JUMPI PUSH1 0x40 MLOAD PUSH3 0x461BCD PUSH1 0xE5 SHL DUP2 MSTORE PUSH1 0x4 ADD PUSH2 0x2F5 SWAP1 PUSH2 0x17DB JUMP JUMPDEST CALLER PUSH1 0x0 PUSH2 0x7F5 DUP6 PUSH2 0xDE8 JUMP JUMPDEST SWAP1 POP PUSH1 0x0 PUSH2 0x802 DUP6 PUSH2 0xDE8 JUMP JUMPDEST SWAP1 POP PUSH1 0x0 DUP7 DUP2 MSTORE PUSH1 0x1 PUSH1 0x20 SWAP1 DUP2 MSTORE PUSH1 0x40 DUP1 DUP4 KECCAK256 PUSH1 0x1 PUSH1 0x1 PUSH1 0xA0 SHL SUB DUP12 AND DUP5 MSTORE SWAP1 SWAP2 MSTORE DUP2 KECCAK256 DUP1 SLOAD DUP8 SWAP3 SWAP1 PUSH2 0x836 SWAP1 DUP5 SWAP1 PUSH2 0x181C JUMP JUMPDEST SWAP1 SWAP2 SSTORE POP POP PUSH1 0x40 DUP1 MLOAD DUP8 DUP2 MSTORE PUSH1 0x20 DUP2 ADD DUP8 SWAP1 MSTORE PUSH1 0x1 PUSH1 0x1 PUSH1 0xA0 SHL SUB DUP1 DUP11 AND SWAP3 PUSH1 0x0 SWAP3 SWAP2 DUP8 AND SWAP2 PUSH32 0xC3D58168C5AE7397731D063D5BBF3D657854427343F4C083240F7AACAA2D0F62 SWAP2 ADD PUSH1 0x40 MLOAD DUP1 SWAP2 SUB SWAP1 LOG4 PUSH2 0x896 DUP4 PUSH1 0x0 DUP10 DUP10 DUP10 DUP10 PUSH2 0xE33 JUMP JUMPDEST POP POP POP POP POP POP POP JUMP JUMPDEST DUP2 MLOAD DUP4 MLOAD EQ PUSH2 0x8C0 JUMPI PUSH1 0x40 MLOAD PUSH3 0x461BCD PUSH1 0xE5 SHL DUP2 MSTORE PUSH1 0x4 ADD PUSH2 0x2F5 SWAP1 PUSH2 0x182F JUMP JUMPDEST PUSH1 0x1 PUSH1 0x1 PUSH1 0xA0 SHL SUB DUP5 AND PUSH2 0x8E6 JUMPI PUSH1 0x40 MLOAD PUSH3 0x461BCD PUSH1 0xE5 SHL DUP2 MSTORE PUSH1 0x4 ADD PUSH2 0x2F5 SWAP1 PUSH2 0x1877 JUMP JUMPDEST CALLER PUSH1 0x0 JUMPDEST DUP5 MLOAD DUP2 LT ISZERO PUSH2 0x9D0 JUMPI PUSH1 0x0 DUP6 DUP3 DUP2 MLOAD DUP2 LT PUSH2 0x907 JUMPI PUSH2 0x907 PUSH2 0x168B JUMP JUMPDEST PUSH1 0x20 MUL PUSH1 0x20 ADD ADD MLOAD SWAP1 POP PUSH1 0x0 DUP6 DUP4 DUP2 MLOAD DUP2 LT PUSH2 0x925 JUMPI PUSH2 0x925 PUSH2 0x168B JUMP JUMPDEST PUSH1 0x20 SWAP1 DUP2 MUL SWAP2 SWAP1 SWAP2 ADD DUP2 ADD MLOAD PUSH1 0x0 DUP5 DUP2 MSTORE PUSH1 0x1 DUP4 MSTORE PUSH1 0x40 DUP1 DUP3 KECCAK256 PUSH1 0x1 PUSH1 0x1 PUSH1 0xA0 SHL SUB DUP15 AND DUP4 MSTORE SWAP1 SWAP4 MSTORE SWAP2 SWAP1 SWAP2 KECCAK256 SLOAD SWAP1 SWAP2 POP DUP2 DUP2 LT ISZERO PUSH2 0x976 JUMPI PUSH1 0x40 MLOAD PUSH3 0x461BCD PUSH1 0xE5 SHL DUP2 MSTORE PUSH1 0x4 ADD PUSH2 0x2F5 SWAP1 PUSH2 0x18BC JUMP JUMPDEST PUSH1 0x0 DUP4 DUP2 MSTORE PUSH1 0x1 PUSH1 0x20 SWAP1 DUP2 MSTORE PUSH1 0x40 DUP1 DUP4 KECCAK256 PUSH1 0x1 PUSH1 0x1 PUSH1 0xA0 SHL SUB DUP15 DUP2 AND DUP6 MSTORE SWAP3 MSTORE DUP1 DUP4 KECCAK256 DUP6 DUP6 SUB SWAP1 SSTORE SWAP1 DUP12 AND DUP3 MSTORE DUP2 KECCAK256 DUP1 SLOAD DUP5 SWAP3 SWAP1 PUSH2 0x9B5 SWAP1 DUP5 SWAP1 PUSH2 0x181C JUMP JUMPDEST SWAP3 POP POP DUP2 SWAP1 SSTORE POP POP POP POP DUP1 PUSH2 0x9C9 SWAP1 PUSH2 0x16B7 JUMP JUMPDEST SWAP1 POP PUSH2 0x8EA JUMP JUMPDEST POP DUP5 PUSH1 0x1 PUSH1 0x1 PUSH1 0xA0 SHL SUB AND DUP7 PUSH1 0x1 PUSH1 0x1 PUSH1 0xA0 SHL SUB AND DUP3 PUSH1 0x1 PUSH1 0x1 PUSH1 0xA0 SHL SUB AND PUSH32 0x4A39DC06D4C0DBC64B70AF90FD698A233A518AA5D07E595D983B8C0526C8F7FB DUP8 DUP8 PUSH1 0x40 MLOAD PUSH2 0xA20 SWAP3 SWAP2 SWAP1 PUSH2 0x1906 JUMP JUMPDEST PUSH1 0x40 MLOAD DUP1 SWAP2 SUB SWAP1 LOG4 PUSH2 0xA36 DUP2 DUP8 DUP8 DUP8 DUP8 DUP8 PUSH2 0xF8E JUMP JUMPDEST POP POP POP POP POP POP JUMP JUMPDEST PUSH1 0x0 DUP1 SLOAD PUSH1 0x1 PUSH1 0x1 PUSH1 0xA0 SHL SUB DUP4 DUP2 AND PUSH1 0x1 PUSH1 0x1 PUSH1 0xA0 SHL SUB NOT DUP4 AND DUP2 OR DUP5 SSTORE PUSH1 0x40 MLOAD SWAP2 SWAP1 SWAP3 AND SWAP3 DUP4 SWAP2 PUSH32 0x8BE0079C531659141344CD1FD0A4F28419497F9722A3DAAFE3B4186F6B6457E0 SWAP2 SWAP1 LOG3 POP POP JUMP JUMPDEST DUP2 PUSH1 0x1 PUSH1 0x1 PUSH1 0xA0 SHL SUB AND DUP4 PUSH1 0x1 PUSH1 0x1 PUSH1 0xA0 SHL SUB AND SUB PUSH2 0xB01 JUMPI PUSH1 0x40 MLOAD PUSH3 0x461BCD PUSH1 0xE5 SHL DUP2 MSTORE PUSH1 0x20 PUSH1 0x4 DUP3 ADD MSTORE PUSH1 0x29 PUSH1 0x24 DUP3 ADD MSTORE PUSH32 0x455243313135353A2073657474696E6720617070726F76616C20737461747573 PUSH1 0x44 DUP3 ADD MSTORE PUSH9 0x103337B91039B2B633 PUSH1 0xB9 SHL PUSH1 0x64 DUP3 ADD MSTORE PUSH1 0x84 ADD PUSH2 0x2F5 JUMP JUMPDEST PUSH1 0x1 PUSH1 0x1 PUSH1 0xA0 SHL SUB DUP4 DUP2 AND PUSH1 0x0 DUP2 DUP2 MSTORE PUSH1 0x2 PUSH1 0x20 SWAP1 DUP2 MSTORE PUSH1 0x40 DUP1 DUP4 KECCAK256 SWAP5 DUP8 AND DUP1 DUP5 MSTORE SWAP5 DUP3 MSTORE SWAP2 DUP3 SWAP1 KECCAK256 DUP1 SLOAD PUSH1 0xFF NOT AND DUP7 ISZERO ISZERO SWAP1 DUP2 OR SWAP1 SWAP2 SSTORE SWAP2 MLOAD SWAP2 DUP3 MSTORE PUSH32 0x17307EAB39AB6107E8899845AD3D59BD9653F200F220920489CA2B5937696C31 SWAP2 ADD PUSH1 0x40 MLOAD DUP1 SWAP2 SUB SWAP1 LOG3 POP POP POP JUMP JUMPDEST PUSH1 0x1 PUSH1 0x1 PUSH1 0xA0 SHL SUB DUP5 AND PUSH2 0xB94 JUMPI PUSH1 0x40 MLOAD PUSH3 0x461BCD PUSH1 0xE5 SHL DUP2 MSTORE PUSH1 0x4 ADD PUSH2 0x2F5 SWAP1 PUSH2 0x17DB JUMP JUMPDEST DUP2 MLOAD DUP4 MLOAD EQ PUSH2 0xBB5 JUMPI PUSH1 0x40 MLOAD PUSH3 0x461BCD PUSH1 0xE5 SHL DUP2 MSTORE PUSH1 0x4 ADD PUSH2 0x2F5 SWAP1 PUSH2 0x182F JUMP JUMPDEST CALLER PUSH1 0x0 JUMPDEST DUP5 MLOAD DUP2 LT ISZERO PUSH2 0xC52 JUMPI DUP4 DUP2 DUP2 MLOAD DUP2 LT PUSH2 0xBD4 JUMPI PUSH2 0xBD4 PUSH2 0x168B JUMP JUMPDEST PUSH1 0x20 MUL PUSH1 0x20 ADD ADD MLOAD PUSH1 0x1 PUSH1 0x0 DUP8 DUP5 DUP2 MLOAD DUP2 LT PUSH2 0xBF2 JUMPI PUSH2 0xBF2 PUSH2 0x168B JUMP JUMPDEST PUSH1 0x20 MUL PUSH1 0x20 ADD ADD MLOAD DUP2 MSTORE PUSH1 0x20 ADD SWAP1 DUP2 MSTORE PUSH1 0x20 ADD PUSH1 0x0 KECCAK256 PUSH1 0x0 DUP9 PUSH1 0x1 PUSH1 0x1 PUSH1 0xA0 SHL SUB AND PUSH1 0x1 PUSH1 0x1 PUSH1 0xA0 SHL SUB AND DUP2 MSTORE PUSH1 0x20 ADD SWAP1 DUP2 MSTORE PUSH1 0x20 ADD PUSH1 0x0 KECCAK256 PUSH1 0x0 DUP3 DUP3 SLOAD PUSH2 0xC3A SWAP2 SWAP1 PUSH2 0x181C JUMP JUMPDEST SWAP1 SWAP2 SSTORE POP DUP2 SWAP1 POP PUSH2 0xC4A DUP2 PUSH2 0x16B7 JUMP JUMPDEST SWAP2 POP POP PUSH2 0xBB9 JUMP JUMPDEST POP DUP5 PUSH1 0x1 PUSH1 0x1 PUSH1 0xA0 SHL SUB AND PUSH1 0x0 PUSH1 0x1 PUSH1 0x1 PUSH1 0xA0 SHL SUB AND DUP3 PUSH1 0x1 PUSH1 0x1 PUSH1 0xA0 SHL SUB AND PUSH32 0x4A39DC06D4C0DBC64B70AF90FD698A233A518AA5D07E595D983B8C0526C8F7FB DUP8 DUP8 PUSH1 0x40 MLOAD PUSH2 0xCA3 SWAP3 SWAP2 SWAP1 PUSH2 0x1906 JUMP JUMPDEST PUSH1 0x40 MLOAD DUP1 SWAP2 SUB SWAP1 LOG4 PUSH2 0x51B DUP2 PUSH1 0x0 DUP8 DUP8 DUP8 DUP8 PUSH2 0xF8E JUMP JUMPDEST PUSH1 0x1 PUSH1 0x1 PUSH1 0xA0 SHL SUB DUP5 AND PUSH2 0xCE0 JUMPI PUSH1 0x40 MLOAD PUSH3 0x461BCD PUSH1 0xE5 SHL DUP2 MSTORE PUSH1 0x4 ADD PUSH2 0x2F5 SWAP1 PUSH2 0x1877 JUMP JUMPDEST CALLER PUSH1 0x0 PUSH2 0xCEC DUP6 PUSH2 0xDE8 JUMP JUMPDEST SWAP1 POP PUSH1 0x0 PUSH2 0xCF9 DUP6 PUSH2 0xDE8 JUMP JUMPDEST SWAP1 POP PUSH1 0x0 DUP7 DUP2 MSTORE PUSH1 0x1 PUSH1 0x20 SWAP1 DUP2 MSTORE PUSH1 0x40 DUP1 DUP4 KECCAK256 PUSH1 0x1 PUSH1 0x1 PUSH1 0xA0 SHL SUB DUP13 AND DUP5 MSTORE SWAP1 SWAP2 MSTORE SWAP1 KECCAK256 SLOAD DUP6 DUP2 LT ISZERO PUSH2 0xD3E JUMPI PUSH1 0x40 MLOAD PUSH3 0x461BCD PUSH1 0xE5 SHL DUP2 MSTORE PUSH1 0x4 ADD PUSH2 0x2F5 SWAP1 PUSH2 0x18BC JUMP JUMPDEST PUSH1 0x0 DUP8 DUP2 MSTORE PUSH1 0x1 PUSH1 0x20 SWAP1 DUP2 MSTORE PUSH1 0x40 DUP1 DUP4 KECCAK256 PUSH1 0x1 PUSH1 0x1 PUSH1 0xA0 SHL SUB DUP14 DUP2 AND DUP6 MSTORE SWAP3 MSTORE DUP1 DUP4 KECCAK256 DUP10 DUP6 SUB SWAP1 SSTORE SWAP1 DUP11 AND DUP3 MSTORE DUP2 KECCAK256 DUP1 SLOAD DUP9 SWAP3 SWAP1 PUSH2 0xD7D SWAP1 DUP5 SWAP1 PUSH2 0x181C JUMP JUMPDEST SWAP1 SWAP2 SSTORE POP POP PUSH1 0x40 DUP1 MLOAD DUP9 DUP2 MSTORE PUSH1 0x20 DUP2 ADD DUP9 SWAP1 MSTORE PUSH1 0x1 PUSH1 0x1 PUSH1 0xA0 SHL SUB DUP1 DUP12 AND SWAP3 DUP13 DUP3 AND SWAP3 SWAP2 DUP9 AND SWAP2 PUSH32 0xC3D58168C5AE7397731D063D5BBF3D657854427343F4C083240F7AACAA2D0F62 SWAP2 ADD PUSH1 0x40 MLOAD DUP1 SWAP2 SUB SWAP1 LOG4 PUSH2 0xDDD DUP5 DUP11 DUP11 DUP11 DUP11 DUP11 PUSH2 0xE33 JUMP JUMPDEST POP POP POP POP POP POP POP POP POP JUMP JUMPDEST PUSH1 0x40 DUP1 MLOAD PUSH1 0x1 DUP1 DUP3 MSTORE DUP2 DUP4 ADD SWAP1 SWAP3 MSTORE PUSH1 0x60 SWAP2 PUSH1 0x0 SWAP2 SWAP1 PUSH1 0x20 DUP1 DUP4 ADD SWAP1 DUP1 CALLDATASIZE DUP4 CALLDATACOPY ADD SWAP1 POP POP SWAP1 POP DUP3 DUP2 PUSH1 0x0 DUP2 MLOAD DUP2 LT PUSH2 0xE22 JUMPI PUSH2 0xE22 PUSH2 0x168B JUMP JUMPDEST PUSH1 0x20 SWAP1 DUP2 MUL SWAP2 SWAP1 SWAP2 ADD ADD MSTORE SWAP3 SWAP2 POP POP JUMP JUMPDEST PUSH1 0x1 PUSH1 0x1 PUSH1 0xA0 SHL SUB DUP5 AND EXTCODESIZE ISZERO PUSH2 0xA36 JUMPI PUSH1 0x40 MLOAD PUSH4 0xF23A6E61 PUSH1 0xE0 SHL DUP2 MSTORE PUSH1 0x1 PUSH1 0x1 PUSH1 0xA0 SHL SUB DUP6 AND SWAP1 PUSH4 0xF23A6E61 SWAP1 PUSH2 0xE77 SWAP1 DUP10 SWAP1 DUP10 SWAP1 DUP9 SWAP1 DUP9 SWAP1 DUP9 SWAP1 PUSH1 0x4 ADD PUSH2 0x1934 JUMP JUMPDEST PUSH1 0x20 PUSH1 0x40 MLOAD DUP1 DUP4 SUB DUP2 PUSH1 0x0 DUP8 GAS CALL SWAP3 POP POP POP DUP1 ISZERO PUSH2 0xEB2 JUMPI POP PUSH1 0x40 DUP1 MLOAD PUSH1 0x1F RETURNDATASIZE SWAP1 DUP2 ADD PUSH1 0x1F NOT AND DUP3 ADD SWAP1 SWAP3 MSTORE PUSH2 0xEAF SWAP2 DUP2 ADD SWAP1 PUSH2 0x1979 JUMP JUMPDEST PUSH1 0x1 JUMPDEST PUSH2 0xF5E JUMPI PUSH2 0xEBE PUSH2 0x1996 JUMP JUMPDEST DUP1 PUSH4 0x8C379A0 SUB PUSH2 0xEF7 JUMPI POP PUSH2 0xED2 PUSH2 0x19B2 JUMP JUMPDEST DUP1 PUSH2 0xEDD JUMPI POP PUSH2 0xEF9 JUMP JUMPDEST DUP1 PUSH1 0x40 MLOAD PUSH3 0x461BCD PUSH1 0xE5 SHL DUP2 MSTORE PUSH1 0x4 ADD PUSH2 0x2F5 SWAP2 SWAP1 PUSH2 0x1201 JUMP JUMPDEST POP JUMPDEST PUSH1 0x40 MLOAD PUSH3 0x461BCD PUSH1 0xE5 SHL DUP2 MSTORE PUSH1 0x20 PUSH1 0x4 DUP3 ADD MSTORE PUSH1 0x34 PUSH1 0x24 DUP3 ADD MSTORE PUSH32 0x455243313135353A207472616E7366657220746F206E6F6E2D45524331313535 PUSH1 0x44 DUP3 ADD MSTORE PUSH20 0x2932B1B2B4BB32B91034B6B83632B6B2B73A32B9 PUSH1 0x61 SHL PUSH1 0x64 DUP3 ADD MSTORE PUSH1 0x84 ADD PUSH2 0x2F5 JUMP JUMPDEST PUSH1 0x1 PUSH1 0x1 PUSH1 0xE0 SHL SUB NOT DUP2 AND PUSH4 0xF23A6E61 PUSH1 0xE0 SHL EQ PUSH2 0x896 JUMPI PUSH1 0x40 MLOAD PUSH3 0x461BCD PUSH1 0xE5 SHL DUP2 MSTORE PUSH1 0x4 ADD PUSH2 0x2F5 SWAP1 PUSH2 0x1A3C JUMP JUMPDEST PUSH1 0x1 PUSH1 0x1 PUSH1 0xA0 SHL SUB DUP5 AND EXTCODESIZE ISZERO PUSH2 0xA36 JUMPI PUSH1 0x40 MLOAD PUSH4 0xBC197C81 PUSH1 0xE0 SHL DUP2 MSTORE PUSH1 0x1 PUSH1 0x1 PUSH1 0xA0 SHL SUB DUP6 AND SWAP1 PUSH4 0xBC197C81 SWAP1 PUSH2 0xFD2 SWAP1 DUP10 SWAP1 DUP10 SWAP1 DUP9 SWAP1 DUP9 SWAP1 DUP9 SWAP1 PUSH1 0x4 ADD PUSH2 0x1A84 JUMP JUMPDEST PUSH1 0x20 PUSH1 0x40 MLOAD DUP1 DUP4 SUB DUP2 PUSH1 0x0 DUP8 GAS CALL SWAP3 POP POP POP DUP1 ISZERO PUSH2 0x100D JUMPI POP PUSH1 0x40 DUP1 MLOAD PUSH1 0x1F RETURNDATASIZE SWAP1 DUP2 ADD PUSH1 0x1F NOT AND DUP3 ADD SWAP1 SWAP3 MSTORE PUSH2 0x100A SWAP2 DUP2 ADD SWAP1 PUSH2 0x1979 JUMP JUMPDEST PUSH1 0x1 JUMPDEST PUSH2 0x1019 JUMPI PUSH2 0xEBE PUSH2 0x1996 JUMP JUMPDEST PUSH1 0x1 PUSH1 0x1 PUSH1 0xE0 SHL SUB NOT DUP2 AND PUSH4 0xBC197C81 PUSH1 0xE0 SHL EQ PUSH2 0x896 JUMPI PUSH1 0x40 MLOAD PUSH3 0x461BCD PUSH1 0xE5 SHL DUP2 MSTORE PUSH1 0x4 ADD PUSH2 0x2F5 SWAP1 PUSH2 0x1A3C JUMP JUMPDEST DUP1 CALLDATALOAD PUSH1 0x1 PUSH1 0x1 PUSH1 0xA0 SHL SUB DUP2 AND DUP2 EQ PUSH2 0x1060 JUMPI PUSH1 0x0 DUP1 REVERT JUMPDEST SWAP2 SWAP1 POP JUMP JUMPDEST PUSH1 0x0 DUP1 PUSH1 0x40 DUP4 DUP6 SUB SLT ISZERO PUSH2 0x1078 JUMPI PUSH1 0x0 DUP1 REVERT JUMPDEST PUSH2 0x1081 DUP4 PUSH2 0x1049 JUMP JUMPDEST SWAP5 PUSH1 0x20 SWAP4 SWAP1 SWAP4 ADD CALLDATALOAD SWAP4 POP POP POP JUMP JUMPDEST PUSH1 0x1 PUSH1 0x1 PUSH1 0xE0 SHL SUB NOT DUP2 AND DUP2 EQ PUSH2 0x38A JUMPI PUSH1 0x0 DUP1 REVERT JUMPDEST PUSH1 0x0 PUSH1 0x20 DUP3 DUP5 SUB SLT ISZERO PUSH2 0x10B7 JUMPI PUSH1 0x0 DUP1 REVERT JUMPDEST DUP2 CALLDATALOAD PUSH2 0x10C2 DUP2 PUSH2 0x108F JUMP JUMPDEST SWAP4 SWAP3 POP POP POP JUMP JUMPDEST PUSH4 0x4E487B71 PUSH1 0xE0 SHL PUSH1 0x0 MSTORE PUSH1 0x41 PUSH1 0x4 MSTORE PUSH1 0x24 PUSH1 0x0 REVERT JUMPDEST PUSH1 0x1F DUP3 ADD PUSH1 0x1F NOT AND DUP2 ADD PUSH8 0xFFFFFFFFFFFFFFFF DUP2 GT DUP3 DUP3 LT OR ISZERO PUSH2 0x1105 JUMPI PUSH2 0x1105 PUSH2 0x10C9 JUMP JUMPDEST PUSH1 0x40 MSTORE POP POP JUMP JUMPDEST PUSH1 0x0 PUSH8 0xFFFFFFFFFFFFFFFF DUP4 GT ISZERO PUSH2 0x1126 JUMPI PUSH2 0x1126 PUSH2 0x10C9 JUMP JUMPDEST PUSH1 0x40 MLOAD PUSH2 0x113D PUSH1 0x1F DUP6 ADD PUSH1 0x1F NOT AND PUSH1 0x20 ADD DUP3 PUSH2 0x10DF JUMP JUMPDEST DUP1 SWAP2 POP DUP4 DUP2 MSTORE DUP5 DUP5 DUP5 ADD GT ISZERO PUSH2 0x1152 JUMPI PUSH1 0x0 DUP1 REVERT JUMPDEST DUP4 DUP4 PUSH1 0x20 DUP4 ADD CALLDATACOPY PUSH1 0x0 PUSH1 0x20 DUP6 DUP4 ADD ADD MSTORE POP SWAP4 SWAP3 POP POP POP JUMP JUMPDEST PUSH1 0x0 PUSH1 0x20 DUP3 DUP5 SUB SLT ISZERO PUSH2 0x117C JUMPI PUSH1 0x0 DUP1 REVERT JUMPDEST DUP2 CALLDATALOAD PUSH8 0xFFFFFFFFFFFFFFFF DUP2 GT ISZERO PUSH2 0x1193 JUMPI PUSH1 0x0 DUP1 REVERT JUMPDEST DUP3 ADD PUSH1 0x1F DUP2 ADD DUP5 SGT PUSH2 0x11A4 JUMPI PUSH1 0x0 DUP1 REVERT JUMPDEST PUSH2 0x11B3 DUP5 DUP3 CALLDATALOAD PUSH1 0x20 DUP5 ADD PUSH2 0x110C JUMP JUMPDEST SWAP5 SWAP4 POP POP POP POP JUMP JUMPDEST PUSH1 0x0 DUP2 MLOAD DUP1 DUP5 MSTORE PUSH1 0x0 JUMPDEST DUP2 DUP2 LT ISZERO PUSH2 0x11E1 JUMPI PUSH1 0x20 DUP2 DUP6 ADD DUP2 ADD MLOAD DUP7 DUP4 ADD DUP3 ADD MSTORE ADD PUSH2 0x11C5 JUMP JUMPDEST POP PUSH1 0x0 PUSH1 0x20 DUP3 DUP7 ADD ADD MSTORE PUSH1 0x20 PUSH1 0x1F NOT PUSH1 0x1F DUP4 ADD AND DUP6 ADD ADD SWAP2 POP POP SWAP3 SWAP2 POP POP JUMP JUMPDEST PUSH1 0x20 DUP2 MSTORE PUSH1 0x0 PUSH2 0x10C2 PUSH1 0x20 DUP4 ADD DUP5 PUSH2 0x11BB JUMP JUMPDEST PUSH1 0x0 PUSH1 0x20 DUP3 DUP5 SUB SLT ISZERO PUSH2 0x1226 JUMPI PUSH1 0x0 DUP1 REVERT JUMPDEST POP CALLDATALOAD SWAP2 SWAP1 POP JUMP JUMPDEST PUSH1 0x0 DUP1 PUSH1 0x40 DUP4 DUP6 SUB SLT ISZERO PUSH2 0x1240 JUMPI PUSH1 0x0 DUP1 REVERT JUMPDEST POP POP DUP1 CALLDATALOAD SWAP3 PUSH1 0x20 SWAP1 SWAP2 ADD CALLDATALOAD SWAP2 POP JUMP JUMPDEST PUSH1 0x0 PUSH8 0xFFFFFFFFFFFFFFFF DUP3 GT ISZERO PUSH2 0x1269 JUMPI PUSH2 0x1269 PUSH2 0x10C9 JUMP JUMPDEST POP PUSH1 0x5 SHL PUSH1 0x20 ADD SWAP1 JUMP JUMPDEST PUSH1 0x0 DUP3 PUSH1 0x1F DUP4 ADD SLT PUSH2 0x1284 JUMPI PUSH1 0x0 DUP1 REVERT JUMPDEST DUP2 CALLDATALOAD PUSH1 0x20 PUSH2 0x1291 DUP3 PUSH2 0x124F JUMP JUMPDEST PUSH1 0x40 MLOAD PUSH2 0x129E DUP3 DUP3 PUSH2 0x10DF JUMP JUMPDEST DUP4 DUP2 MSTORE PUSH1 0x5 SWAP4 SWAP1 SWAP4 SHL DUP6 ADD DUP3 ADD SWAP3 DUP3 DUP2 ADD SWAP2 POP DUP7 DUP5 GT ISZERO PUSH2 0x12BE JUMPI PUSH1 0x0 DUP1 REVERT JUMPDEST DUP3 DUP7 ADD JUMPDEST DUP5 DUP2 LT ISZERO PUSH2 0x12D9 JUMPI DUP1 CALLDATALOAD DUP4 MSTORE SWAP2 DUP4 ADD SWAP2 DUP4 ADD PUSH2 0x12C2 JUMP JUMPDEST POP SWAP7 SWAP6 POP POP POP POP POP POP JUMP JUMPDEST PUSH1 0x0 DUP3 PUSH1 0x1F DUP4 ADD SLT PUSH2 0x12F5 JUMPI PUSH1 0x0 DUP1 REVERT JUMPDEST PUSH2 0x10C2 DUP4 DUP4 CALLDATALOAD PUSH1 0x20 DUP6 ADD PUSH2 0x110C JUMP JUMPDEST PUSH1 0x0 DUP1 PUSH1 0x0 DUP1 PUSH1 0x0 PUSH1 0xA0 DUP7 DUP9 SUB SLT ISZERO PUSH2 0x131C JUMPI PUSH1 0x0 DUP1 REVERT JUMPDEST PUSH2 0x1325 DUP7 PUSH2 0x1049 JUMP JUMPDEST SWAP5 POP PUSH2 0x1333 PUSH1 0x20 DUP8 ADD PUSH2 0x1049 JUMP JUMPDEST SWAP4 POP PUSH1 0x40 DUP7 ADD CALLDATALOAD PUSH8 0xFFFFFFFFFFFFFFFF DUP1 DUP3 GT ISZERO PUSH2 0x1350 JUMPI PUSH1 0x0 DUP1 REVERT JUMPDEST PUSH2 0x135C DUP10 DUP4 DUP11 ADD PUSH2 0x1273 JUMP JUMPDEST SWAP5 POP PUSH1 0x60 DUP9 ADD CALLDATALOAD SWAP2 POP DUP1 DUP3 GT ISZERO PUSH2 0x1372 JUMPI PUSH1 0x0 DUP1 REVERT JUMPDEST PUSH2 0x137E DUP10 DUP4 DUP11 ADD PUSH2 0x1273 JUMP JUMPDEST SWAP4 POP PUSH1 0x80 DUP9 ADD CALLDATALOAD SWAP2 POP DUP1 DUP3 GT ISZERO PUSH2 0x1394 JUMPI PUSH1 0x0 DUP1 REVERT JUMPDEST POP PUSH2 0x13A1 DUP9 DUP3 DUP10 ADD PUSH2 0x12E4 JUMP JUMPDEST SWAP2 POP POP SWAP3 SWAP6 POP SWAP3 SWAP6 SWAP1 SWAP4 POP JUMP JUMPDEST PUSH1 0x0 DUP1 PUSH1 0x40 DUP4 DUP6 SUB SLT ISZERO PUSH2 0x13C1 JUMPI PUSH1 0x0 DUP1 REVERT JUMPDEST DUP3 CALLDATALOAD PUSH8 0xFFFFFFFFFFFFFFFF DUP1 DUP3 GT ISZERO PUSH2 0x13D9 JUMPI PUSH1 0x0 DUP1 REVERT JUMPDEST DUP2 DUP6 ADD SWAP2 POP DUP6 PUSH1 0x1F DUP4 ADD SLT PUSH2 0x13ED JUMPI PUSH1 0x0 DUP1 REVERT JUMPDEST DUP2 CALLDATALOAD PUSH1 0x20 PUSH2 0x13FA DUP3 PUSH2 0x124F JUMP JUMPDEST PUSH1 0x40 MLOAD PUSH2 0x1407 DUP3 DUP3 PUSH2 0x10DF JUMP JUMPDEST DUP4 DUP2 MSTORE PUSH1 0x5 SWAP4 SWAP1 SWAP4 SHL DUP6 ADD DUP3 ADD SWAP3 DUP3 DUP2 ADD SWAP2 POP DUP10 DUP5 GT ISZERO PUSH2 0x1427 JUMPI PUSH1 0x0 DUP1 REVERT JUMPDEST SWAP5 DUP3 ADD SWAP5 JUMPDEST DUP4 DUP7 LT ISZERO PUSH2 0x144C JUMPI PUSH2 0x143D DUP7 PUSH2 0x1049 JUMP JUMPDEST DUP3 MSTORE SWAP5 DUP3 ADD SWAP5 SWAP1 DUP3 ADD SWAP1 PUSH2 0x142C JUMP JUMPDEST SWAP7 POP POP DUP7 ADD CALLDATALOAD SWAP3 POP POP DUP1 DUP3 GT ISZERO PUSH2 0x1462 JUMPI PUSH1 0x0 DUP1 REVERT JUMPDEST POP PUSH2 0x146F DUP6 DUP3 DUP7 ADD PUSH2 0x1273 JUMP JUMPDEST SWAP2 POP POP SWAP3 POP SWAP3 SWAP1 POP JUMP JUMPDEST PUSH1 0x0 DUP2 MLOAD DUP1 DUP5 MSTORE PUSH1 0x20 DUP1 DUP6 ADD SWAP5 POP DUP1 DUP5 ADD PUSH1 0x0 JUMPDEST DUP4 DUP2 LT ISZERO PUSH2 0x14A9 JUMPI DUP2 MLOAD DUP8 MSTORE SWAP6 DUP3 ADD SWAP6 SWAP1 DUP3 ADD SWAP1 PUSH1 0x1 ADD PUSH2 0x148D JUMP JUMPDEST POP SWAP5 SWAP6 SWAP5 POP POP POP POP POP JUMP JUMPDEST PUSH1 0x20 DUP2 MSTORE PUSH1 0x0 PUSH2 0x10C2 PUSH1 0x20 DUP4 ADD DUP5 PUSH2 0x1479 JUMP JUMPDEST PUSH1 0x0 DUP1 PUSH1 0x40 DUP4 DUP6 SUB SLT ISZERO PUSH2 0x14DA JUMPI PUSH1 0x0 DUP1 REVERT JUMPDEST PUSH2 0x14E3 DUP4 PUSH2 0x1049 JUMP JUMPDEST SWAP2 POP PUSH1 0x20 DUP4 ADD CALLDATALOAD DUP1 ISZERO ISZERO DUP2 EQ PUSH2 0x14F8 JUMPI PUSH1 0x0 DUP1 REVERT JUMPDEST DUP1 SWAP2 POP POP SWAP3 POP SWAP3 SWAP1 POP JUMP JUMPDEST PUSH1 0x0 DUP1 PUSH1 0x40 DUP4 DUP6 SUB SLT ISZERO PUSH2 0x1516 JUMPI PUSH1 0x0 DUP1 REVERT JUMPDEST DUP3 CALLDATALOAD PUSH8 0xFFFFFFFFFFFFFFFF DUP1 DUP3 GT ISZERO PUSH2 0x152E JUMPI PUSH1 0x0 DUP1 REVERT JUMPDEST PUSH2 0x153A DUP7 DUP4 DUP8 ADD PUSH2 0x1273 JUMP JUMPDEST SWAP4 POP PUSH1 0x20 DUP6 ADD CALLDATALOAD SWAP2 POP DUP1 DUP3 GT ISZERO PUSH2 0x1462 JUMPI PUSH1 0x0 DUP1 REVERT JUMPDEST PUSH1 0x0 DUP1 PUSH1 0x40 DUP4 DUP6 SUB SLT ISZERO PUSH2 0x1563 JUMPI PUSH1 0x0 DUP1 REVERT JUMPDEST PUSH2 0x156C DUP4 PUSH2 0x1049 JUMP JUMPDEST SWAP2 POP PUSH2 0x157A PUSH1 0x20 DUP5 ADD PUSH2 0x1049 JUMP JUMPDEST SWAP1 POP SWAP3 POP SWAP3 SWAP1 POP JUMP JUMPDEST PUSH1 0x0 DUP1 PUSH1 0x0 DUP1 PUSH1 0x0 PUSH1 0xA0 DUP7 DUP9 SUB SLT ISZERO PUSH2 0x159B JUMPI PUSH1 0x0 DUP1 REVERT JUMPDEST PUSH2 0x15A4 DUP7 PUSH2 0x1049 JUMP JUMPDEST SWAP5 POP PUSH2 0x15B2 PUSH1 0x20 DUP8 ADD PUSH2 0x1049 JUMP JUMPDEST SWAP4 POP PUSH1 0x40 DUP7 ADD CALLDATALOAD SWAP3 POP PUSH1 0x60 DUP7 ADD CALLDATALOAD SWAP2 POP PUSH1 0x80 DUP7 ADD CALLDATALOAD PUSH8 0xFFFFFFFFFFFFFFFF DUP2 GT ISZERO PUSH2 0x15DC JUMPI PUSH1 0x0 DUP1 REVERT JUMPDEST PUSH2 0x13A1 DUP9 DUP3 DUP10 ADD PUSH2 0x12E4 JUMP JUMPDEST PUSH1 0x0 PUSH1 0x20 DUP3 DUP5 SUB SLT ISZERO PUSH2 0x15FA JUMPI PUSH1 0x0 DUP1 REVERT JUMPDEST PUSH2 0x10C2 DUP3 PUSH2 0x1049 JUMP JUMPDEST PUSH1 0x1 DUP2 DUP2 SHR SWAP1 DUP3 AND DUP1 PUSH2 0x1617 JUMPI PUSH1 0x7F DUP3 AND SWAP2 POP JUMPDEST PUSH1 0x20 DUP3 LT DUP2 SUB PUSH2 0x1637 JUMPI PUSH4 0x4E487B71 PUSH1 0xE0 SHL PUSH1 0x0 MSTORE PUSH1 0x22 PUSH1 0x4 MSTORE PUSH1 0x24 PUSH1 0x0 REVERT JUMPDEST POP SWAP2 SWAP1 POP JUMP JUMPDEST PUSH1 0x20 DUP1 DUP3 MSTORE PUSH1 0x2E SWAP1 DUP3 ADD MSTORE PUSH32 0x455243313135353A2063616C6C6572206973206E6F7420746F6B656E206F776E PUSH1 0x40 DUP3 ADD MSTORE PUSH14 0x195C881BDC88185C1C1C9BDD9959 PUSH1 0x92 SHL PUSH1 0x60 DUP3 ADD MSTORE PUSH1 0x80 ADD SWAP1 JUMP JUMPDEST PUSH4 0x4E487B71 PUSH1 0xE0 SHL PUSH1 0x0 MSTORE PUSH1 0x32 PUSH1 0x4 MSTORE PUSH1 0x24 PUSH1 0x0 REVERT JUMPDEST PUSH4 0x4E487B71 PUSH1 0xE0 SHL PUSH1 0x0 MSTORE PUSH1 0x11 PUSH1 0x4 MSTORE PUSH1 0x24 PUSH1 0x0 REVERT JUMPDEST PUSH1 0x0 PUSH1 0x1 DUP3 ADD PUSH2 0x16C9 JUMPI PUSH2 0x16C9 PUSH2 0x16A1 JUMP JUMPDEST POP PUSH1 0x1 ADD SWAP1 JUMP JUMPDEST PUSH1 0x1F DUP3 GT ISZERO PUSH2 0x1716 JUMPI PUSH1 0x0 DUP2 DUP2 MSTORE PUSH1 0x20 DUP2 KECCAK256 PUSH1 0x1F DUP6 ADD PUSH1 0x5 SHR DUP2 ADD PUSH1 0x20 DUP7 LT ISZERO PUSH2 0x16F7 JUMPI POP DUP1 JUMPDEST PUSH1 0x1F DUP6 ADD PUSH1 0x5 SHR DUP3 ADD SWAP2 POP JUMPDEST DUP2 DUP2 LT ISZERO PUSH2 0xA36 JUMPI DUP3 DUP2 SSTORE PUSH1 0x1 ADD PUSH2 0x1703 JUMP JUMPDEST POP POP POP JUMP JUMPDEST DUP2 MLOAD PUSH8 0xFFFFFFFFFFFFFFFF DUP2 GT ISZERO PUSH2 0x1735 JUMPI PUSH2 0x1735 PUSH2 0x10C9 JUMP JUMPDEST PUSH2 0x1749 DUP2 PUSH2 0x1743 DUP5 SLOAD PUSH2 0x1603 JUMP JUMPDEST DUP5 PUSH2 0x16D0 JUMP JUMPDEST PUSH1 0x20 DUP1 PUSH1 0x1F DUP4 GT PUSH1 0x1 DUP2 EQ PUSH2 0x177E JUMPI PUSH1 0x0 DUP5 ISZERO PUSH2 0x1766 JUMPI POP DUP6 DUP4 ADD MLOAD JUMPDEST PUSH1 0x0 NOT PUSH1 0x3 DUP7 SWAP1 SHL SHR NOT AND PUSH1 0x1 DUP6 SWAP1 SHL OR DUP6 SSTORE PUSH2 0xA36 JUMP JUMPDEST PUSH1 0x0 DUP6 DUP2 MSTORE PUSH1 0x20 DUP2 KECCAK256 PUSH1 0x1F NOT DUP7 AND SWAP2 JUMPDEST DUP3 DUP2 LT ISZERO PUSH2 0x17AD JUMPI DUP9 DUP7 ADD MLOAD DUP3 SSTORE SWAP5 DUP5 ADD SWAP5 PUSH1 0x1 SWAP1 SWAP2 ADD SWAP1 DUP5 ADD PUSH2 0x178E JUMP JUMPDEST POP DUP6 DUP3 LT ISZERO PUSH2 0x17CB JUMPI DUP8 DUP6 ADD MLOAD PUSH1 0x0 NOT PUSH1 0x3 DUP9 SWAP1 SHL PUSH1 0xF8 AND SHR NOT AND DUP2 SSTORE JUMPDEST POP POP POP POP POP PUSH1 0x1 SWAP1 DUP2 SHL ADD SWAP1 SSTORE POP JUMP JUMPDEST PUSH1 0x20 DUP1 DUP3 MSTORE PUSH1 0x21 SWAP1 DUP3 ADD MSTORE PUSH32 0x455243313135353A206D696E7420746F20746865207A65726F20616464726573 PUSH1 0x40 DUP3 ADD MSTORE PUSH1 0x73 PUSH1 0xF8 SHL PUSH1 0x60 DUP3 ADD MSTORE PUSH1 0x80 ADD SWAP1 JUMP JUMPDEST DUP1 DUP3 ADD DUP1 DUP3 GT ISZERO PUSH2 0x323 JUMPI PUSH2 0x323 PUSH2 0x16A1 JUMP JUMPDEST PUSH1 0x20 DUP1 DUP3 MSTORE PUSH1 0x28 SWAP1 DUP3 ADD MSTORE PUSH32 0x455243313135353A2069647320616E6420616D6F756E7473206C656E67746820 PUSH1 0x40 DUP3 ADD MSTORE PUSH8 0xDAD2E6DAC2E8C6D PUSH1 0xC3 SHL PUSH1 0x60 DUP3 ADD MSTORE PUSH1 0x80 ADD SWAP1 JUMP JUMPDEST PUSH1 0x20 DUP1 DUP3 MSTORE PUSH1 0x25 SWAP1 DUP3 ADD MSTORE PUSH32 0x455243313135353A207472616E7366657220746F20746865207A65726F206164 PUSH1 0x40 DUP3 ADD MSTORE PUSH5 0x6472657373 PUSH1 0xD8 SHL PUSH1 0x60 DUP3 ADD MSTORE PUSH1 0x80 ADD SWAP1 JUMP JUMPDEST PUSH1 0x20 DUP1 DUP3 MSTORE PUSH1 0x2A SWAP1 DUP3 ADD MSTORE PUSH32 0x455243313135353A20696E73756666696369656E742062616C616E636520666F PUSH1 0x40 DUP3 ADD MSTORE PUSH10 0x39103A3930B739B332B9 PUSH1 0xB1 SHL PUSH1 0x60 DUP3 ADD MSTORE PUSH1 0x80 ADD SWAP1 JUMP JUMPDEST PUSH1 0x40 DUP2 MSTORE PUSH1 0x0 PUSH2 0x1919 PUSH1 0x40 DUP4 ADD DUP6 PUSH2 0x1479 JUMP JUMPDEST DUP3 DUP2 SUB PUSH1 0x20 DUP5 ADD MSTORE PUSH2 0x192B DUP2 DUP6 PUSH2 0x1479 JUMP JUMPDEST SWAP6 SWAP5 POP POP POP POP POP JUMP JUMPDEST PUSH1 0x1 PUSH1 0x1 PUSH1 0xA0 SHL SUB DUP7 DUP2 AND DUP3 MSTORE DUP6 AND PUSH1 0x20 DUP3 ADD MSTORE PUSH1 0x40 DUP2 ADD DUP5 SWAP1 MSTORE PUSH1 0x60 DUP2 ADD DUP4 SWAP1 MSTORE PUSH1 0xA0 PUSH1 0x80 DUP3 ADD DUP2 SWAP1 MSTORE PUSH1 0x0 SWAP1 PUSH2 0x196E SWAP1 DUP4 ADD DUP5 PUSH2 0x11BB JUMP JUMPDEST SWAP8 SWAP7 POP POP POP POP POP POP POP JUMP JUMPDEST PUSH1 0x0 PUSH1 0x20 DUP3 DUP5 SUB SLT ISZERO PUSH2 0x198B JUMPI PUSH1 0x0 DUP1 REVERT JUMPDEST DUP2 MLOAD PUSH2 0x10C2 DUP2 PUSH2 0x108F JUMP JUMPDEST PUSH1 0x0 PUSH1 0x3 RETURNDATASIZE GT ISZERO PUSH2 0x19AF JUMPI PUSH1 0x4 PUSH1 0x0 DUP1 RETURNDATACOPY POP PUSH1 0x0 MLOAD PUSH1 0xE0 SHR JUMPDEST SWAP1 JUMP JUMPDEST PUSH1 0x0 PUSH1 0x44 RETURNDATASIZE LT ISZERO PUSH2 0x19C0 JUMPI SWAP1 JUMP JUMPDEST PUSH1 0x40 MLOAD PUSH1 0x3 NOT RETURNDATASIZE DUP2 ADD PUSH1 0x4 DUP4 RETURNDATACOPY DUP2 MLOAD RETURNDATASIZE PUSH8 0xFFFFFFFFFFFFFFFF DUP2 PUSH1 0x24 DUP5 ADD GT DUP2 DUP5 GT OR ISZERO PUSH2 0x19F0 JUMPI POP POP POP POP POP SWAP1 JUMP JUMPDEST DUP3 DUP6 ADD SWAP2 POP DUP2 MLOAD DUP2 DUP2 GT ISZERO PUSH2 0x1A08 JUMPI POP POP POP POP POP POP SWAP1 JUMP JUMPDEST DUP5 RETURNDATASIZE DUP8 ADD ADD PUSH1 0x20 DUP3 DUP6 ADD ADD GT ISZERO PUSH2 0x1A22 JUMPI POP POP POP POP POP POP SWAP1 JUMP JUMPDEST PUSH2 0x1A31 PUSH1 0x20 DUP3 DUP7 ADD ADD DUP8 PUSH2 0x10DF JUMP JUMPDEST POP SWAP1 SWAP6 SWAP5 POP POP POP POP POP JUMP JUMPDEST PUSH1 0x20 DUP1 DUP3 MSTORE PUSH1 0x28 SWAP1 DUP3 ADD MSTORE PUSH32 0x455243313135353A204552433131353552656365697665722072656A65637465 PUSH1 0x40 DUP3 ADD MSTORE PUSH8 0x6420746F6B656E73 PUSH1 0xC0 SHL PUSH1 0x60 DUP3 ADD MSTORE PUSH1 0x80 ADD SWAP1 JUMP JUMPDEST PUSH1 0x1 PUSH1 0x1 PUSH1 0xA0 SHL SUB DUP7 DUP2 AND DUP3 MSTORE DUP6 AND PUSH1 0x20 DUP3 ADD MSTORE PUSH1 0xA0 PUSH1 0x40 DUP3 ADD DUP2 SWAP1 MSTORE PUSH1 0x0 SWAP1 PUSH2 0x1AB0 SWAP1 DUP4 ADD DUP7 PUSH2 0x1479 JUMP JUMPDEST DUP3 DUP2 SUB PUSH1 0x60 DUP5 ADD MSTORE PUSH2 0x1AC2 DUP2 DUP7 PUSH2 0x1479 JUMP JUMPDEST SWAP1 POP DUP3 DUP2 SUB PUSH1 0x80 DUP5 ADD MSTORE PUSH2 0x1AD6 DUP2 DUP6 PUSH2 0x11BB JUMP JUMPDEST SWAP9 SWAP8 POP POP POP POP POP POP POP POP JUMP INVALID LOG2 PUSH5 0x6970667358 0x22 SLT KECCAK256 PUSH18 0x75CE7FA9D9CC80FF640BD79A7E8220479196 PUSH26 0x6BA48B97EC724496B3E5C32E64736F6C63430008130033687474 PUSH17 0x733A2F2F62616679626569656F797A336B PUSH12 0x3537616F626D366C72756465 PUSH2 0x6F6F PUSH11 0x63696D6B6E65637A366834 CALLER PUSH26 0x6F78616E686D6F37637236787276346D2E697066732E6E667473 PUSH21 0x6F726167652E6C696E6B2F7B69647D2E6A736F6E00 "
				},
				"gasEstimates": {
					"creation": {
						"codeDepositCost": "1387200",
						"executionCost": "infinite",
						"totalCost": "infinite"
					},
					"external": {
						"balanceOf(address,uint256)": "2703",
						"balanceOfBatch(address[],uint256[])": "infinite",
						"isApprovedForAll(address,address)": "infinite",
						"mint(uint256,uint256)": "infinite",
						"mintBatch(uint256[],uint256[])": "infinite",
						"name()": "infinite",
						"owner()": "2346",
						"renounceOwnership()": "infinite",
						"safeBatchTransferFrom(address,address,uint256[],uint256[],bytes)": "infinite",
						"safeTransferFrom(address,address,uint256,uint256,bytes)": "infinite",
						"setApprovalForAll(address,bool)": "26750",
						"setName(string)": "infinite",
						"setURI(string)": "infinite",
						"supportsInterface(bytes4)": "578",
						"transferOwnership(address)": "28421",
						"uri(uint256)": "infinite"
					}
				},
				"methodIdentifiers": {
					"balanceOf(address,uint256)": "00fdd58e",
					"balanceOfBatch(address[],uint256[])": "4e1273f4",
					"isApprovedForAll(address,address)": "e985e9c5",
					"mint(uint256,uint256)": "1b2ef1ca",
					"mintBatch(uint256[],uint256[])": "d351cfdc",
					"name()": "06fdde03",
					"owner()": "8da5cb5b",
					"renounceOwnership()": "715018a6",
					"safeBatchTransferFrom(address,address,uint256[],uint256[],bytes)": "2eb2c2d6",
					"safeTransferFrom(address,address,uint256,uint256,bytes)": "f242432a",
					"setApprovalForAll(address,bool)": "a22cb465",
					"setName(string)": "c47f0027",
					"setURI(string)": "02fe5305",
					"supportsInterface(bytes4)": "01ffc9a7",
					"transferOwnership(address)": "f2fde38b",
					"uri(uint256)": "0e89341c"
				}
			},
			"storageLayout": {
				"storage": [
					{
						"astId": 7,
						"contract": "verified-sources/0x8982F2001c9e34C8a6109FC8a85539b14D23f9a9/sources/contracts/Pilix_Art.sol:PolyPILIX",
						"label": "_owner",
						"offset": 0,
						"slot": "0",
						"type": "t_address"
					},
					{
						"astId": 138,
						"contract": "verified-sources/0x8982F2001c9e34C8a6109FC8a85539b14D23f9a9/sources/contracts/Pilix_Art.sol:PolyPILIX",
						"label": "_balances",
						"offset": 0,
						"slot": "1",
						"type": "t_mapping(t_uint256,t_mapping(t_address,t_uint256))"
					},
					{
						"astId": 144,
						"contract": "verified-sources/0x8982F2001c9e34C8a6109FC8a85539b14D23f9a9/sources/contracts/Pilix_Art.sol:PolyPILIX",
						"label": "_operatorApprovals",
						"offset": 0,
						"slot": "2",
						"type": "t_mapping(t_address,t_mapping(t_address,t_bool))"
					},
					{
						"astId": 146,
						"contract": "verified-sources/0x8982F2001c9e34C8a6109FC8a85539b14D23f9a9/sources/contracts/Pilix_Art.sol:PolyPILIX",
						"label": "_uri",
						"offset": 0,
						"slot": "3",
						"type": "t_string_storage"
					},
					{
						"astId": 1911,
						"contract": "verified-sources/0x8982F2001c9e34C8a6109FC8a85539b14D23f9a9/sources/contracts/Pilix_Art.sol:PolyPILIX",
						"label": "baseURI",
						"offset": 0,
						"slot": "4",
						"type": "t_string_storage"
					},
					{
						"astId": 1913,
						"contract": "verified-sources/0x8982F2001c9e34C8a6109FC8a85539b14D23f9a9/sources/contracts/Pilix_Art.sol:PolyPILIX",
						"label": "name",
						"offset": 0,
						"slot": "5",
						"type": "t_string_storage"
					}
				],
				"types": {
					"t_address": {
						"encoding": "inplace",
						"label": "address",
						"numberOfBytes": "20"
					},
					"t_bool": {
						"encoding": "inplace",
						"label": "bool",
						"numberOfBytes": "1"
					},
					"t_mapping(t_address,t_bool)": {
						"encoding": "mapping",
						"key": "t_address",
						"label": "mapping(address => bool)",
						"numberOfBytes": "32",
						"value": "t_bool"
					},
					"t_mapping(t_address,t_mapping(t_address,t_bool))": {
						"encoding": "mapping",
						"key": "t_address",
						"label": "mapping(address => mapping(address => bool))",
						"numberOfBytes": "32",
						"value": "t_mapping(t_address,t_bool)"
					},
					"t_mapping(t_address,t_uint256)": {
						"encoding": "mapping",
						"key": "t_address",
						"label": "mapping(address => uint256)",
						"numberOfBytes": "32",
						"value": "t_uint256"
					},
					"t_mapping(t_uint256,t_mapping(t_address,t_uint256))": {
						"encoding": "mapping",
						"key": "t_uint256",
						"label": "mapping(uint256 => mapping(address => uint256))",
						"numberOfBytes": "32",
						"value": "t_mapping(t_address,t_uint256)"
					},
					"t_string_storage": {
						"encoding": "bytes",
						"label": "string",
						"numberOfBytes": "32"
					},
					"t_uint256": {
						"encoding": "inplace",
						"label": "uint256",
						"numberOfBytes": "32"
					}
				}
			},
			"userdoc": {
				"kind": "user",
				"methods": {},
				"version": 1
			}
		}
	}
}